S02B00002F55736572732F73757072617461702F73696C6162732D73746173682F6D61747465725F6578746526
S3150800600008120020BDE60308A9150B08AD8F000885
S31508006010F56C0C08D58F0008E98F0008FD8F00087D
S31508006020A9150B08A9150B08A9150B08CDFC0D0811
S3150800603011900008C849100871FC0D08553A0E0859
S3150800604035E30308A9150B08A9150B08A9150B08AC
S31508006050A9150B08A9150B08A9150B08A9150B08EE
S31508006060A9150B08A9150B08A9150B08C193000853
S31508006070A9150B08A9150B08A9150B08A9150B08CE
S31508006080A9150B08A9150B08A9150B08A9150B08BE
S31508006090A9150B08A13A0608A9150B08A9150B0896
S315080060A0A9150B088D3706086D370608A9150B08BC
S315080060B0A9150B0819D40808EDDC0808C5F20D085F
S315080060C0C1F20D0861D40808DBF20D08C9F20D0803
S315080060D0BDDC0808CDF20D082DDD080895DD080899
S315080060E0A9150B08A9150B0809910008A9150B088D
S315080060F08B620C08A9150B08A9150B08A9150B081E
S31508006100A9150B08A9150B08A9150B08A9150B083D
S31508006110A9150B08A9150B08A9150B08A9150B082D
S31508006120A9150B08A9150B08A9150B08A9150B081D
S31508006130A9150B08A9150B08A9150B08A9150B080D
S31508006140A9150B08A10E0708A9150B08294A0E0858
S3150800615019BE0808A9150B08A5F20D08ABF20D081B
S31508006160A9150B08A9150B08A9150B08A9150B08DD
S31508006180F0B5114A114C124E00F00105E3695F079C
S3150800619013D40DB9334213D103EA00078F4207D14E
S315080061A00B4A1A40002A14BF6FF001000020F0BD08
S315080061B0013AEBD16FF00200F9E74FF0FF30F6E74E
S315080061C06FF00100F3E700BF8096980000000350C7
S315080061D00200010070B50B4BD96911F480310DD15D
S315080061E001244FF48072084E084DF46020462C6452
S315080061F01A61FFF7C5FF3464EC6070BD6FF00100EB
S31508006200FBE700BF000003500010035000200350B6
S315080062104FF4803238B50E4B0E4C9A66E56941F656
S31508006220713315400122E3630B4B0021DA60022328
S31508006230606121202361FFF7A3FF10B92120FFF732
S315080062409FFF0122054BDA600DB10023E36338BDD9
S315080062500090005000000350001003500020035027
S3150800626070B5134C6061E3695B071ED40E4656F899
S31508006270043B8D18A361AE420BD1042300212120D3
S315080062802361FFF77DFF58B9BDE870402120FFF76D
S3150800629077BF08210846FFF773FF10B1042323616F
S315080062A070BD56F8043BA361E5E74FF0FF30F7E70A
S315080062B0000003502DE9F84316464FF48032184B78
S315080062C089469A6603F51C33DA69074602F480386C
S315080062D041F67132DA63012203F58053114DDA6013
S315080062E066B930460122104BDA60B8F1000F03D0C8
S315080062F00022A3F50053DA63BDE8F88307F50054D6
S315080063002C40E41BB44228BF344649462246384648
S31508006310FFF7A6FF0028E5D12744A144361BDFE78F
S315080063200090005000E0FFFF00200350000000002E
S31508006330000000000000000000000000000000004F
S31508006340013800D0FCE770472DE9F04F2DED028BA0
S315080063501C4613690546052BD7B00BD8013B01220D
S315080063600026042B23D8DFE813F041001C01230183
S31508006370320145014FF6FC72934212D04FF6FD7278
S3150800638093424FF0010340F0378102200021CDE906
S31508006390400184F84430204640A98AF067FF286007
S315080063A0D7E000230022CDE940230123F1E7CB699A
S315080063B0204684F844202E938AF0B3FA0028EED1BA
S315080063C041A84094A2F0D1FA40A92EA88FF0F2F87D
S315080063D0064620468AF0EAFA3046002EDFD14FF606
S315080063E0FF7384F84C60A4F84A30D8E7D1F81CA0AB
S315080063F0204684F844208AF094FA0746002840F09C
S31508006400A78015A81494A2F0B0FA51460CA88DF0EE
S3150800641092FC0523B8469FED7A8B0DF14009C9E930
S3150800642000A7C9E9023349460CA88FF04EF80028A0
S3150800643000F084800CA88FF02EF88DED248B8DED5E
S31508006440268B90F88160CDE92888CDE92088ADF8BB
S3150800645088808DF8A8808DF8B460D0E90023CDE94E
S315080064602623B0F8823000F1600BADF88830D0E909
S31508006470022320215846CDE92423CCF0A0FA624B0A
S315080064803146CDE928B02EAA50462E939CF02BFF14
S315080064900146002851D12FAB20934123219340ABCD
S315080064A0049355230DF1100B31465A465046059371
S315080064B09DF0A5F8014600283FD1059BB3B19BE89E
S315080064C00300012607AB0DF1280B83E803001946E4
S315080064D058468DF818608DF824608FF061F89BE8AF
S315080064E003002BAB83E803008DF8A8609DF8B43051
S315080064F0002B50D0149E96F8452096F808B00AB19D
S315080065005B454AD1304615A98AF077FA002844D067
S3150800651096F84630316823B3096C4FF4807200232D
S31508006520CDF800B020A8CAF03BFD0146304615AAB2
S3150800653003918AF07BFA039979B30F4620468AF0CD
S3150800654035FA2FB94FF6FF7384F84C70A4F84A3021
S315080065502F6000232B71284657B0BDEC028BBDE88F
S31508006560F08F336C06F1280209A88AF094F90146DF
S315080065700028DBD133680222196C20A80023CDF845
S3150800658000B0CAF00DFD01460028CFD1316809A830
S315080065908AF0B9F9C9E77121CFE70CA88EF068FF30
S315080065A041E70520002184F84420CDE94001F2E6C0
S315080065B0CB6993F88233CDE940360123204684F827
S315080065C0443040A98AF052FE2E712860C3E7CB6991
S315080065D0204684F844202E938AF0A3F900287FF4F5
S315080065E0DEAE41A84094A2F0C0F940A92EA88FF0CB
S315080065F0E2F8EDE6237ADEE78622C0E90023AAE779
S315080066000000000000000000983710080000000095
S315080066102DE9F04F2DED028B4FF0000A4FF0000BDD
S315080066201F464FF6FF740023CDB0CDE930ABCDE958
S3150800663032ABCDE936ABDFF89CA205460E4690464E
S31508006640CDE90E338DF8D0303593CDF8E0A04A94D5
S3150800665072B1044600F534794C4501D10B240CE09F
S3150800666020468AF0E5FB002800F01B819034F3E70A
S315080066709CF0C9FD814630B9AC2420464DB0BDEC2E
S31508006680028BBDE8F08F05F53474204688F096FF36
S31508006690B9F882308DF8D060ADF8283199ED028BC3
S315080066A009F1600920214846CCF089F9CDE90E9018
S315080066B0834B0DF12C0910930023CDF878A048469A
S315080066C01193C9F800300D930C9390F096F94FF496
S315080066D0C87028F097F90DF1300AC9F8000050B9CA
S315080066E00B240DA890F089F90CA890F086F90BA850
S315080066F090F083F9C1E70990504690F07EF94FF47F
S31508006700C87028F07FF98346CAF800000028E7D049
S315080067100DA890F072F94FF4C87028F073F90D902F
S315080067200028DDD0099B314612934FF4C87312AA8C
S31508006730CDE915302846CDE9133B17939CF0C3FDE8
S3150800674008B10446CDE73146284614AA9CF09DFDBB
S315080067500028F6D13146284616AA9CF073FD002873
S31508006760EFD112A918A88EF01BFF14A91AA88EF04B
S3150800677017FF16A91CA88EF013FF38AB079332AB88
S31508006780059336AB049330AB0DF1780B039310AB3E
S315080067908DED008BCDF818B002931CAA1AA918A87B
S315080067A01DF0F2FD0028CCD10DA890F026F9504630
S315080067B090F023F9484690F020F99FB9D5F864037C
S315080067C0002862D003689B6898470246D5F8640398
S315080067D00368002A52D05A4631465B69984780B109
S315080067E004464AE73B6838465B69984759469DF030
S315080067F035F808B9C52440E79DF8603135978DF816
S315080068002A319DF868312046B3FA83F330A95B092B
S315080068108DF82B319CF0C9FF0028E1D120460EA93E
S315080068209CF09EFC94F88130B8F1000F2FD002211D
S315080068301120244AA3F064FBD4E900122369CDE9A8
S31508006840012100930221112063691F4AA3F058FB16
S31508006850119905F55D7021F089FD034620B10121E6
S3150800686011201A4AA3F04CFBB8F1000F04D095F892
S315080068708233013385F882330024FEE63146DB682D
S3150800688098470028BDD11024F7E60324F5E6D4E995
S3150800689000121120CDE9002102210D4AA3F030FB98
S315080068A0D6E7BDF864319FED048BADF828318DF835
S315080068B0D060FDE6AFF30080000000000000000095
S315080068C0002610089BCB0E08BBCB0E0833CC0E084F
S315080068D0FECB0E08983710082DE9F0478AB00DF15F
S315080068E00D0301931523064600934FF48072002387
S315080068F008460C46A2F0B1F9E8B996F89630012296
S31508006900009320460023A2F02FF9A0B996F89730F5
S315080069100222009320460023A2F026F958B90DF169
S315080069200E03019316230322009320460023A2F0A8
S3150800693094F9054610B10AB0BDE8F0874FF0100982
S3150800694006F1C8070DF11808102200214046CBF0C1
S31508006950FCFF0DF10F03019315234FF4807200938A
S3150800696020460023A2F079F90028E4D196F897206A
S31508006970EBB29A4251D917ED0C7BC44637F828ACCE
S31508006980A7F12603A7F1160E624618685968083358
S3150800699003C273459446F7D18DED007B042200238C
S315080069A02046A2F0BCF80028C5D1052200232046BF
S315080069B0CDF800A0A2F0D8F80028BCD14046494638
S315080069C006228DE8030000232046CDE90489A2F0BB
S315080069D017FA0028AFD120469DF90F10A2F072F9D8
S315080069E0013530370028A6D1032DADD120469DF9B3
S315080069F00E10A2F067F900289DD1B6F88E3007224E
S31508006A00009320460023A2F0AFF8002893D1204631
S31508006A109DF90D10A2F056F98DE782469FED027B8F
S31508006A20BAE700BFAFF300800000000000000000D6
S31508006A30A0F1840050E700BF2DE9F04F2DED028B41
S31508006A4006460C469FED508B4569DFF8488199B09C
S31508006A5006F110039D4207D1304619B0BDEC028BF2
S31508006A60BDE8F04F23F060B9D5E91102D4E928133F
S31508006A709A4208BF88426F68019565D1D5E9130225
S31508006A80D4E92A139A4208BF88425DD14FF000091B
S31508006A900DF1300A002110225046CBF056FF14A8FB
S31508006AA0CDF844908DED128BCDF84080A4F078F89F
S31508006AB0ADF85C908DF85E90A146B4F8583009A8F8
S31508006AC0ADF8423059F8883B1193A4F069F899E873
S31508006AD0030007AB83E8030094F88C30B3B384460D
S31508006AE0D4E9240105AB83E8030094F8943083B312
S31508006AF00246D4F89830CDE914C2049313F47F0FF4
S31508006B00CDE9023314BFBDF81030BDF82C30ADF80E
S31508006B10583094F883308DF85D3094F884308DF8C9
S31508006B205C3094F886301BB194F885308DF85E3069
S31508006B304FF0000B043D04F1080963685B450AD869
S31508006B40304601A923F0AEF83D4681E7DDF824C0BA
S31508006B50C6E70A9ACDE7484622F0CAFD48B9012198
S31508006B6022200B4AA3F0CCF90BF1010B09F110090D
S31508006B70E3E799E80F008AE80F005146284623F014
S31508006B805FF8F1E7AFF300800000000000000000A6
S31508006B9003D40E080100A415054B18680368D969C3
S31508006BA001A3D3E90023084700E0373B015D030052
S31508006BB09C4802200000000073B5ABF0A9FA044611
S31508006BC000286ED13A4B01AE1A889B78ADF804209E
S31508006BD0B37038F019FE39F095FB39F0F3FA05462B
S31508006BE0344B036039F08EFD284639F097FC00B91E
S31508006BF0FEE72DA3D3E900234FF0FF314FF0FF3016
S31508006C0038F00AFE39F0E2FA214639F03BFBABF0E0
S31508006C1082FA304639F044FC044600B1FEE7264BBA
S31508006C20264A98801860264B98801A60254B264A73
S31508006C3018631A60254A98806FF06300DA603AF0A4
S31508006C40BFFC0B2039F010FB39F06EFB39F0B4FAB3
S31508006C5000B9FEE762F040F92046ABF00CFC0821CB
S31508006C600846ABF00FFC00B1FEE7ABF002FC39F0CA
S31508006C70F9F9ABF04CFB10211548C0F0A9F800B99A
S31508006C80FEE714491248C0F0B5F800B9FEE710212E
S31508006C908C20114A61F04CFD00B1FEE70F4840F028
S31508006CA051FD02B070BD00BF0AE020FFF2030000EC
S31508006CB0644D1008A7220B0898ED002057200220E3
S31508006CC060ED002028ED0020D71F022018ED0020D7
S31508006CD000B3012055460E08F0B20120E9BB0E08A4
S31508006CE02DE9F04389B0ABF004FA00B9FEE75E4D32
S31508006CF02B6803B9FEE701229B8811460DF10B00AC
S31508006D008DF80B3039F072FB9DF80B102B680239A1
S31508006D100022186889B239F069FB002305930793A6
S31508006D20524B05AE06932B6893F834208DF8142041
S31508006D301B681C7814F0200414D0ABF09EFB0028C6
S31508006D405ED0ABF09AFB6DF0C3FA0B46024642A141
S31508006D50D1E900016DF060FC6DF0CEFD079B18448B
S31508006D600124079039F086FB9DF80B30063300287E
S31508006D7049D0D8006DF0BCFA39A3D3E900236DF0E9
S31508006D8021FB8946804639F075FB6DF0A1FA0B4662
S31508006D900246494640466DF03FFC6DF0ADFD079B47
S31508006DA018440790ABF0ACF938B139F0C9FA0020AD
S31508006DB0ABF0A2F90020ABF0A6F92A6853696BBBC1
S31508006DC0ABF0BAF9D5F800C008B3079B284F03F50E
S31508006DD0FA7307939CF81830BB7039F0ABFAF87061
S31508006DE0286833463A462146807939F0E1FA68B38D
S31508006DF04FF480510020DDF044FCABF06BFC25E03D
S31508006E000798C030ACE7079800EB4310C9E732464D
S31508006E1021469CF8060039F0C1FAE8E7962115489C
S31508006E20818011690B441449A3F59B730B600021FB
S31508006E30CDE90331214690790E4B009603AA39F025
S31508006E40C5FA0028D4D10120ABF081F909B0BDE814
S31508006E50F08300BFAFF300800000000060E36641E6
S31508006E600000000080842E41ECB2012020A107001A
S31508006E704C49022040490220E8B2012000000000E7
S31508006E802DE9F3411E461C4B044683424FF000038E
S31508006E908B4115460AD216A3D3E900236DF09CFD53
S31508006EA01649144602462846AFF071FC144B4EF6B6
S31508006EB06021B4FBF3F203FB1244B4FBF1F34FF485
S31508006EC07A7801FB1344B4FBF8F728460D49009776
S31508006ED0AFF05DFC46B1284608FB17420A4902B0E6
S31508006EE0BDE8F041AFF053BC02B0BDE8F08100BF89
S31508006EF0005C260500000000FF5B26052F720F08C0
S31508006F0080EE360017CD0E0835720F080348044B7D
S31508006F10834202D0034B03B118477047045302203B
S31508006F200453022000000000064B0749C91A8910BD
S31508006F3048BF0131491003D0044B0BB1014818472B
S31508006F40704700BF045302200453022000000000CB
S31508006F5010B5064C237843B9FFF7D8FF044B13B195
S31508006F600448AFF300800123237010BDF4E101202B
S31508006F7000000000FCD5100808B5054B1BB10549F3
S31508006F800548AFF30080BDE80840FFF7CDBF00BF56
S31508006F9000000000C0550120FCD51008A3F5803A72
S31508006FA0704700BF174B002B08BF134B9D46FFF7D2
S31508006FB0F5FF00218B460F461348144A121ACBF0E8
S31508006FC0C4FC0E4B002B00D098470D4B002B00D06D
S31508006FD098470020002104000D000D48002802D023
S31508006FE00C48CBF045FA6EF0B5FE20002900BFF03C
S31508006FF09FFE02F093F800BF0000080000000000A2
S315080070000000000008120020081200204044022058
S3150800701071240D080000000002211D20014AA2F07B
S315080070206FBF00BFA84D0E0802211D20014AA2F01D
S3150800703067BF00BFB84D0E0808B5044A02211D20D7
S31508007040A2F05EFFFF22024B1A7008BDC74D0E085C
S31508007050DC51022070B5294D037C04462B70437C15
S3150800706023B103212120264AA2F04AFF2B78FE2BC2
S3150800707022D0FF2B30D00B2B37D80B2B35D8DFE897
S3150800708003F0061206343434343434343412A3F09C
S31508007090CCFD036841F288315D692346194AAC463E
S315080070A0BDE870406047A3F0C0FD036842F2107166
S315080070B05D69144A2346F2E7A3F0B7FD0368224642
S315080070C05B6A10499847A3F0B0FD03684FF47A71DC
S315080070D05D690C4A2346E2E7A3F0A7FD036822464A
S315080070E0BDE870405B6A07491847FF232B700221E9
S315080070F0BDE870401D20044AA2F002BFDC51022000
S31508007100E14D0E0839700008144E0E0808B5A5F0B2
S3150800711083F927F00FFF27F03FFF09482BF06EFA97
S3150800712000224FF46171074899F041F830B1BDE883
S31508007130084001212120044AA2F0E2BE08BD00BF92
S31508007140A0B00020C8A30020294E0E0810B50022C2
S315080071500C4613481349A5F007FA18210A20124AC3
S31508007160DCF0F6FF114B186040B921200121104AC6
S31508007170A2F0C6FE40F2017088F0AEF820460D4A2D
S315080071800A49DCF0B8FC40B9212001210A4AA2F0DC
S31508007190B7FE40F2027088F09FF8002010BD00BFCD
S315080071A0D0BF002041760008C0E50F08F857012037
S315080071B0574E0E089CE50F087A4E0E08F7B53E485E
S315080071C0A2F052FF01463C4CA368994201D3012B19
S315080071D012D9012910D0D4E9033202FB01331B7AF4
S315080071E02BB1FA221146354887F037FF14E02046BE
S315080071F0A2F05FFF0146E7E7314B1B780B2B09D856
S315080072000B2B09D8DFE803F00B0E1108080808084D
S3150800721008080816FF2B34D0012003B0F0BD32222F
S315080072203221E0E74FF47A72DCE74FF42F724FF41D
S315080072309671D8E7234C2378FBB94FF42F754FF492
S315080072409676214B684619680B681B699847DDE9ED
S3150800725000721E49D1E9003013F57A7340F1000037
S315080072609F4272EB0000D7D32378C1E9007283F0FE
S315080072700103324629462370B5E7322540F2B63671
S31508007280DFE7134B1B7873B1124B1B785BB1124BBC
S315080072901B7823B10121094800F0E2FDBCE7322240
S315080072A040F2B6319FE70D4B1B780BB1642299E784
S315080072B040F2B632B4E700BFEC55012010120020A8
S315080072C0DC510220F5E101209C480220081200202A
S315080072D0F7E10120EAF20120E9F20120E8F20120B3
S315080072E008B5084B18700848A4F06DFE074B1870CF
S315080072F00548A4F0C1FE064B1870BDE80840FFF724
S315080073005DBF00BFF7E10120A0B00020EAF201202E
S31508007310E9F2012008B51448A5F065F9A0B11348AB
S31508007320A4F051FE124B18701048A4F0A5FE114B9C
S315080073301870114829F0DCFC003818BF01200F4BE3
S3150800734018700948A5F058F90D4B1B780BB9FFF7CB
S3150800735035FF0C4800F05EFD0B4B186818B1BDE808
S31508007360084000F057BD08BDD0BF0020A0B00020DF
S31508007370EAF20120E9F2012008780120E8F201206A
S31508007380F6E1012010120020E855012008B5094B46
S315080073901868DCF047FD01300AD121200121064A90
S315080073A0A2F0AEFDBDE8084040F2067087F094BF33
S315080073B008BD00BF00580120944E0E08014608B5C6
S315080073C04FF47A7200238002890D6DF005FB094B94
S315080073D001461868DCF00AFD50B121200121064A51
S315080073E0A2F08EFDBDE8084040F2057087F074BF34
S315080073F008BD00BF00580120AC4E0E0808B5022192
S3150800740040F6B8330A4A2120A2F07AFD40F6B83091
S31508007410FFF7D4FF0122074B002107481A7000F036
S315080074201FFDBDE808404FF4FA71034887F019BEFE
S31508007430C54E0E08F6E101201012002008B5FFF728
S31508007440A5FF064B1A7842B100221A700221BDE840
S3150800745008402120024AA2F053BD08BDF6E10120EA
S31508007460044F0E0808B5094B0A211868DCF0BEFC63
S3150800747050B121200121064AA2F042FDBDE808408C
S3150800748040F2057087F028BF08BD00BFFC570120F1
S31508007490254F0E0810B5044686B00948A2F053FDDC
S315080074A060B10023CDE903330293064B21460193CD
S315080074B00223054A0093054B07F0F0FA06B010BD03
S315080074C0EC5501205570000819700008297000084D
S315080074D0004870475056012030B5174B8BB001AAAB
S315080074E003F12005144618685968083303C4AB42EB
S315080074F02246F7D1186820601048A5F06FF81048A2
S31508007500A4F061FD04460E48A4F0B6FD04400D48FB
S315080075108DF8054098F09BFD0B4B8DF8260093F8E7
S31508007520623906488DF80430A5F066F8074801A9BF
S3150800753087F03DFD0BB030BDD8E50F08D0BF002061
S31508007540A0B00020C8A30020809700205056012034
S3150800755008B5FFF7C1FFBDE80840014887F067BDD9
S315080075605056012010B50388012B11D10479012C3E
S3150800757007D1FFF7B1FF2146BDE81040054887F05F
S3150800758041BD032CF7D1BDE810400348FFF7E0BF23
S3150800759010BD00BF5056012000CC012008B5094B8C
S315080075A00146186858B100231822DCF010FE40B1D5
S315080075B0054A0121BDE808402120A2F0A1BC034AE2
S315080075C0F7E708BDF85701203D4F0E086A4F0E0829
S315080075D07FB50223ADF80030044B0190684602934C
S315080075E0FFF7DCFF07B05DF804FB00BF197700085A
S315080075F07FB50123ADF80030044B8DF804006846CA
S315080076000293FFF7CBFF07B05DF804FB657500082A
S3150800761013B5094B1B786BB100240DF107010473F0
S31508007620064887F0C0FC9DF80730022B02D1204699
S31508007630FFF7DEFF02B010BDF7E10120505601202A
S3150800764048F2040213B50388044693421ED007D8AD
S3150800765003F5FF437F339BB2012B1BD902B010BD44
S3150800766048F212029342F9D102211B4A2120A2F0C4
S3150800767047FCA3F0DAFA036840F6B8315C690023E0
S31508007680A446164A02B0BDE810406047027A144B79
S315080076901A70E3E713480DF1070187F084FC9DF89B
S315080076A00700012801D1FFF7A3FF94F90830012B41
S315080076B003D094F90930012BD0D102210A4A21209E
S315080076C0A2F01EFCA3F0B1FA036840F6B8315C6973
S315080076D0024A0023A047C1E7B34F0E08F5EE080893
S315080076E0F7E10120505601208B4F0E088B6808469B
S315080076F003B1184702212120014AA2F001BC00BFAC
S31508007700EF4F0E080022024902482BF061BE00BF67
S31508007710BD790008D0BF00200388022B06D1044B90
S315080077201B780BB9FFF76ABEFFF7ECBF704700BFBF
S31508007730F6E101200022024902482BF049BE00BFAB
S315080077400D710008D0BF002030B5A5B003AB01937A
S31508007750812301AC054602936EF07EFE21466FF04A
S3150800776087FB78B945B1DDE90112094887F029FC9C
S315080077700121074887F066FC94E8030032F04CFBC9
S3150800778025B030BD01212120024AA2F0B9FBF7E756
S31508007790505601201F500E0810B5002204462649EF
S315080077A0264800F0BFF90023224619462448D8F097
S315080077B0D7F8244B186040B921200121224AA2F0AB
S315080077C09FFB40F2047087F087FD002322460121C3
S315080077D01E48D8F0C5F81E4B186040B92120012173
S315080077E01C4AA2F08DFB40F2047087F075FD022159
S315080077F02120194B194AA2F083FB194A02210123B9
S315080078002120A2F07DFB2CF0DDF90368DB6F984799
S315080078100120FFF799FF00F0E9FA0021114887F0E7
S3150800782024FC1148A4F01AFC104B11491870114891
S315080078309BF08AFD10BD00BFF6520E085056012077
S31508007840D17500080058012037500E0831EF080896
S31508007850FC57012051500E08323B0F086B500E089A
S315080078608F500E0810120020A0B00020F7E101206A
S31508007870DC550120609D002038B50546FFF78CFFD2
S31508007880044638B10C482BF035FA204687F024FD1B
S31508007890204638BD2B682846DB689847044608B159
S315080078A00648F0E7064B1A6852F8580C1A58184456
S315080078B0926B9047ECE700BFAC500E08BE500E081E
S315080078C06078012010B50379012B05D1BDE8104079
S315080078D040F6B830FFF772BD144B1B781BB1BDE8F4
S315080078E01040FFF7ABBDFFF751FD114B1C78D4B91B
S315080078F01048A4F073FE22464FF461710E4898F0C2
S3150800790056FC04460B48A4F077FE24B101210B4A25
S315080079102120A2F0F5FA0020FFF716FFBDE8104077
S315080079200320FFF765BE0221054AF1E7F6E10120CB
S31508007930F7E10120D0BF0020C8A30020294E0E0879
S31508007940CF500E0837B50024144D2146202205F1E4
S31508007950D000C5E93244CAF0F8FF4823104AA5F812
S31508007960F040111D85F8F240A1F11C000093012397
S31508007970A2F0D3FA0B4A0C490C48CAF0C4F80C4AD0
S315080079800C4BC2E902441360303353600A49054A76
S31508007990074803B0BDE83040CAF0B5B850560120D4
S315080079A004560120504602200DEF0808EC55012028
S315080079B0D855012054E50F08DBEE080810B501215B
S315080079C009482BF0E7FA20B16EF046FD0121CBF00D
S315080079D02AF906482BF056FC2CF0F4F8BDE81040BE
S315080079E003689B6F184700BF60780120D0BF00204E
S315080079F00346074A30B500F1280514461868596841
S31508007A00083303C4AB422246F7D11868206030BD5C
S31508007A100458012030B5134D85B02B6804461988E3
S31508007A20114B803901932D2301EBD171002200936C
S31508007A30491080232846A9F054FE2046CBF03DF88D
S31508007A40142809D8002201230092CDE901232146F2
S31508007A5005222846A9F04EFF05B0BDE8304087F05C
S31508007A6078BA00BF0458012047EA0F0837B505461B
S31508007A700B480C4C036819885A880B4B4039002D63
S31508007A8018BF23460193402301EBD1710093453A71
S31508007A904910A9F026FE03B0BDE8304087F059BA70
S31508007AA00458012020E80F0820E60F0813B5134CE8
S31508007AB0236820465A88124B453A0193112302EB54
S31508007AC0D271009302EB610212236821A9F009FE24
S31508007AD0236820465A880B4B453A0193122302EB3A
S31508007AE0D271009302EB610210230821A9F0F9FD77
S31508007AF002B0BDE8104087F02CBA00BF0458012038
S31508007B0020EA0F08FCE50F0810B504460448A9F05A
S31508007B1063FD2046FFF77EFFBDE81040FFF7C6BFAE
S31508007B20045801202DE9F041054617460C4681B157
S31508007B300846CAF0C2FF142806D921482BF0DAF8FD
S31508007B402F242046BDE8F081214605F1B000CAF091
S31508007B5091FF36F027FA044620B1014619482BF062
S31508007B60C9F8AC24002037F011F8064628B10146BA
S31508007B7015482BF0BFF846F0A06405F18408404686
S31508007B8037F06CF8064628B1014610482BF0B2F8D3
S31508007B9046F0A0646FF07F4200234046C5E92223E1
S31508007BA0A9F01AFD064628B1014609482BF0A2F8A5
S31508007BB046F0A0644046FFF71BFF85F8CC70C0E787
S31508007BC00D510E081F510E083C510E084F510E0854
S31508007BD06B510E08F0B5074600F184058BB02846B0
S31508007BE0A9F0FAFC97F8CE204C4905A86DF038FCA8
S31508007BF0002301220093CDE9013205A91A4607F1AF
S31508007C00D0042846A9F076FE2046CAF056FF132867
S31508007C10234605AA07F1E00674D914461868596878
S31508007C20083303C4B3422246F7D119889B782180CA
S31508007C30A37000238DF827300024012623463246F8
S31508007C4037492846CDE901460094A9F053FE40235A
S31508007C503246009305A923462846CDE90146A9F0F0
S31508007C6049FE234602222F492846CDE901460094BB
S31508007C70A9F040FE032223462B492846CDE90146B2
S31508007C800094A9F037FE97F8CF302849A3420CBFD5
S31508007C904E22592205A86DF0E3FB0422234605A9C6
S31508007CA02846CDE901460094A9F024FE97F8F0305D
S31508007CB01F49A3420CBF4E22592205A86DF0D0FBDE
S31508007CC0234605222846CDE90146009405A9A9F0D0
S31508007CD011FE97F8F1308BB11649174A05A8B34239
S31508007CE018BF0A4615496DF0BBFB234606222846EF
S31508007CF0CDE90146009405A9A9F0FCFD87F029F90C
S31508007D000BB0F0BD144618685968083303C4B3426B
S31508007D102246F7D1186820608EE700BF88510E0802
S31508007D2097510E08A0510E08C1CF0F08AE510E0884
S31508007D30BD510E0884510E0880510E08CE510E080A
S31508007D404FF0FF3301222DE9F04F85B0CDE902321D
S31508007D500423234ACDE90033224900238046A9F0AB
S31508007D60D4F828B9204805B0BDE8F04F2AF0C2BFBC
S31508007D701B4834F0E1FD064608F18400A9F02CFC06
S31508007D8000254FF0030A06EB4604C4F1800404EB11
S31508007D90D4746410AE4204DC05B0BDE8F04F87F039
S31508007DA0D8B8002705EB450959FA84F95FFA84FB28
S31508007DB05FFA89F92A463946094835F023FB50B156
S31508007DC007EB4701594403234A464046CDF800A02D
S31508007DD0C9B287F0FBF80137BE42EBD10135D9E7C6
S31508007DE075F30120EBF20120D7510E080148A4F0E3
S31508007DF0A7BB00BF6078012010B504460178044887
S31508007E002BF004F9A37883F00103A37010BD00BF1B
S31508007E106078012073B503690446E3B14369D3B1B9
S31508007E200E4B684619680B681B699847D4E9042302
S31508007E30DDE90065A178002918BF1346D4E90212C6
S31508007E405B1842F10002B342AA4104D22046FFF76A
S31508007E50D3FFC4E9026502B070BD00BF9C4802208A
S31508007E6038B500230022C0E90433002304460D4632
S31508007E70C0E90223027802482BF0B4F8A57038BD91
S31508007E80607801200148A4F04BBA00BFA0B00020DA
S31508007E900148A4F047BA00BFA0B00020044A08B5BC
S31508007EA083680260243242600BB1CAF0DAFA08BD70
S31508007EB020ED0F08A0F10400F0E700BF10B5044656
S31508007EC0054B03604433436015F0E4F82046FFF79A
S31508007ED0E5FF204610BD00BFBC081008A0F104004D
S31508007EE0ECE700BF38B5124B044603F13802C2600E
S31508007EF003F14C02026103F16002426142680360C9
S31508007F00743383613AB183682BB1536042681A604F
S31508007F100023C0E9013304F14405284691F098F896
S31508007F20284687F0B3F8201D87F0B0F8204638BDFC
S31508007F309CF90F08A0F11400D4E7A0F11000D1E7CE
S31508007F40A0F10C00CEE7A0F11800CBE71F2008B57A
S31508007F5002210C4AA1F0D4FF0B482AF049FB78B954
S31508007F600121094829F03EFE50B908488CF087FAE5
S31508007F701F200221064AA1F0C3FF0348A4F0CEF948
S31508007F8008BD00BFF5510E08A0B0002078150020E6
S31508007F9013520E0870B500251D4C1E4A26461E4B68
S31508007FA0C2E901551360D5601574556115831B49DF
S31508007FB01B4A1848C9F0A7FD1A4B294646F8D83B6C
S31508007FC03246234604F1080007F0F2FF04F12003C5
S31508007FD0C4E93435144B2046C4F8D830134B104A3C
S31508007FE0C4E9383604F1F403C4E93B3541F20A43DF
S31508007FF00F4984F8E85084F8F451A4F8DC30C9F045
S3150800800082FDBDE87040064A0A490B48C9F07BBDA7
S31508008010781500203C58012038391008D11103087A
S315080080205046022088F90F084035100824351008F4
S31508008030E3F0080889F00808A44602207FB504463C
S3150800804002211F20854AA1F05BFF234602211F203B
S31508008050834AA1F055FF834D02211F207F4AA1F0D4
S315080080604FFF02211F20804AA1F04AFF2B784BB907
S3150800807028462BF077FA00280CBF012300232B7023
S3150800808040F0E4802146794828F02CFE6EF0E4F9A9
S315080080900446CAF0B0FD002840F0D880201D25F01F
S315080080A05FFF04F1080025F0EBFE2046CAF0B8FD94
S315080080B06F4A704B0221002808BF13461F206E4ADC
S315080080C0A1F01EFFFFF742FF002840F0BF806B4B70
S315080080D0039001936A4B6B480293A3F072FF6A4CB4
S315080080E0039001AB694823632AF0CEFF002840F0CD
S315080080F0AD806748A4F072FA664DD5E8AF3FDA0757
S315080081000BD42846AAF0ABFA38B1634A63496448E7
S31508008110C9F0F9FC2846AAF0A7FA624DD5E8AF3FA0
S31508008120DB070FD42846AAF09AFA58B15C495E488C
S3150800813015F014F8584A5D495B48C9F0E4FC28462E
S31508008140AAF092FA5A4D584B2846236429F04AF861
S315080081502669A5631EB9574E574B26617360E36BB4
S315080081604BBB564D6B68002B6FD105F1140086F09A
S31508008170DDFF05F11C0086F0D9FFEB6803B92B7209
S3150800818095F834304E4823F0050385F8343086F0E8
S31508008190CDFF4C4886F0CAFF95F834304A4823F09C
S315080081A0180385F8343086F0C1FF00236E602B7201
S315080081B085F83430E563236C0BB9444B2364444D8E
S315080081C0444B2846216963629CF0B1FA636A2846E3
S315080081D02B619BF001FD002838D122692562002A0F
S315080081E036D03D4B3D4D5A60636102F0EDFB3C4B8A
S315080081F00221A0623B4A2120E362A1F081FE2846C3
S31508008200216917F057FB08BB2069A5619EF0E0FCC1
S31508008210354B2169606435482360A2F0CBFC3348AE
S3150800822025F08EFE1849324816F0C4FE0446184852
S31508008230A4F0E2F93CB92F482AF05CFD14482BF06B
S3150800824007F9044630B1204600E0032004B070BDAB
S315080082502F20FBE700F0B0F8F5E700BF3D520E0807
S3150800826070520E08C8BF00207C520E0808780120FC
S3150800827034520E082C520E088C520E08857E0008C1
S31508008280917E0008A0B000205846022060780120A0
S31508008290D0BF002034580120504602208BF0080831
S315080082A0544602203058012028120020BD7E0008BE
S315080082B03C5801204447022000160220F86B012092
S315080082C01C6C0120246C0120046C0120E87300203A
S315080082D08C6901202447022084690120486901200D
S315080082E0284702209E520E08D8550120A44602208F
S315080082F080770020CE520E0810B51348FFF79EFE71
S3150800830008B186F0E9FF1148A4F068F96EF0A4F800
S3150800831000B10C301BF09CFD0C48A4F06DF91F2031
S3150800832002210B4AA1F0ECFD0A486BF0CDF908B121
S3150800833086F0D2FF084C2068DBF049FC08B1CAF089
S3150800834090F8206010BD00BFF3520E08D0BF002081
S31508008350FC520E0800CC01203858012010B50A48F6
S31508008360A4F0D8F80021094A0948DBF0C4FB094CF7
S3150800837002212060084A1F20A1F0C2FD23680BB91C
S31508008380CAF06FF810BD00BF607801205CED0F08D9
S31508008390F9820008385801200E530E08014824F0C7
S315080083A089B900BFD06D0120024B01211868DBF0A6
S315080083B067BC00BF5858012010B50A4824F0D2F807
S315080083C0044608B1CAF04DF801F076FA01F0BCFA95
S315080083D02146054A0548DBF08EFB054B1860002848
S315080083E0F0D010BDD06D012080ED0F089D830008E8
S315080083F05858012010B5044601210C20064AA1F060
S315080084007FFD0023E068A36020B1BDE81040036843
S315080084109B68184710BD00BF27530E08A0F104003B
S31508008420E8E700BF10B50B4CD4E8AF3FDB070ED426
S315080084302046AAF014F950B1074B084A08491360B8
S315080084400648084AC9F05FFB2046AAF00DF903481A
S3150800845010BD00BFC058012064341008C45801205C
S315080084604DF108085046022010B504460B4B036030
S315080084706433436000F50E7032F0DCFE636A23B1A4
S31508008480002204F11C0062629847236923B1002286
S3150800849004F1080022619847204610BD68FD0F08C0
S315080084A0A0F10400E0E700BF10B50446034B40F80E
S315080084B0343B86F061FE204610BD00BF14FD0F0850
S315080084C037B5C0680D46144638B901210C200E4A46
S315080084D0A1F016FD002003B030BD1A6821460192AE
S315080084E000221A6001AA0AF0F9F801A886F044FEEB
S315080084F0A38823B9E38813B92378402BEAD02B89BC
S3150800850043F040032B81E5E73A530E08A0F1040037
S31508008510D6E700BFF0B505460C46152003211B4AD1
S3150800852085B0A1F0EDFCAE6816B9032005B0F0BD24
S315080085300023ADF8083023892BB96389022B20D193
S31508008540237B142B02D00123ADF808306068277B03
S3150800855031F060FE63683A46039302AB0093A16864
S31508008560304603AB24F086FC044603A886F004FED6
S315080085702CB1A86818B1A2F030F80023AB602046E9
S31508008580D4E7002BDFD1237B402BDBE76D530E08A6
S3150800859037B516480AF08CFA1549164AD1F8AC349C
S315080085A0154D5360A1F54051144B104800950AF03B
S315080085B075FB134B114A136129F0ECF80446024681
S315080085C00A490E480BF094FB2946204628F078FF06
S315080085D040B10C482AF08EFB6D210B4B0B4A0C4818
S315080085E06CF0F0FB6C6003B030BD00BF5018002083
S315080085F080A70020CC46022070170020AC46022037
S31508008600805101007E530E089A530E08AF530E0888
S31508008610CD530E0838B500243248334BC0E9044020
S3150800862003606433436000F10803C0E902332F4B4B
S31508008630C0E90940836100F11C03C0E907332C4BEC
S31508008640C0E90D44C0E90B342A4BC0E92044436411
S31508008650203383640523C0E92244C0E9644480F8D2
S315080086603C40046480F8744080F89841C0F89C4106
S3150800867080F8A04180F8B84180F8D041C0F81C3293
S315080086801D4B1E4A1E491F4DC0F83832C0E98F449B
S3150800869080F8E84180F80042C0F8184280F8204285
S315080086A080F84442C9F02FFA144A17491748C9F006
S315080086B02AFA124A16491748C9F025FA2846164BC7
S315080086C06C6040F8103B2C722BF0B4FAC5E93444C0
S315080086D0C5E936442846BDE83840084A0F49C9F076
S315080086E012BA00BF5018002068FD0F089538010817
S315080086F0B12B0108ACED0F08744310085046022050
S31508008700698400087017002061F10808CC46022029
S3150800871063F10808AC46022014FD0F08A984000876
S31508008720012903BF034B00201B78A62008BF13703E
S31508008730704700BF1FFC0120022938B514461D46A4
S315080087400FD1202200210848CAF0FFF83CB1202D9D
S315080087502A46214628BF20220348CAF0A1F900204C
S3150800876038BDA620FCE700BFFFFB0120104608B570
S315080087706AB163B102290CD1202B28BF20231A46DF
S31508008780029B05491A60CAF08BF9002008BD2F2004
S31508008790FCE7A620FAE700BFFFFB0120012905D167
S315080087A002B11278024B00201A707047A620704753
S315080087B01FFC01202DE9F0431D46002389B007461A
S315080087C008460E461446CDE905332AF0B5FF18B912
S315080087D0D82009B0BDE8F083304605A92BF078F813
S315080087E00028F6D120462AF0A7FF0028F0D0204618
S315080087F006A92BF06DF80028EBD1DDE90586079070
S3150800880007A912482BF064F80446D8B9079B18EB59
S31508008810030902D10EB1C9F024FE009302213B469A
S315080088201F20CDE901860A4AA1F06AFB6B689E42C1
S315080088300AD8324649462868CAF06EF86B689E42DE
S31508008840E9D86E602046C4E71924FBE721720800C0
S3150800885039540E0801482BF083B900BF007208008E
S31508008860002307B50348019301AB2BF085F803B045
S315080088705DF804FB0072080001482BF02DB900BF13
S315080088800C72080010B506480C462AF0F5FF40F2AF
S315080088900123984202BF4FF6F1732380002010BDD2
S315080088A00C72080001482BF05BB900BF0D72080076
S315080088B073B5002601AB0C480C46154601962BF0FD
S315080088C05BF840F20123984208D14CB1062D09D92C
S315080088D020462946054A86F090FC304602B070BD0F
S315080088E00B20FBE71920F9E70D72080057540E080C
S315080088F001482BF0F1B800BF0B72080010B5064806
S315080089000C462AF0B9FF40F20123984202BF48F20A
S3150800891005032380002010BD0B72080001482BF0C8
S315080089201FB900BF0E72080073B5002601AB0C48CC
S315080089300C46154601962BF01FF840F20123984283
S3150800894008D14CB1062D09D920462946054A86F094
S3150800895054FC304602B070BD0B20FBE71920F9E73E
S315080089600E7208005E540E0801482BF0F9B800BFD5
S3150800897010720800002307B50348019301AB2AF0DB
S31508008980FBFF03B05DF804FB1072080001482BF0EA
S31508008990E7B800BF11720800002307B50348019322
S315080089A001AB2AF0E9FF03B05DF804FB1172080079
S315080089B001482BF0D5B800BF12720800002307B58E
S315080089C00348019301AB2AF0D7FF03B05DF804FB17
S315080089D01272080001482BF07FB800BF1872080011
S315080089E010B506480C462AF047FF40F20123984284
S315080089F002BF01232380002010BD00BF18720800A3
S31508008A0001482BF0ADB800BF0F72080073B50026F9
S31508008A1001AB0C480C46154601962AF0ADFF40F20C
S31508008A200123984208D14CB10C2D09D92046294674
S31508008A30054A86F0E2FB304602B070BD0B20FBE724
S31508008A401920F9E70F72080068540E0801482BF040
S31508008A5087B800BF0472080001482AF08DBF00BF1E
S31508008A600472080001482BF095B800BF1F72080071
S31508008A7007B50020009003482AF0D4FF03B05DF83C
S31508008A8004FB00BF1F72080001482BF025B800BF81
S31508008A900772080013B510480C462AF0EDFE40F29E
S31508008AA001229042034604D14FF4706323800023C9
S31508008AB00FE070B92388B3F5805FF8D34FF4C2731B
S31508008AC02F240121CDE90034044A054BA1F018FAF8
S31508008AD02346184602B010BD0772080095540E08C2
S31508008AE075540E0801482BF00FB800BF087208002D
S31508008AF010B506480C462AF0EBFE40F201239842D0
S31508008B0002BF4FF47A732360002010BD0872080074
S31508008B1001482BF025B800BF0972080001482AF061
S31508008B202BBF00BF0972080001482BF019B800BF17
S31508008B300A72080001482AF01FBF00BF0A7208001F
S31508008B400B4610B5084A0C4608480949FFF732FE95
S31508008B50D82807D11BF008FA03682146BDE810405B
S31508008B609B68184710BD00BF27720800A6540E0858
S31508008B70267208000B4610B5084A0C4608480949EB
S31508008B80FFF718FED82807D11BF0EEF9036821462F
S31508008B90BDE810405B69184710BD00BF2572080084
S31508008BA0C2540E08247208000B4610B5084A0C4633
S31508008BB008480949FFF7FEFDD82807D11BF0D4F964
S31508008BC003682146BDE810401B69184710BD00BF61
S31508008BD023720800E8540E0822720800022307B51B
S31508008BE001A8D1E9001201936DF058FB18B9019953
S31508008BF002482AF089FF03B05DF804FB20720800DA
S31508008C001FB5022003900698009003A86DF05EFB3E
S31508008C1018B9039902482AF077FF05B05DF804FBF6
S31508008C2020720800002370B5164886B00D46164611
S31508008C3004932AF081FDE8B1124804A92AF048FEF7
S31508008C40B0B9049B3246002B08BF0223294605A863
S31508008C5005936DF0A3FB0446029073681F200193E9
S31508008C606B6802210093084A049BA1F049F9204643
S31508008C7006B070BD1BF078F90368324629469B6931
S31508008C809847E8E72072080001550E0801482AF0BF
S31508008C903BBF00BF2172080001482AF019BE00BF79
S31508008CA02172080001482AF05BBF00BF297208003C
S31508008CB001482AF061BE00BF2972080001482AF05F
S31508008CC069BF00BF0572080007B500200090034879
S31508008CD02AF0A8FE03B05DF804FB00BF0572080081
S31508008CE001482AF0E1BE00BF2872080001482AF0B0
S31508008CF097BD00BF287208000020094B10B5186000
S31508008D0032B9084C2146BDE8104007482AF0FCBE97
S31508008D10A1F5005105488C18A3F00DFCF2E700BF39
S31508008D20C858012000E01708217208006078012061
S31508008D3000232DE9F04F85B080460F462C4803A93D
S31508008D40154603932AF0C4FD002838D1294E336806
S31508008D5023B903992848A3F0CFFB80BBD5E90014B3
S31508008D603368039A02EB030B14F003031BD10A467C
S31508008D70234659462048A3F0C5FB00BB4046316848
S31508008D802AF0C2FED8B9384669682AF0BDFEB0B9DD
S31508008D9032686B680020134413F03F021CBF40334F
S31508008DA09B1A33600BE004F1040AAAEB030A504647
S31508008DB0019125F027FE0199814618B9AC2005B026
S31508008DC0BDE8F08F2246C9F06BFEAAEB0402FF212C
S31508008DD009EB0400C9F0B9FD53464A465946064808
S31508008DE0A3F090FB0446484625F030FE2046C4E72B
S31508008DF021720800C85801206078012008B50A4683
S31508008E0002480349FFF794FF08BD00BF2272080015
S31508008E102372080008B50A4602480349FFF788FF87
S31508008E2008BD00BF247208002572080008B50A4666
S31508008E3002480349FFF77CFF08BD00BF26720800F9
S31508008E4027720800044600B589B01E22002168462C
S31508008E50C9F07BFD2346084A1E2168466CF0CAFA0B
S31508008E606946064829F046FF684686F038FAD7F07C
S31508008E70B1FFC9F0F6FA00BF4C550E0862550E0848
S31508008E802DE9F04F0446D0E90076384B87B0D3F881
S31508008E9028B0D3F82CA0D3F83490D3F83880D0E98A
S31508008EA0025301930369012102934369304A0393EC
S31508008EB083690493C369002005932E4B1B68A1F0B0
S31508008EC01FF85B46012100202B4AA1F019F85346EA
S31508008ED001210020294AA1F013F84B460121002060
S31508008EE0274AA1F00DF8434601210020254AA1F0A2
S31508008EF007F8234601210020234AA1F001F800F0D3
S31508008F0023FB3B4601210020204AA0F0F9FF334607
S31508008F10012100201E4AA0F0F3FF2B460121002064
S31508008F201C4AA0F0EDFF01210020019B1A4AA0F07F
S31508008F30E7FF01210020029B184AA0F0E1FF01216A
S31508008F400020039B164AA0F0DBFF01210020049BAA
S31508008F50144AA0F0D5FF01210020059B124AA0F073
S31508008F60CFFF00F0F1FADBF009FAFEE700ED00E0CA
S31508008F70C3550E0894630120D9550E08EF550E08FF
S31508008F8005560E081B560E0831560E0847560E088B
S31508008F905D560E0873560E0889560E089F560E081B
S31508008FA0B5560E08CB560E08E1560E08024B034A74
S31508008FB01A6086F095B900BF94630120445241486F
S31508008FC0024B034A1A6086F08BB900BF94630120EE
S31508008FD04655504D024B034A1A6086F081B900BFC8
S31508008FE09463012046535542024B034A1A6086F0A1
S31508008FF077B900BF9463012054465355024B034A80
S315080090001A6086F06DB900BF946301205446435335
S31508009010024B034A1A6086F063B900BF94630120C5
S315080090204E4D4244012108B50020064B064AA0F0E1
S3150800903067FF00F089FADBF0A1F9044904486CF0EF
S3150800904001FCFEE7F7560E0851520F0893550E0815
S31508009050AA550E080C4600B59BB06422002101A84B
S31508009060C9F073FC23466421094A01A86CF0C2F9C9
S3150800907001210020074A01ABA0F042FF00F064FA84
S31508009080DBF07CF9044905486CF0DCFBFEE700BF21
S315080090901A570E0851520F0893550E08AA550E086E
S315080090A0034B0360034B0B604FF4A07313607047C8
S315080090B030630120305E0120034B0360034B0B60D5
S315080090C04FF4A07313607047CC5D0120CC58012083
S315080090D00C4600B59BB06422002101A8C9F035FCF6
S315080090E023466421064A01A86CF084F90121002070
S315080090F0044A01ABA0F004FF00F026FAC9F0B1F962
S315080091002D570E0851520F08024B034A1A6086F073
S31508009110E7B8704794630120474F44572A2108B59A
S31508009120024800F05BF9BDF0B2F8FEE73D570E08BD
S31508009130024B01211868DAF0A3BD00BF6064012064
S315080091400D4BD9889A8889B292B2914211D0D988A2
S315080091509A8889B292B291423DBF9A88D8881B896B
S31508009160D8882DBF9B8813FA80F0801AC01A80B25F
S3150800917070470020704700BF98630120F8B50E4677
S31508009180074608B9C9F06DF9154D2C898C42F9D3F3
S31508009190FFF7D6FF201A80B286421BD8EB88E888EC
S315080091A0E41AA4B2A6422B6815D92246394613FA00
S315080091B080F0C9F075FC2868321B3919C9F070FCB3
S315080091C0EB8816FA83F12B89B1FBF3F203FB121134
S315080091D089B2E980F8BD3246394613FA80F0EDE7E0
S315080091E09863012038B50446DBF0B1FA012105463B
S315080091F00846D9F0C3FB2846DBF0A4FA0C480D4B09
S315080092002146B4F8002100685CF04EFE4FF0FF32AC
S3150800921000210120DAF075FDDBF099FA04460021F9
S315080092200120D9F0ABFB2046BDE83840DBF08ABA0E
S31508009230284B0220319100080023F0B5C3B0174D22
S31508009240174E01ACA4F8003184F802314FF0FF3311
S31508009250002221462868DAF0EEFF0028F6D194F8B5
S3150800926002712046FFF7BEFF47B140F60D23238063
S3150800927002232046A4F80031FFF7B4FF326852B142
S31508009280204608496CF0ECF80023A4F800012046B3
S315080092903360FFF7A7FF00231A46DAE7F4630120D5
S315080092A0F863012067570E082DE9F843DFF8508068
S315080092B01E46B8F800901546A3EB09070D4BFFB2FA
S315080092C01C89FFF73DFF241AA4B2A74207D83946DE
S315080092D005EB0900FFF752FF0023A8F800300648FF
S315080092E032462946054B00685CF08AFCBDE8F8431F
S315080092F0FFF75AB898630120284B0220A992000864
S3150800930048DD012070B5214E3468002C3DD14FF45C
S3150800931082711F4A0A20DAF01BFF1E4D1E4A28607A
S3150800932021461E48DAF0E7FB1D4B1E4A9C801A6050
S315080093304FF4807230601A81DC8008B9C9F091F860
S315080093402B68002BFAD0184CA7F0CDFE8022174BBD
S31508009350174920685CF054FC8022144B1549206894
S315080093605CF04EFC0B205FF055F90B205FF00CF912
S315080093701422114B0521DA640422A3F580531A65D9
S315080093800E48BDE87040BCF092BE70BD6064012016
S315080093901CEE0F08F463012034EE0F08399200081A
S315080093A09863012020FC0120284B0220A99200087E
S315080093B0C80B0220480B02200020015B0000015B5D
S315080093C008B5FEF7F1FF0421034B03F500521165BA
S315080093D0D164DB6C08BD00BF0000015BF0B50C462C
S315080093E00646C3B018B94FF0FF3043B0F0BD4B1E68
S315080093F0FF2BF8D80D4F3B680BB9FFF783FF002307
S3150800940001AD2246314628468DF80631C9F048FB9B
S315080094104FF0FF33182229463868ADF80441DAF0D0
S31508009420D6FE0028DFD120B2DFE700BFF4630120B3
S3150800943030B50C46C3B00146D8B1631EFF2B18D809
S3150800944001AD22462846C9F02BFB01230A488DF8B0
S3150800945006311822002329460068ADF80441DAF0DF
S31508009460B6FE10B920B243B030BD044A13680133C2
S3150800947013604FF0FF30F6E7F4630120F86301202C
S315080094800422F0B52C4B85B00C4607461A65002811
S315080094904FD000294DD0FFF753FEA04219D2DBF07A
S315080094A069F905462548264E03AB01A9006802AAB4
S315080094B0BCF04EFD338802998B4207D20198C91A2F
S315080094C0184489B2FFF75AFE029B33802846DBF020
S315080094D04CF91C4D2E89B44201D9C8F0C2FFFFF7DA
S315080094E02FFEA04228BF2046AB8884B2F61AB6B231
S315080094F0B4422B68A98817D9324613FA81F138463F
S31508009500C9F0CEFA2968A21BB819C9F0C9FAAB88FE
S315080095102A8914FA83F3B3FBF2F102FB11339BB2E7
S31508009520AB8020B205B0F0BD2246384613FA81F169
S31508009530EBE74FF0FF30F5E70010015B284B022000
S3150800954048DD012098630120002370B5C2B00B4D99
S315080095500B4E01ACA4F8003184F8023100232146F1
S315080095601A462868DAF067FE08B142B070BD21468F
S31508009570B4F8002130685CF007FAEFE7F4630120DD
S31508009580284B022008B5082025F03CFA18B100231C
S315080095904360014B036008BD7CEE0F0808B5082040
S315080095A025F030FA18B100234360014B036008BD6B
S315080095B098EE0F08436843B9054B0B6005234B60CB
S315080095C0436801334360012070470020704700BF9D
S315080095D081570E08042370B5144645688AB0ADF85D
S315080095E002302B680A4601A805499E6885F0E3FE05
S315080095F0224628460DF1020301A9B0470AB070BDFC
S3150800960087570E0830B54468134622688BB015692B
S3150800961001A80A46034985F0CEFE204601A9A847B7
S315080096200BB030BD94570E0830B58DB04468019222
S3150800963023680A4603A80649DD6885F0BCFE0423AC
S3150800964020460DEB030203A9A8470DB030BD00BFA5
S3150800965087570E08F0B5A3B0064617A81F460C464E
S3150800966015469FF082F92A2217A80CA99FF08FF9B0
S315080096700DF10B03019315234FF48072009317A87D
S3150800968000239FF0EAFA50BB97E80300154B8DE8D4
S315080096900300D3E9002317A89FF0B7FBF8B9D7E969
S315080096A00201114B8DE80300D3E9002317A89FF0A8
S315080096B0ACFBA0B99DF90B1017A89FF003FB70B976
S315080096C07668224633680949DF6803A82B4685F081
S315080096D072FE3046BDF874300CAA03A9B84723B009
S315080096E0F0BD00BFE8EE0F08E0EE0F0894570E082D
S315080096F013B5044608460A4B1146C4E90030002350
S31508009700C4E903330193036822815B6A01AA984777
S3150800971010B9019BC4E90303204602B010BD00BF7F
S3150800972060EE0F082DE9F041D0E903329342044672
S315080097300D469EB003D300201EB0BDE8F0812A2650
S3150800974042683B495768ADF802603A68D2F8088023
S31508009750028910A885F02FFE38460DF1020305AAE6
S3150800976010A9C0470028E6D110A89EF042FC324650
S3150800977005A910A89EF080FC4FF4807200231521DD
S3150800978010A89FF011F80028D5D10DF1010110A8F5
S315080097909EF045FE0028CED1264BCDE90100D3E93F
S315080097A00023CDE9030010A89EF0F1FF0028C2D1DE
S315080097B001AE314610A89EF0F4FE0028BBD11E4B20
S315080097C010A8D3E900239EF0E2FF0028B3D10DF1DB
S315080097D00C08414610A89EF0E4FE0028ABD110A85C
S315080097E09EF0CAFF0028A6D19DF9011010A89EF088
S315080097F06FFF00289FD196E8060004F1140704F1CC
S315080098002506384685F0FCFD98E80600304685F0C2
S31508009810F7FD3846C9F051F9C5E900703046C9F078
S315080098204CF9C5E90260E36801200133E36083E788
S3150800983094570E08E8EE0F08E0EE0F0870B50546D7
S315080098400E460024AC4206DB22F0BEFF0649A0F015
S3150800985076F8002070BD22F0B7FF56F82420034999
S31508009860A0F06DF80134EDE7A7570E0818630F0846
S3150800987070B505460E460024AC4201DB002070BDDB
S3150800988056F8243002211C20024AA0F039FB013484
S31508009890F2E700BF51520F0810B522F095FF0446B3
S315080098A09CF01DFC034902462046A0F048F800201B
S315080098B010BD00BFA5570E0803220249024822F030
S315080098C02FBE00BFF0EE0F08D06D01202DE9F0473E
S315080098D00646E0B088464FF4C07200216846C9F0D3
S315080098E034F8002E29DD00256C464FF0200958F87B
S315080098F025A05046C9F0E1F860AB27189F420246FA
S315080099001DD220465146C9F047F87C1C60AB9C42E4
S3150800991005F101052CBF3C4687F80090AE42E6D11A
S315080099200848A2F0FDFC6846D2F07DFA0548A2F088
S31508009930F9FC002060B0BDE8F0872F20FAE719206F
S31508009940F8E700BFA0B0002001220249024822F031
S31508009950E7BD00BF14EF0F08D06D01200122024BAE
S3150800996083F80421704700BF6464012070B5836BD7
S3150800997005460C4643B1134B2420002918BF0B4655
S31508009980114A0321A0F0BCFA2B6821465B6C2846D5
S315080099909847AB6B064653B1A0280AD1094B0B4A28
S315080099A0002C18BF234603212420A0F0A9FA30462C
S315080099B070BD9F28FBD1034B054A002C18BF2346D0
S315080099C0F1E700BF1E580E0825580E0868580E08FD
S315080099D0B2580E082DE9F0411F46836B0546012B48
S315080099E00C46164608D9154B2420002918BF0B46E5
S315080099F0134A0321A0F084FA2B683246D3F83C8038
S31508009A0021463B462846C047AB6B0646012B0AD97A
S31508009A10A0280BD1094B0B4A002C18BF234603215B
S31508009A202420A0F06DFA3046BDE8F0819F28FAD1CF
S31508009A30024B054A002C18BF2346F0E71E580E08AD
S31508009A4002590E083F590E0886590E0810B50446E5
S31508009A50054B036000F5CF60A1F049F823690BB107
S31508009A60C8F0FFFC204610BDD43410082DE9F34198
S31508009A701E46836B05460C46174633B10B46242013
S31508009A8003210F4A0096A0F03BFA2B683A46D3F812
S31508009A904080214633462846C047AB6B0646012B15
S31508009AA00AD99F2808D1074B0321002C18BF234643
S31508009AB02420054AA0F024FA304602B0BDE8F08119
S31508009AC0D3590E081E580E08225A0E0870B50446B9
S31508009AD00B4B00F5387503F12C0203604C334260DA
S31508009AE0836000F11006B54207D055F8080C283DEA
S31508009AF00028F8D030F01AFCF5E7204670BD00BF04
S31508009B00243F1008A0F10400E0E7A0F10800DDE713
S31508009B1010B5094B04460360084B8360006948B1D9
S31508009B2043680BB9C8F09DFC013B436013B9036851
S31508009B301B6B9847204610BD78EF0F08CC421008DB
S31508009B4010B50446034B40F80C3BFFF7E1FF2046EF
S31508009B5010BD00BF9CEF0F080022002310B5C0E916
S31508009B600023C0E90223C0E904230D4B0446002163
S31508009B70836121226030C8F0E8FE4FF6FF720023A9
S31508009B80A4F882204FF48072204684F88130A4F825
S31508009B908420C4F8883085F011FD204610BD00BF2A
S31508009BA098371008F7B500F1080504460E46056013
S31508009BB011B91048C8F064F90846C8F07EFF0F28A6
S31508009BC006EB0007019008D90022204601A96AF091
S31508009BD011F80546019B2060A3603A46314628469F
S31508009BE0C8F0AEF900212046019B22686360D15473
S31508009BF003B0F0BD6F5A0E0810B50446044B036057
S31508009C00406A85F07CFCE06885F06BFD204610BD57
S31508009C1028EF0F0870B5164605460C468CB0114657
S31508009C20684685F0ACFC2946304685F01AFC641B6C
S31508009C300A4BE4105C43694606A885F0A0FC224658
S31508009C40002106AB284685F075FD06A8C8F038F948
S31508009C506846C8F035F90CB070BD00BFABAAAAAA11
S31508009C602DE9F04F4FF0180B044617460D468DB0F8
S31508009C7000EB0B08A5EB0409B9F5C07F24DD404BC2
S31508009C804FEAE90903FB09F94FEA690657BB1827A2
S31508009C90013E684607FB064185F071FC694606A841
S31508009CA085F06DFC20464A46314606AB85F042FDF6
S31508009CB006A8C8F005F956B96846C8F001F92B1B7D
S31508009CC0182BA5F1180507DC0DB0BDE8F08F68461E
S31508009CD0013EC8F0F5F8DCE72A4629462046FFF794
S31508009CE099FFECE70BFB06464046314685F01DFD1D
S31508009CF0A5F11809C246494660B1304685F015FDFA
S31508009D0008B131460BE04946404685F00EFD28B1BC
S31508009D10494604E0404685F008FD10B34146204612
S31508009D20C8F0AEF92E465046214685F0FEFCD146CF
S31508009D300AF1180A0028F6D1A6F1180A5146204653
S31508009D4085F0F3FC5646AAF1180A0028F6D1B14563
S31508009D500ED3013F29463A464846FFF781FF4D464E
S31508009D6088E74946304685F0E0FC0028C9D0CFE7A9
S31508009D7031464846C8F084F909F1180AD3E700BF06
S31508009D80ABAAAAAA2DE9F043884205460E4687B033
S31508009D9005D0DFF8608000F11804A64202D107B0AA
S31508009DA0BDE8F0832946204685F0BFFC04F1180774
S31508009DB0E0B12146684685F0E2FBB946641BE4102B
S31508009DC008FB04F4002C08DC2846694685F049FBA4
S31508009DD06846C8F075F83C46DFE7A9F13001A9F1F5
S31508009DE01809484685F03DFB013CEBE7204685F01F
S31508009DF0FEFCF0E7ABAAAAAA2DE9F041036886B0F3
S31508009E009B6A0446984701210346384A2420A0F055
S31508009E1077F8236821466846DB6A9847039E00243C
S31508009E2030460DF10408404505D1314B9C4206DD0C
S31508009E303048C8F028F8C7F0C5FE0134F3E71827FC
S31508009E4067431CB13846BCF022FE04462546464503
S31508009E502AD1AC4217D0284B2E1BF2105A43B2FA1D
S31508009E6082F2C2F11F02294620465200FFF7F8FE89
S31508009E70B6F5C07F28DD04F5C07631462046FFF7E3
S31508009E8081FFB5421BD12646B54222D12646B542A8
S31508009E9027D11CB139462046BCF009FE029885F048
S31508009EA02EFB06B0BDE8F081284606F1100185F0C4
S31508009EB006FB3046C7F086FE18350646C7E7304625
S31508009EC085F095FC1836DCE729462046FFF75AFF49
S31508009ED0D9E70121242056F8183B084AA0F010F8C3
S31508009EE0D2E73046C7F0ECFF1836D0E7A15A0E087D
S31508009EF055555505D25A0E08ABAAAAAA035B0E08F1
S31508009F00F8B50025474C60199035FFF725FEB5F5DD
S31508009F10347FF8D100254448FFF71EFE0026C4E921
S31508009F20D855C4E9DA55A4F87053C4F8745384F8BC
S31508009F30785384F8805384F88253A4F8845300270E
S31508009F4012243A4A3A493748C7F0DDFD394B3A4AAE
S31508009F501A6002F12C014C32C3E90225596010330C
S31508009F60102218460021C8F0F0FC41F2A45203461C
S31508009F70013CC0E90667057442824561056203F142
S31508009F802803EDD1294A2D492A48C7F0BCFD2C489B
S31508009F9023F062F8254A2B492948C7F0B4FD2A4818
S31508009FA031F07CFA214A29492748C7F0ACFD2848F0
S31508009FB0284B1E4A2849C0E9014403600473C7F0C8
S31508009FC0A2FD2648264B194A036000F10803C0E99A
S31508009FD00433244900F12003234DC0E90A330472EF
S31508009FE0C460846180F820404462046380F8344089
S31508009FF08463C7F088FD1D4B21462B601C4B10223D
S3150800A00005F11800EB60C5E901442C61C8F09DFC18
S3150800A010184BEC616B612846BDE8F840034A1649BF
S3150800A020C7F071BD38360020083900205046022096
S3150800A03019F6080858330020243F1008CD9A00085E
S3150800A040A82B00204D9A0008A01A0020B9B60308CC
S3150800A050D06501207443100835B2030894650120C1
S3150800A06028EF0F08F99B00086C6501209CEF0F0884
S3150800A07078EF0F08CC421008419B000870B50368BA
S3150800A08005460C4616460BB1032070BD02210D206D
S3150800A090074A9FF035FF0CB92F20F6E723682046BC
S3150800A0A0DB6898470028F0D1C5E90046EDE700BF10
S3150800A0B00B5B0E082DE9F04F074600688BB0046865
S3150800A0C00D46646C90461E46A0472D2804460ED0C1
S3150800A0D048B19A4A9A4B0221A52818BF13460D2063
S3150800A0E0984A9FF00DFF20460BB0BDE8F08F6B78BD
S3150800A0F0202B01D10024F6E7934B3868029358B118
S3150800A10003682A461B6C02A99847044630B1029890
S3150800A11003689B689847E6E70324F8E74FF0000AC8
S3150800A1204FF0000B894B0393029803A90368DB6879
S3150800A130984730B102210D20854A9FF0E1FEA524FB
S3150800A14010E08DF8060003980DF106010368DB6838
S3150800A1509847044630B99DF80630402B07D0802B27
S3150800A16005D00324039803689B689847CFE76A7865
S3150800A1709A42D9D1012303988DF8073003680DF167
S3150800A18007015B69984704460028EBD19DF807301C
S3150800A190082B17D8002BC7D0013B072BC4D801A220
S3150800A1A052F823F0D1A10008DBA1000829A1000874
S3150800A1B0E7A1000829A1000829A1000829A100088B
S3150800A1C005A20008102BAFD1102EADD8614B1DE0AB
S3150800A1D0741E6342634153B9A6E7731E012B8CBFF5
S3150800A1E000230123F7E7042E01D0012E9CD100237A
S3150800A1F003980493036804A95B6A9847814648B1A3
S3150800A2004C46AFE7082E8FD84FF48973F340D8072A
S3150800A2108AD5ECE7049B1BBB0023039805930368C8
S3150800A22005A99B6B984781460028E9D1059B002B19
S3150800A2307FD1002496E74FF0FF31C21C994274EB98
S3150800A240020243D39DF80620402A8AD105F10C0163
S3150800A25005F118044FEA134CA14229D109F1010965
S3150800A260049B4B457FF660AFCDE906AB039849469C
S3150800A270036806AA9B6A9847044600287FF472AFCB
S3150800A280DDE906306FF0010C5A1E40F1FF319445A6
S3150800A2906FF010028A41CED39DF80620402A7FF43B
S3150800A2A060AFD5E90212904208BF8B42D6D1B3E718
S3150800A2B051F8042F002ACFD0BCEB124FCCD198B25C
S3150800A2C00028C9D092B29042C6D8A5E713F5803FB8
S3150800A2D070F1FF32FFF445AF9DF80620802ADEE7CD
S3150800A2E000230398069303684946DB6B06AA98473A
S3150800A2F0044600287FF436AF069BD90704D5D8F85C
S3150800A30000200799914212D19A0705D5BDF8201069
S3150800A310B8F8042091420AD15B078AD57868B8F85C
S3150800A3200420036809999B689847002881D109F198
S3150800A3300109059B4B45D3D8F6E600BF8EDC0F080E
S3150800A340535B0E08275B0E08D4460220D846022027
S3150800A350445B0E08160101000023F0B58BB0CDE969
S3150800A3600433054600688DF80D308DF80E308DF8EB
S3150800A3700F3003680DF10D01DB6898470446002885
S3150800A38040F0B58028680DF10E0103681B699847EF
S3150800A3900446002840F0AB8028680DF10F010368D9
S3150800A3A05B6998470446002840F0A180286804A9FC
S3150800A3B003685B6A98470446002840F09880286836
S3150800A3C005A903689B6B98470446002840F08F80D0
S3150800A3D09DF80E30002B00F093809DF80D30402B31
S3150800A3E044D0802B40F08E809DF80F30102B3DD145
S3150800A3F0474B01210D20474A9FF082FD7EE02868E1
S3150800A4003146036806AA9B6A984700286ED19DF8CC
S3150800A4100D30402B1FD1DDE906326FF0010C591EB5
S3150800A42042F1FF378C456FF01001B94107D24FF062
S3150800A430FF3103329942904116D39BB2A3B101363C
S3150800A440049BB342DBD80027334E059BA3420FD8A3
S3150800A45001200BB0F0BD802B06D1069B079A13F599
S3150800A460803F72F1FF32E7E72C4BC2E72646E7E763
S3150800A4702868069703682146DB6B06AA98470028D2
S3150800A48034D1069BD80703F0020103F0040203D473
S3150800A490D9B972B9224BACE7002935D1079B13F518
S3150800A4A0302F4FEA1340F5D2C0B91B04F2D471B964
S3150800A4B04AB1099B03EA060212F5003FEAD89BB2A5
S3150800A4C0B3F5404FE6D20134BFE7002AE2D14FF692
S3150800A4D0FF73BDF820109942EAD1DBE740F2FE305F
S3150800A4E003F580639BB28342D4D8E0E70446012192
S3150800A4F00D200C4B0C4A00949FF002FD0020A8E7A3
S3150800A5000A4B76E70A4B74E7002AC7D0C2E700BFB2
S3150800A510795B0E08D95B0E080000FFFF5A5B0E0830
S3150800A5206A5B0E08B25B0E08C35B0E089D5B0E08DD
S3150800A5308B5B0E082DE9F0410546006886B00F468C
S3150800A5401E468DF80F2020B90324204606B0BDE824
S3150800A550F081DFF86880AB68CDF8148073B9002401
S3150800A5602868314603680DF10F02DB6B9847A0B1E6
S3150800A5700446059803689B689847E6E703689DF8CC
S3150800A5800F205C6B8DF8132031460DF1130305AAD5
S3150800A590A0470028E3D105ACE2E71CB12368434590
S3150800A5A008BF002402233946CDE90043284633462E
S3150800A5B09DF80F2085F079FC0024DAE7D8460220BA
S3150800A5C0034B1868034B002808BF1846704700BF9E
S3150800A5D0E4650120E865012010B5044602210D2036
S3150800A5E0024A9FF08DFC024B1C6010BDEB5B0E0807
S3150800A5F0E465012008B5084A08490948C7F083FAFE
S3150800A600054A08490848C7F07EFABDE80840024AE4
S3150800A61006490748C7F077BA5046022013FE0808CD
S3150800A620E865012025FE0808D846022027FE080806
S3150800A630D44602200023F7B5CDE900333AB96E4671
S3150800A64001AB15240E4A013C04D1142315E06B46D0
S3150800A65001AEF6E71578002DF7D055788D4206D16C
S3150800A66007683568AF4207D0019D01350195009D01
S3150800A670403201350095E6E71B68036003B0F0BD7C
S3150800A680003A002007B5019021B10122097801A8F6
S3150800A690FFF7D0FF019813280AD8064B820103EB6F
S3150800A6A080109B5C002B08BF002003B05DF804FBFC
S3150800A6B00020FAE7003A00200023152010B51360A1
S3150800A6C0074B013801D1002010BD1C78002CFAD0A8
S3150800A6D05C7840338C4202BF146801341460F0E79A
S3150800A6E0003A002000231A4610B50648B3F5A06FB5
S3150800A6F00A6001D1002010BD4033C45C002CF9D09B
S3150800A7000132F3E7C03900200868114B70B598424A
S3150800A7100E46154603D303F10C02904214D31B7957
S3150800A720A3B90B4C03689B6898470123002D346036
S3150800A730237108BF00234FF00000637118BF2B7800
S3150800A740A06018BFA37170BD0446EBE71920FAE7AD
S3150800A750F865012002210D20014A9FF0D1BB00BFF8
S3150800A760025C0E08022110B50D20074A9FF0C8FBAF
S3150800A7700021064C08194031B1F5A86F01D1002017
S3150800A78010BD85F036FCF5E72A5C0E08003A002075
S3150800A79038B50B4B0C46984202D30C33984201D37A
S3150800A7A0C7F05FFE85680FCD0FC40FCD0FC40FCD60
S3150800A7B00FC495E80F0084E80F00002038BD00BFDD
S3150800A7C0E04602202DE9F041114C1E460F4615239E
S3150800A7D0A046013B01D1192018E0217809B140347F
S3150800A7E0F7E721461068FFF7D3FF054668B90EB1AB
S3150800A7F0637833704FB1A4EB0804A4113C6026B10A
S3150800A800002238463178FFF715FF2846BDE8F08163
S3150800A810003A0020064B984203D303F10C029042FB
S3150800A82004D39B680248002B18BF0020704700BF5E
S3150800A830E046022010B50868FFF7ECFF80B1826891
S3150800A840084B0AB19A4206D21B784BB9054A85F0DD
S3150800A8501CFC002010BD03F14004A242F4D2F6E726
S3150800A8601920F7E7C039002038B5114B846894B928
S3150800A870104C84602278A2B142791AB1657882793F
S3150800A8809542F3D10868FFF7C5FF70B1224685F0F7
S3150800A890FCFB002008E09C423CBF403484609C429C
S3150800A8A0E8D1034B83600A2038BD1920FCE700BFB6
S3150800A8B0003F0020003A0020F0B50E4F8468064697
S3150800A8C0BC4205D307F140039C4201D20020F0BDEB
S3150800A8D03B7863B9074D0FCC0FC50FCC0FC50FCC0E
S3150800A8E00FC594E80F0085E80F00B760EEE719205A
S3150800A8F0EDE700BFC03900202DE9F0410E461146AC
S3150800A9003046FFF7BFFE0446002842D0224FBB68F8
S3150800A910984202D13846FFF7CFFFDFF88C804445CE
S3150800A92016D204F1400CC4450FD294F8403063B1F6
S3150800A93065460FCD0FC40FCD0FC40FCD0FC495E8D4
S3150800A9400F0084E80F006446E9E7204685F051FBCE
S3150800A950124CBB6804EB86169E4212D003D24345BE
S3150800A96001D2403BBB600E4A93689E4206D84345D7
S3150800A97004D2A3420CBF0023403B93600020BDE8ED
S3150800A980F0817D68286803689B689847054B2B60AB
S3150800A990E9E70A20F3E700BFE0460220003A002074
S3150800A9A0F8650120D8460220003F00208268054B42
S3150800A9B000219A4203D340339A4238BF117081600E
S3150800A9C0704700BFC039002010B5094CD4E8AF3F26
S3150800A9D0DB070BD42046A7F042FE38B1054A0649E4
S3150800A9E00648C7F090F82046A7F03EFE034810BD7B
S3150800A9F0F465012050460220D3000908DC460220EF
S3150800AA0008B5084A08490020C7F07DF80020074B1A
S3150800AA10074A18711A600749024ABDE80840C7F094
S3150800AA2072B800BF50460220D9000908F86501200F
S3150800AA3070F00F087F01090870B5104ED6E8AF4FC1
S3150800AA4014F0010418D13046A7F009FEA0B10C4D48
S3150800AA500C4A2B4607CA43F8044B83E807004FF60F
S3150800AA60FF722A824FF0FF321846C5E9052485F0A1
S3150800AA70DBFC3046A7F0F8FD014870BD04660120EE
S3150800AA8008660120D0F00F0838B5054604300C4694
S3150800AA9085F0CAFC2A6813461BB9E26001202C60BF
S3150800AAA00DE09868A16888420ED1197909B1217913
S3150800AAB031B923200121054A9FF022FA002038BD2A
S3150800AAC0D888E1888842F4D0DB68E5E7505C0E0850
S3150800AAD0094A08B5026002690AB1C7F0C2FC074A0A
S3150800AAE0011D026082688A42F7D141680029F4D0C4
S3150800AAF04A604368136008BD2CF10F08E4F00F089C
S3150800AB0010B50446024B0360FFF7E2FF204610BD6E
S3150800AB1074F10F08F7B50C46114B054619686846D7
S3150800AB200B689B689847D4E91421009B20469F1A16
S3150800AB30019B63EB010686F048F8038920469F428D
S3150800AB4076F1000309D286F040F8043003682846F7
S3150800AB502B6000236B6003B0F0BD86F036F8F5E78E
S3150800AB609C480220F0B504460F46104619460026B2
S3150800AB70231D85B0C4E90133C4E906011B4B0A9DB0
S3150800AB80267326612360276204F1280C95E80F00D6
S3150800AB908CE80F002B7C04F1480084F838306B8A67
S3150800ABA063876B69E363D5E90623C4E91023104B71
S3150800ABB004F1580519680B689B689847002200231A
S3150800ABC0C4E914230B9A01AB07CA85E8070083E892
S3150800ABD007000123204684F8646084F8686084F8D6
S3150800ABE06C60A4F87430A66705B0F0BD2CF10F08A8
S3150800ABF09C4802202DE9F04F80460E4615469A4697
S3150800AC006FF0010B6FF0100489B09BF037FA421E03
S3150800AC1041F1FF33934574EB030307468946F4D3A2
S3150800AC20183630469FF08FF9044630BB4FF0FF3296
S3150800AC304FF0FF33CDE9042304AB03900693304667
S3150800AC4003AB204A06A907939FF0E6F9039C34B99B
S3150800AC50002388F80030404609B0BDE8F08F236825
S3150800AC6020461B689847214630469FF0B3F9304680
S3150800AC709FF069F904460028EAD03A464B46002177
S3150800AC80CDE9005AFFF76EFF0F4B04F12806236043
S3150800AC9095E80F0086E80F002B7C204684F83830AC
S3150800ACA06B8A63876B69E363D5E90623C4E91023D6
S3150800ACB0012388F800302368C8F80440DB68984701
S3150800ACC0C9E700BF690B090874F10F08084B10B5EE
S3150800ACD00360183343600446083085F0EAFF0146EE
S3150800ACE020B9606900F5CF609FF017FF204610BDB8
S3150800ACF0BCF10F08A0F10400E8E700BF2DE9F04F0A
S3150800AD0006460C468FB01D469DF86430904607935C
S3150800AD10D1E90023CDE9003227200B7A2D4A0321F9
S3150800AD20189FDDF868A09DF86C909FF0E9F800225E
S3150800AD302146304686F012F8834670BB0321272049
S3150800AD40254A9FF0DDF8D6F83CC0DCF800E004960A
S3150800AD5094E80F008DE80F006046DEF80030B26B0D
S3150800AD6006F1080198478346B8B925B10B22214652
S3150800AD702B69E86898476FB194E80F0008AD85E835
S3150800AD800F000B230C93002329468DF83430F868FE
S3150800AD903B6998470FB0BDE8F08F5846079993F07E
S3150800ADA03EF8BAF1000F03D0514658460FF022FB81
S3150800ADB02DB14B462A464146584693F05AF9002F7C
S3150800ADC0E8D04B463A46414658460FB0BDE8F04FE4
S3150800ADD093F057B9815C0E08B25C0E0882B070B564
S3150800ADE086B00AA981E80C000122054685F0B6FF5F
S3150800ADF00446E8B903212720134A9FF081F8EC6B33
S3150800AE000AAB266804950FCB8DE80F0020463368F9
S3150800AE10AA6B05F108019847044688B9032127203B
S3150800AE200A4A9FF06DF806B0BDE8704002B0704758
S3150800AE300A9B0321009327200B9B054A9FF060F885
S3150800AE4020460FF001FCEEE7FD5C0E08435D0E0898
S3150800AE508A5D0E0810B504460221074A0D209FF0A8
S3150800AE604FF8FFF7ADFB04F1140184F0F9FF204613
S3150800AE70BDE8104094F082BDE45D0E0800B5084BAD
S3150800AE8089B00493042305930023039204490422FA
S3150800AE90009303A894F02EFD09B05DF804FB00BFEB
S3150800AEA050F20F0838B50C46054602210D20084A0F
S3150800AEB09FF026F82146284694F072FD044628B9E4
S3150800AEC0FFF77EFB05F1140184F0BCFF204638BD70
S3150800AED0035E0E0800B50D4B8DB0CDE90631ADF811
S3150800AEE0202000231F22CDE90923012391F83C20C5
S3150800AEF08DF82C308DF82D200093024606AB08A954
S3150800AF0002A80CF0BBFE0DB05DF804FB44F20F0876
S3150800AF102DE9F041D0F80C80B2B00546DDE9387667
S3150800AF200C46B8F1000F35D0A1B34022002168467F
S3150800AF30C7F00BFD2378012E8DF83C3002D18DF831
S3150800AF40146001E0022EFAD06378402B25D1D4E9AB
S3150800AF500223CDE9002301238DF80830002F4BD0BA
S3150800AF6000213C2222A8ADF844108DF850108DF827
S3150800AF705C108DF860108DF862101097C7F0E5FC2C
S3150800AF8010A894F006FF034680B101210D201C4A43
S3150800AF909EF0B6FF32B0BDE8F081202B01BFA36852
S3150800AFA0ADF8103001238DF81230D7E7BDF84430DC
S3150800AFB012AAADF8183007AB07CA83E807000AAB30
S3150800AFC015AA07CA83E807009DF860308DF8343063
S3150800AFD01BB19DF861308DF835309DF8623000223E
S3150800AFE08DF8363001238DF83830EB68DB68694612
S3150800AFF01868FFF76FFFCDE73A46D8F80C30F6E742
S3150800B000265E0E082DE9F04F15460026BBB01C46F5
S3150800B01007460596FFF7D4FA2B69042B08D8042BA4
S3150800B02010D8DFE813F013000F00FF002B013201E0
S3150800B0304FF6FC72934200F02D814FF6FD72934253
S3150800B04000F02A8140F286533B6077E00021954B59
S3150800B0503C220693944B0DF11C0A2AA80793ADF8D7
S3150800B06064108DF870108DF87C108DF880108DF8AE
S3150800B0708210CDF860A0C7F068FC0123204684F84A
S3150800B080443085F04EFC804600284ED10DA80C941D
S3150800B0909DF06BFC854885F0CBFED0B1844EB6F8A2
S3150800B0A0643906F50B6603F00503052B18BF002661
S3150800B0B00523DFF800B20B935846CDE908B685F0AC
S3150800B0C0B7FE40B90A9008A885F0C2FEDDF82890B8
S3150800B0D003E04646ECE74FF00009B9F1050F18D032
S3150800B0E0902505FB09B556B1304685F0A1FE30B16D
S3150800B0F096F8812095F881309A4208BF354695F82A
S3150800B1008150FFF75DFA00688DF81050E0B9032307
S3150800B1109846204685F04AFCB8F1000F05D14FF64F
S3150800B120FF7384F84C80A4F84A30504685F078FEC0
S3150800B130069803689B689847C7F800800023384636
S3150800B1403B713BB0BDE8F08F036804AA1B6C06A9E7
S3150800B15098470346002BDBD1069851460368DB68FF
S3150800B1609847034620B10A28D2D1CDF82890AAE7F5
S3150800B170189A8DF8103010680393026804A91269AA
S3150800B18090479DF81020002A4AD00C9D95F8452036
S3150800B19072B1039B04A98DF81030189B18680368D0
S3150800B1A01B6998470C9D9DF810302A7A9A42D3D18C
S3150800B1B02B7A28460DA9039385F01FFC0028CBD0CF
S3150800B1C095F8463029688BB1039B096C4FF4807259
S3150800B1D0009318A8002394F0C4FE0346194628468F
S3150800B1E00DAA039385F022FC039BB3E72B6C05F1AC
S3150800B1F0280204A885F04FFB03460028EED12B68E9
S3150800B2000222196C039B18A80093002394F0A9FE48
S3150800B21003460028E2D1296804A885F074FBDCE718
S3150800B220712375E70068002839D003689B6905A96A
S3150800B2309847034600287FF407AF0123216884F85E
S3150800B240443004F12802236C18A8059D85F023FBD9
S3150800B250034600287FF4F8AE2268106CCDE9005347
S3150800B260022200239DF05BFC034600287FF4ECAE27
S3150800B270216818A885F047FB0346E5E6006800281C
S3150800B2803FF4E2AE0368DB69D1E705A9006885F0FB
S3150800B290BDFDCEE70596D0E702230593CDE7032348
S3150800B2A0D2E600BFD4460220D846022030A00020AD
S3150800B2B080970020609D00202DE9F04190F93430F8
S3150800B2C006460133A6B003D1002026B0BDE8F081BA
S3150800B2D00368002BF8D100F1080840469DF02CFAC7
S3150800B2E0074630600028EFD1204C0146942201A879
S3150800B2F00094C7F02AFBB06C04AD03689B689847B6
S3150800B3000FCDB46406F15804A6F850700FC40FCDDB
S3150800B3100FC40FCD0FC495E80F0014AD84E80F00D5
S3150800B3200FCD06F198040FC40FCD0FC40FCD0FC46F
S3150800B33095E80F0084E80F00684686F8D87086F806
S3150800B340DA7085F06DFD414606F1480094F012FD6D
S3150800B35030600028B8D196F840302BB1B06C96F81A
S3150800B36041100368DB6998470120AEE7D8460220FA
S3150800B3702DE9F04104460E460027154600F1080857
S3150800B38040469CF036FE3146404627609CF046FE15
S3150800B39084F840702B7884F8403013B16B7884F8C1
S3150800B3A04130084B2046A3640023A4F8503084F8A3
S3150800B3B0903084F8D03084F8D83084F8DA30BDE894
S3150800B3C0F08100BFD84602202DE9F047CEB080466E
S3150800B3D00D460E7AFFF7F4F80068002861D0036876
S3150800B3E003AF3A4631465B6A984700285AD1FFF7B9
S3150800B3F0E7F80DF110094946006885F007FD04468F
S3150800B400002850D198F80E30012B00F2C8800DF1B3
S3150800B410180840469CF0EDFD2246214640469CF021
S3150800B4202BFE01232B712B7A88F83840002B40D04D
S3150800B4302C6820469CF005FF162838D1204616A908
S3150800B4409CF0EDFF70BB2346424604F1300E94464D
S3150800B450186859680833ACE8030073456246F6D1A4
S3150800B4601B7820468CF800309DF958109DF030F96D
S3150800B470C0B901222B7A88F8382088F8393098F92B
S3150800B4802C3005AC013317D0214640469DF0BCF957
S3150800B49040B92268D9F800309A420ED940F2895448
S3150800B4A001E00320044620464EB0BDE8F0878E2012
S3150800B4B0F8E740F27E50F5E7206098F8383002AC9D
S3150800B4C0237013B198F8393063702246414616A89E
S3150800B4D0FFF74EFF0DF1A00916A8FFF7EDFE70B9AC
S3150800B4E0DDF858A0BAF1210F08BF4FF0000A484608
S3150800B4F085F096FCBAF1000F09D05446D3E74846C2
