:020000040800F2
:1060000008120020BDE60308790B0B08AD8F0008CD
:10601000795C0C08D58F0008E98F0008FD8F000817
:10602000790B0B08790B0B08790B0B0881EA0D082B
:1060300011900008D035100825EA0D0809280E082F
:1060400035E30308790B0B08790B0B08790B0B0868
:10605000790B0B08790B0B08790B0B08790B0B08E4
:10606000790B0B08790B0B08790B0B08C19300080F
:10607000790B0B08790B0B08790B0B08790B0B08C4
:10608000790B0B08790B0B08790B0B08790B0B08B4
:10609000790B0B0871300608790B0B08790B0B088C
:1060A000790B0B085D2D06083D2D0608790B0B08B2
:1060B000790B0B08E9C90808BDD2080877E00D087C
:1060C00073E00D0831CA08088DE00D087BE00D086B
:1060D0008DD208087FE00D08FDD2080865D30808B6
:1060E000790B0B08790B0B0809910008790B0B0849
:1060F0000F520C08790B0B08790B0B08790B0B0866
:10610000790B0B08790B0B08790B0B08790B0B0833
:10611000790B0B08790B0B08790B0B08790B0B0823
:10612000790B0B08790B0B08790B0B08790B0B0813
:10613000790B0B08790B0B08790B0B08790B0B0803
:10614000790B0B0871040708790B0B08DD370E0873
:10615000E9B30808790B0B0857E00D085DE00D085E
:10616000790B0B08790B0B08790B0B08790B0B08D3
:10618000F0B5114A114C124E00F00105E3695F07AA
:1061900013D40DB9334213D103EA00078F4207D15C
:1061A0000B4A1A40002A14BF6FF001000020F0BD16
:1061B000013AEBD16FF00200F9E74FF0FF30F6E75C
:1061C0006FF00100F3E700BF8096980000000350D5
:1061D0000200010070B50B4BD96911F480310DD16B
:1061E00001244FF48072084E084DF46020462C6460
:1061F0001A61FFF7C5FF3464EC6070BD6FF00100F9
:10620000FBE700BF000003500010035000200350C4
:106210004FF4803238B50E4B0E4C9A66E56941F664
:10622000713315400122E3630B4B0021DA60022336
:10623000606121202361FFF7A3FF10B92120FFF740
:106240009FFF0122054BDA600DB10023E36338BDE7
:106250000090005000000350001003500020035035
:1062600070B5134C6061E3695B071ED40E4656F8A7
:10627000043B8D18A361AE420BD1042300212120E1
:106280002361FFF77DFF58B9BDE870402120FFF77B
:1062900077BF08210846FFF773FF10B1042323617D
:1062A00070BD56F8043BA361E5E74FF0FF30F7E718
:1062B000000003502DE9F84316464FF48032184B86
:1062C00089469A6603F51C33DA69074602F480387A
:1062D00041F67132DA63012203F58053114DDA6021
:1062E00066B930460122104BDA60B8F1000F03D0D6
:1062F0000022A3F50053DA63BDE8F88307F50054E4
:106300002C40E41BB44228BF344649462246384656
:10631000FFF7A6FF0028E5D12744A144361BDFE79D
:106320000090005000E0FFFF00200350000000003C
:10633000000000000000000000000000000000005D
:10634000013800D0FCE770472DE9F04F2DED028BAE
:106350001C4613690546052BD7B00BD8013B01221B
:106360000026042B23D8DFE813F041001C01230191
:10637000320145014FF6FC72934212D04FF6FD7286
:1063800093424FF0010340F0378102200021CDE914
:10639000400184F84430204640A98AF04FFA286032
:1063A000D7E000230022CDE940230123F1E7CB69A8
:1063B000204684F844202E9389F09BFD0028EED1DE
:1063C00041A84094A1F0B9FD40A92EA88EF0DAFBB7
:1063D0000646204689F0D2FD3046002EDFD14FF62A
:1063E000FF7384F84C60A4F84A30D8E7D1F81CA0B9
:1063F000204684F8442089F07CFD0746002840F0C0
:10640000A78015A81494A1F098FD51460CA88CF013
:106410007AFF0523B8469FED7A8B0DF14009C9E953
:1064200000A7C9E9023349460CA88EF036FB0028C4
:1064300000F084800CA88EF016FB8DED248B8DED82
:10644000268B90F88160CDE92888CDE92088ADF8C9
:1064500088808DF8A8808DF8B460D0E90023CDE95C
:106460002623B0F8823000F1600BADF88830D0E917
:10647000022320215846CDE92423CBF062FA624B57
:106480003146CDE928B02EAA50462E939CF013FA3F
:106490000146002851D12FAB20934123219340ABDB
:1064A000049355230DF1100B31465A46504605937F
:1064B0009CF08DFB014600283FD1059BB3B19BE8C2
:1064C0000300012607AB0DF1280B83E803001946F2
:1064D00058468DF818608DF824608EF049FB9BE8D3
:1064E00003002BAB83E803008DF8A8609DF8B4305F
:1064F000002B50D0149E96F8452096F808B00AB1AB
:106500005B454AD1304615A989F05FFD002844D08B
:1065100096F84630316823B3096C4FF4807200233B
:10652000CDF800B020A8C9F0FDFC0146304615AA00
:10653000039189F063FD039979B30F46204689F0F2
:106540001DFD2FB94FF6FF7384F84C70A4F84A3044
:106550002F6000232B71284657B0BDEC028BBDE89D
:10656000F08F336C06F1280209A889F07CFC014603
:106570000028DBD133680222196C20A80023CDF853
:1065800000B0C9F0CFFC01460028CFD1316809A87E
:1065900089F0A1FCC9E77121CFE70CA88EF050FA71
:1065A00041E70520002184F84420CDE94001F2E6CE
:1065B000CB6993F88233CDE940360123204684F835
:1065C000443040A98AF03AF92E712860C3E7CB69BC
:1065D000204684F844202E9389F08BFC00287FF419
:1065E000DEAE41A84094A1F0A8FC40A92EA88EF0F0
:1065F000CAFBEDE6237ADEE78622C0E90023AAE79C
:106600000000000000000000A023100800000000AF
:106610002DE9F04F2DED028B4FF0000A4FF0000BEB
:106620001F464FF6FF740023CDB0CDE930ABCDE966
:1066300032ABCDE936ABDFF89CA205460E4690465C
:10664000CDE90E338DF8D0303593CDF8E0A04A94E3
:1066500072B1044600F534794C4501D10B240CE0AD
:10666000204689F0CDFE002800F01B819034F3E72E
:106670009CF0B1F8814630B9AC2420464DB0BDEC59
:10668000028BBDE8F08F05F53474204688F07EFA61
:10669000B9F882308DF8D060ADF8283199ED028BD1
:1066A00009F1600920214846CBF04BF9CDE90E9065
:1066B000834B0DF12C0910930023CDF878A04846A8
:1066C0001193C9F800300D930C938FF07EFC4FF4BA
:1066D000C87028F097F90DF1300AC9F8000050B9D8
:1066E0000B240DA88FF071FC0CA88FF06EFC0BA88A
:1066F0008FF06BFCC1E7099050468FF066FC4FF4B9
:10670000C87028F07FF98346CAF800000028E7D057
:106710000DA88FF05AFC4FF4C87028F073F90D9053
:106720000028DDD0099B314612934FF4C87312AA9A
:10673000CDE915302846CDE9133B17939CF0ABF813
:1067400008B10446CDE73146284614AA9CF085F8E6
:106750000028F6D13146284616AA9CF05BF800289E
:10676000EFD112A918A88EF003FA14A91AA88EF076
:10677000FFF916A91CA88EF0FBF938AB079332ABD2
:10678000059336AB049330AB0DF1780B039310AB4C
:106790008DED008BCDF818B002931CAA1AA918A889
:1067A0001DF0F2FD0028CCD10DA88FF00EFC504654
:1067B0008FF00BFC48468FF008FC9FB9D5F86403B6
:1067C000002862D003689B6898470246D5F86403A6
:1067D0000368002A52D05A4631465B69984780B117
:1067E00004464AE73B6838465B69984759469CF03F
:1067F0001DFB08B9C52440E79DF8603135978DF839
:106800002A319DF868312046B3FA83F330A95B0939
:106810008DF82B319CF0B1FA0028E1D120460EA969
:106820009BF086FF94F88130B8F1000F2FD0022141
:106830001120244AA2F04CFED4E900122369CDE9CC
:10684000012100930221112063691F4AA2F040FE3A
:10685000119905F55D7021F089FD034620B10121F4
:1068600011201A4AA2F034FEB8F1000F04D095F8B6
:106870008233013385F882330024FEE63146DB683B
:1068800098470028BDD11024F7E60324F5E6D4E9A3
:1068900000121120CDE9002102210D4AA2F018FEBC
:1068A000D6E7BDF864319FED048BADF828318DF843
:1068B000D060FDE6AFF300800000000000000000A3
:1068C000081210085BB90E087BB90E08F3B90E0860
:1068D000BEB90E08A02310082DE9F0478AB00DF1CB
:1068E0000D0301931523064600934FF48072002395
:1068F00008460C46A1F099FCE8B996F896300122BA
:10690000009320460023A1F017FCA0B996F8973019
:106910000222009320460023A1F00EFC58B90DF18D
:106920000E03019316230322009320460023A1F0B7
:106930007CFC054610B10AB0BDE8F0874FF01009A5
:1069400006F1C8070DF11808102200214046CAF0D0
:10695000BEFF0DF10F03019315234FF480720093D6
:1069600020460023A1F061FC0028E4D196F897208E
:10697000EBB29A4251D917ED0C7BC44637F828ACDC
:10698000A7F12603A7F1160E624618685968083366
:1069900003C273459446F7D18DED007B042200239A
:1069A0002046A1F0A4FB0028C5D1052200232046E3
:1069B000CDF800A0A1F0C0FB0028BCD1404649465C
:1069C00006228DE8030000232046CDE90489A1F0CA
:1069D000FFFC0028AFD120469DF90F10A1F05AFC12
:1069E000013530370028A6D1032DADD120469DF9C1
:1069F0000E10A1F04FFC00289DD1B6F88E30072272
:106A0000009320460023A1F097FB002893D1204655
:106A10009DF90D10A1F03EFC8DE782469FED027BB3
:106A2000BAE700BFAFF300800000000000000000E4
:106A3000A0F1840050E700BF2DE9F04F2DED028B4F
:106A400006460C469FED508B4569DFF8488199B0AA
:106A500006F110039D4207D1304619B0BDEC028B00
:106A6000BDE8F04F23F060B9D5E91102D4E928134D
:106A70009A4208BF88426F68019565D1D5E9130233
:106A8000D4E92A139A4208BF88425DD14FF0000929
:106A90000DF1300A002110225046CAF018FF14A848
:106AA000CDF844908DED128BCDF84080A3F060FBC3
:106AB000ADF85C908DF85E90A146B4F8583009A806
:106AC000ADF8423059F8883B1193A3F051FB99E897
:106AD000030007AB83E8030094F88C30B3B384461B
:106AE000D4E9240105AB83E8030094F8943083B320
:106AF0000246D4F89830CDE914C2049313F47F0F02
:106B0000CDE9023314BFBDF81030BDF82C30ADF81C
:106B1000583094F883308DF85D3094F884308DF8D7
:106B20005C3094F886301BB194F885308DF85E3077
:106B30004FF0000B043D04F1080963685B450AD877
:106B4000304601A923F0AEF83D4681E7DDF824C0C8
:106B5000C6E70A9ACDE7484622F0CAFD48B90121A6
:106B600022200B4AA2F0B4FC0BF1010B09F1100931
:106B7000E3E799E80F008AE80F005146284623F022
:106B80005FF8F1E7AFF300800000000000000000B4
:106B9000C3C10E080100A415054B18680368D96924
:106BA00001A3D3E90023084700E0373B015D030060
:106BB000BC2A02200000000073B5AAF091FD044633
:106BC00000286ED13A4B01AE1A889B78ADF80420AC
:106BD000B37038F019FE39F095FB39F0F3FA054639
:106BE000344B036039F08EFD284639F097FC00B92C
:106BF000FEE72DA3D3E900234FF0FF314FF0FF3024
:106C000038F00AFE39F0E2FA214639F03BFBAAF0EF
:106C10006AFD304639F044FC044600B1FEE7264BDD
:106C2000264A98801860264B98801A60254B264A81
:106C300018631A60254A98806FF06300DA603AF0B2
:106C4000BFFC0B2039F010FB39F06EFB39F0B4FAC1
:106C500000B9FEE761F028FC2046AAF0F4FE082106
:106C60000846AAF0F7FE00B1FEE7AAF0EAFE39F006
:106C7000F9F9AAF034FE10211548BFF06BF800B9FD
:106C8000FEE714491248BFF077F800B9FEE710217B
:106C90008C20114A61F034F800B1FEE70F4840F053
:106CA000B9FB02B070BD00BF0AE020FFF203000094
:106CB0006C39100877180B0898ED00206F0202203D
:106CC00060ED002028ED0020EF01022018ED0020EB
:106CD0001895012009340E0808950120A9A90E086D
:106CE0002DE9F04389B0AAF0ECFC00B9FEE75E4D57
:106CF0002B6803B9FEE701229B8811460DF10B00BA
:106D00008DF80B3039F072FB9DF80B102B680239AF
:106D10000022186889B239F069FB002305930793B4
:106D2000524B05AE06932B6893F834208DF814204F
:106D30001B681C7814F0200414D0AAF086FE0028EA
:106D40005ED0AAF082FE6CF0ABFD0B46024642A17B
:106D5000D1E900016CF048FF6DF0B6F8079B1844CC
:106D60000124079039F086FB9DF80B30063300288C
:106D700049D0D8006CF0A4FD39A3D3E900236CF00E
:106D800009FE8946804639F075FB6CF089FD0B469B
:106D90000246494640466CF027FF6DF095F8079B88
:106DA00018440790AAF094FC38B139F0C9FA0020D1
:106DB000AAF08AFC0020AAF08EFC2A6853696BBBFB
:106DC000AAF0A2FCD5F800C008B3079B284F03F532
:106DD000FA7307939CF81830BB7039F0ABFAF8706F
:106DE000286833463A462146807939F0E1FA68B39B
:106DF0004FF480510020DCF01EFBAAF053FF25E089
:106E00000798C030ACE7079800EB4310C9E732465B
:106E100021469CF8060039F0C1FAE8E796211548AA
:106E2000818011690B441449A3F59B730B60002109
:106E3000CDE90331214690790E4B009603AA39F033
:106E4000C5FA0028D4D10120AAF069FC09B0BDE838
:106E5000F08300BFAFF300800000000060E36641F4
:106E60000000000080842E410495012020A107002D
:106E70006C2B0220602B02200095012000000000F6
:106E80002DE9F3411E461C4B044683424FF000039C
:106E90008B4115460AD216A3D3E900236DF084F87E
:106EA0001649144602462846AEF01FFE144B4EF615
:106EB0006021B4FBF3F203FB1244B4FBF1F34FF493
:106EC0007A7801FB1344B4FBF8F728460D49009784
:106ED000AEF00BFE46B1284608FB17420A4902B045
:106EE000BDE8F041AEF001BE02B0BDE8F08100BFE8
:106EF000005C260500000000FF5B2605A65F0F086A
:106F000080EE3600D7BA0E08AC5F0F080348044B7A
:106F1000834202D0034B03B1184770472435022047
:106F20002435022000000000064B0749C91A8910C9
:106F300048BF0131491003D0044B0BB10148184739
:106F4000704700BF243502202435022000000000D5
:106F500010B5064C237843B9FFF7D8FF044B13B1A3
:106F60000448AFF300800123237010BD0CC401203E
:106F700000000000ACC1100808B5054B1BB1054965
:106F80000548AFF30080BDE80840FFF7CDBF00BF64
:106F900000000000D8370120ACC11008A3F5803AEA
:106FA000704700BF174B002B08BF134B9D46FFF7E0
:106FB000F5FF00218B460F461348144A121ACAF0F7
:106FC00086FC0E4B002B00D098470D4B002B00D0B9
:106FD00098470020002104000D000D48002802D031
:106FE0000C48CAF007FA6EF09DF920002900BEF0A7
:106FF00061FE02F093F800BF0000080000000000EE
:107000000000000008120020081200206026022064
:10701000F5130D080000000002211D20014AA2F016
:1070200057BA00BF683B0E0802211D20014AA2F09A
:107030004FBA00BF783B0E0808B5044A02211D2054
:10704000A2F046FAFF22024B1A7008BD873B0E08D9
:10705000FC33022070B5294D037C04462B70437C21
:1070600023B103212120264AA2F032FA2B78FE2BED
:1070700022D0FF2B30D00B2B37D80B2B35D8DFE8A5
:1070800003F0061206343434343434343412A3F0AA
:10709000B4F8036841F288315D692346194AAC4669
:1070A000BDE870406047A3F0A8F8036842F2107191
:1070B0005D69144A2346F2E7A3F09FF8036822466D
:1070C0005B6A10499847A3F098F803684FF47A7107
:1070D0005D690C4A2346E2E7A3F08FF80368224675
:1070E000BDE870405B6A07491847FF232B700221F7
:1070F000BDE870401D20044AA2F0EAB9FC3302202A
:10710000A13B0E0839700008D43B0E0808B5A4F066
:107110006BFC27F00FFF27F03FFF09482BF06EFABA
:1071200000224FF46171074898F029FB30B1BDE8A7
:10713000084001212120044AA2F0CAB908BD00BFBD
:10714000A0B00020C8A30020E93B0E0810B5002223
:107150000C4613481349A4F0EFFC18210A20124AE8
:10716000DBF0D0FE114B186040B921200121104AFC
:10717000A2F0AEF940F2017087F096FB20460D4A6E
:107180000A49DBF092FB40B9212001210A4AA2F012
:107190009FF940F2027087F087FB002010BD00BF0E
:1071A000D0BF002041760008CCD10F08103A012052
:1071B000173C0E08A8D10F083A3C0E08F7B53E4818
:1071C000A2F03AFA01463C4CA368994201D3012B44
:1071D00012D9012910D0D4E9033202FB01331B7A02
:1071E0002BB1FA221146354887F01FFA14E02046E9
:1071F000A2F047FA0146E7E7314B1B780B2B09D881
:107200000B2B09D8DFE803F00B0E1108080808085B
:1072100008080816FF2B34D0012003B0F0BD32223D
:107220003221E0E74FF47A72DCE74FF42F724FF42B
:107230009671D8E7234C2378FBB94FF42F754FF4A0
:107240009676214B684619680B681B699847DDE9FB
:1072500000721E49D1E9003013F57A7340F1000045
:107260009F4272EB0000D7D32378C1E9007283F00C
:107270000103324629462370B5E7322540F2B6367F
:10728000DFE7134B1B7873B1124B1B785BB1124BCA
:107290001B7823B10121094800F0E2FDBCE732224E
:1072A00040F2B6319FE70D4B1B780BB1642299E792
:1072B00040F2B632B4E700BF0438012010120020BB
:1072C000FC3302200DC40120BC2A02200812002039
:1072D0000FC4012002D5012001D5012000D50120D5
:1072E00008B5084B18700848A4F055F9074B1870FA
:1072F0000548A4F0A9F9064B1870BDE80840FFF74F
:107300005DBF00BF0FC40120A0B0002002D5012046
:1073100001D5012008B51448A4F04DFCA0B11348D4
:10732000A4F039F9124B18701048A4F08DF9114BE4
:107330001870114829F0DCFC003818BF01200F4BF1
:1073400018700948A4F040FC0D4B1B780BB9FFF7EF
:1073500035FF0C4800F05EFD0B4B186818B1BDE816
:10736000084000F057BD08BDD0BF0020A0B00020ED
:1073700002D5012001D50120205A012000D501208D
:107380000EC40120101200200038012008B5094B5E
:107390001868DBF021FC01300AD121200121064AC6
:1073A000A2F096F8BDE8084040F2067087F07CBA7B
:1073B00008BD00BF183A0120543C0E08014608B52C
:1073C0004FF47A7200238002890D6CF0EDFD094BB9
:1073D00001461868DBF0E4FB50B121200121064A88
:1073E000A2F076F8BDE8084040F2057087F05CBA7C
:1073F00008BD00BF183A01206C3C0E0808B50221F8
:1074000040F6B8330A4A2120A2F062F840F6B830BC
:10741000FFF7D4FF0122074B002107481A7000F044
:107420001FFDBDE808404FF4FA71034887F001B929
:10743000853C0E080EC401201012002008B5FFF78D
:10744000A5FF064B1A7842B100221A700221BDE84E
:1074500008402120024AA2F03BB808BD0EC401201A
:10746000C43C0E0808B5094B0A211868DBF098FBEC
:1074700050B121200121064AA2F02AF8BDE80840B7
:1074800040F2057087F010BA08BD00BF143A012021
:10749000E53C0E0810B5044686B00948A2F03BF85A
:1074A00060B10023CDE903330293064B21460193DB
:1074B0000223054A0093054B07F0F0FA06B010BD11
:1074C0000438012055700008197000082970000860
:1074D000004870476838012030B5174B8BB001AABF
:1074E00003F12005144618685968083303C4AB42F9
:1074F0002246F7D1186820601048A4F057FB1048C6
:10750000A4F049F804460E48A4F09EF804400D4843
:107510008DF8054098F083F80B4B8DF8260093F812
:10752000623906488DF80430A4F04EFB074801A9E3
:1075300087F025F80BB030BDE4D10F08D0BF002094
:10754000A0B00020C8A30020809700206838012048
:1075500008B5FFF7C1FFBDE80840014887F04FB804
:107560006838012010B50388012B11D10479012C52
:1075700007D1FFF7B1FF2146BDE81040054887F06D
:1075800029B8032CF7D1BDE810400348FFF7E0BF4E
:1075900010BD00BF6838012018AE012008B5094BA6
:1075A0000146186858B100231822DBF0EAFC40B10C
:1075B000054A0121BDE808402120A1F089BF034A06
:1075C000F7E708BD103A0120FD3C0E082A3D0E08E1
:1075D0007FB50223ADF80030044B0190684602935A
:1075E000FFF7DCFF07B05DF804FB00BF1977000868
:1075F0007FB50123ADF80030044B8DF804006846D8
:107600000293FFF7CBFF07B05DF804FB6575000838
:1076100013B5094B1B786BB100240DF107010473FE
:10762000064886F0A8FF9DF80730022B02D12046BD
:10763000FFF7DEFF02B010BD0FC401206838012043
:1076400048F2040213B50388044693421ED007D8BB
:1076500003F5FF437F339BB2012B1BD902B010BD52
:1076600048F212029342F9D102211B4A2120A1F0D3
:107670002FFFA2F0C2FD036840F6B8315C69002319
:10768000A446164A02B0BDE810406047027A144B87
:107690001A70E3E713480DF1070186F06CFF9DF8BF
:1076A0000700012801D1FFF7A3FF94F90830012B4F
:1076B00003D094F90930012BD0D102210A4A2120AC
:1076C000A1F006FFA2F099FD036840F6B8315C69AD
:1076D000024A0023A047C1E7733D0E08C5E408082D
:1076E0000FC40120683801204B3D0E088B68084606
:1076F00003B1184702212120014AA1F0E9BE00BFD1
:10770000AF3D0E080022024902482BF061BE00BFC7
:10771000BD790008D0BF00200388022B06D1044B9E
:107720001B780BB9FFF76ABEFFF7ECBF704700BFCD
:107730000EC401200022024902482BF049BE00BFBE
:107740000D710008D0BF002030B5A5B003AB019388
:10775000812301AC054602936EF066F921466EF076
:107760006FFE78B945B1DDE90112094886F011FFD5
:107770000121074886F04EFF94E8030032F04CFBED
:1077800025B030BD01212120024AA1F0A1FEF7E77A
:1077900068380120DF3D0E0810B500220446264956
:1077A000264800F0BFF90023224619462448D6F0A7
:1077B000B1FF244B186040B921200121224AA1F0D9
:1077C00087FE40F2047087F06FF800232246012103
:1077D0001E48D6F09FFF1E4B186040B921200121A2
:1077E0001C4AA1F075FE40F2047087F05DF802219A
:1077F0002120194B194AA1F06BFE194A02210123DD
:107800002120A1F065FE2CF0DDF90368DB6F9847BD
:107810000120FFF799FF00F0E9FA0021114886F0F6
:107820000CFF1148A3F002FF104B114918701148CA
:107830009BF072F810BD00BFB6400E0868380120FA
:10784000D1750008183A0120F73D0E0801E5080837
:10785000143A0120113E0E08F2280F082B3E0E08A4
:107860004F3E0E0810120020A0B000200FC40120CF
:10787000F4370120609D002038B50546FFF78CFFE6
:10788000044638B10C482BF035FA204687F00CF846
:10789000204638BD2B682846DB689847044608B167
:1078A0000648F0E7064B1A6852F8580C1A58184464
:1078B000926B9047ECE700BF6C3E0E087E3E0E08D0
:1078C000785A012010B50379012B05D1BDE810408D
:1078D00040F6B830FFF772BD144B1B781BB1BDE802
:1078E0001040FFF7ABBDFFF751FD114B1C78D4B929
:1078F0001048A4F05BF922464FF461710E4897F0EE
:107900003EFF04460B48A4F05FF924B101210B4A65
:107910002120A1F0DDFD0020FFF716FFBDE810409B
:107920000320FFF765BE0221054AF1E70EC40120DE
:107930000FC40120D0BF0020C8A30020E93B0E08DF
:107940008F3E0E0837B50024144D2146202205F144
:10795000D000C5E93244C9F0BAFF4823104AA5F85F
:10796000F040111D85F8F240A1F11C0000930123A5
:10797000A1F0BBFD0B4A0C490C48C9F086F80C4A33
:107980000C4BC2E902441360303353600A49054A84
:10799000074803B0BDE83040C9F077B86838012027
:1079A0001C38012070280220DDE40808043801207A
:1079B000F037012060D10F08ABE4080810B50121B1
:1079C00009482BF0E7FA20B16EF02EF80121CAF039
:1079D000ECF806482BF056FC2CF0F4F8BDE810400B
:1079E00003689B6F184700BF785A0120D0BF002062
:1079F0000346074A30B500F128051446186859684F
:107A0000083303C4AB422246F7D11868206030BD6A
:107A10001C3A012030B5134D85B02B6804461988F7
:107A2000114B803901932D2301EBD171002200937A
:107A3000491080232846A9F03CF92046C9F0FFFFF1
:107A4000142809D8002201230092CDE90123214600
:107A500005222846A9F036FA05B0BDE8304086F088
:107A600060BD00BF1C3A012053D60F0837B505464C
:107A70000B480C4C036819885A880B4B4039002D71
:107A800018BF23460193402301EBD1710093453A7F
:107A90004910A9F00EF903B0BDE8304086F041BDB1
:107AA0001C3A01202CD40F082CD20F0813B5134C0C
:107AB000236820465A88124B453A0193112302EB62
:107AC000D271009302EB610212236821A9F0F1F850
:107AD000236820465A880B4B453A0193122302EB48
:107AE000D271009302EB610210230821A9F0E1F8A2
:107AF00002B0BDE8104086F014BD00BF1C3A012062
:107B00002CD60F0808D20F0810B504460448A9F077
:107B10004BF82046FFF77EFFBDE81040FFF7C6BFD9
:107B20001C3A01202DE9F041054617460C4681B16B
:107B30000846C9F084FF142806D921482BF0DAF84A
:107B40002F242046BDE8F081214605F1B000C9F0A0
:107B500053FF36F027FA044620B1014619482BF0AE
:107B6000C9F8AC24002037F011F8064628B10146C8
:107B700015482BF0BFF846F0A06405F18408404694
:107B800037F06CF8064628B1014610482BF0B2F8E1
:107B900046F0A0646FF07F4200234046C5E92223EF
:107BA000A9F002F8064628B1014609482BF0A2F8D0
:107BB00046F0A0644046FFF71BFF85F8CC70C0E795
:107BC000CD3E0E08DF3E0E08FC3E0E080F3F0E08AD
:107BD0002B3F0E08F0B5074600F184058BB0284610
:107BE000A8F0E2FF97F8CE204C4905A86CF020FFE2
:107BF000002301220093CDE9013205A91A4607F1BD
:107C0000D0042846A9F05EF92046C9F018FF1328D1
:107C1000234605AA07F1E00674D914461868596886
:107C2000083303C4B3422246F7D119889B782180D8
:107C3000A37000238DF82730002401262346324606
:107C400037492846CDE901460094A9F03BF9402385
:107C50003246009305A923462846CDE90146A9F0FE
:107C600031F9234602222F492846CDE901460094E6
:107C7000A9F028F9032223462B492846CDE90146DD
:107C80000094A9F01FF997F8CF302849A3420CBF00
:107C90004E22592205A86CF0CBFE0422234605A9EA
:107CA0002846CDE901460094A9F00CF997F8F03088
:107CB0001F49A3420CBF4E22592205A86CF0B8FE02
:107CC000234605222846CDE90146009405A9A9F0DE
:107CD000F9F897F8F1308BB11649174A05A8B34265
:107CE00018BF0A4615496CF0A3FE23460622284613
:107CF000CDE90146009405A9A9F0E4F886F011FC4D
:107D00000BB0F0BD144618685968083303C4B34279
:107D10002246F7D1186820608EE700BF483F0E0862
:107D2000573F0E08603F0E08CEBB0F086E3F0E088F
:107D30007D3F0E08443F0E08403F0E088E3F0E0860
:107D40004FF0FF3301222DE9F04F85B0CDE902322B
:107D50000423234ACDE90033224900238046A8F0BA
:107D6000BCFB28B9204805B0BDE8F04F2AF0C2BFDF
:107D70001B4834F0E1FD064608F18400A8F014FF2A
:107D800000254FF0030A06EB4604C4F1800404EB1F
:107D9000D4746410AE4204DC05B0BDE8F04F86F048
:107DA000C0BB002705EB450959FA84F95FFA84FB4B
:107DB0005FFA89F92A463946094835F023FB50B164
:107DC00007EB4701594403234A464046CDF800A03B
:107DD000C9B286F0E3FB0137BE42EBD10135D9E7EA
:107DE0008DD5012003D50120973F0E080148A3F04F
:107DF0008FBE00BF785A012010B5044601780448B0
:107E00002BF004F9A37883F00103A37010BD00BF29
:107E1000785A012073B503690446E3B14369D3B1CD
:107E20000E4B684619680B681B699847D4E9042310
:107E3000DDE90065A178002918BF1346D4E90212D4
:107E40005B1842F10002B342AA4104D22046FFF778
:107E5000D3FFC4E9026502B070BD00BFBC2A022096
:107E600038B500230022C0E90433002304460D4640
:107E7000C0E90223027802482BF0B4F8A57038BD9F
:107E8000785A01200148A3F033BD00BFA0B0002004
:107E90000148A3F02FBD00BFA0B00020044A08B5E0
:107EA00083680260243242600BB1C9F09CFA08BDBD
:107EB0002CD90F08A0F10400F0E700BF10B504466C
:107EC000054B03604433436015F0E4F82046FFF7A8
:107ED000E5FF204610BD00BFC4F40F08A0F1040068
:107EE000ECE700BF38B5124B044603F13802C2601C
:107EF00003F14C02026103F16002426142680360D7
:107F0000743383613AB183682BB1536042681A605D
:107F10000023C0E9013304F14405284690F080FBBA
:107F2000284686F09BFB201D86F098FB204638BD36
:107F3000A4E50F08A0F11400D4E7A0F11000D1E7E8
:107F4000A0F10C00CEE7A0F11800CBE71F2008B588
:107F500002210C4AA1F0BCFA0B482AF049FB78B97F
:107F60000121094829F03EFE50B908488BF06FFD09
:107F70001F200221064AA1F0ABFA0348A3F0B6FC89
:107F800008BD00BFB53F0E08A0B000207815002046
:107F9000D33F0E0870B500251D4C1E4A26461E4BC9
:107FA000C2E901551360D5601574556115831B49ED
:107FB0001B4A1848C8F069FD1A4B294646F8D83BB9
:107FC0003246234604F1080007F0F2FF04F12003D3
:107FD000C4E93435144B2046C4F8D830134B104A4A
:107FE000C4E9383604F1F403C4E93B3541F20A43ED
:107FF0000F4984F8E85084F8F451A4F8DC30C8F054
:1080000044FDBDE87040064A0A490B48C8F03DBD32
:1080100078150020543A012040251008D11103089A
:108020007028022090E50F08482110082C21100824
:10803000B3E6080859E60808C42802207FB50446BC
:1080400002211F20854AA1F043FA234602211F2066
:10805000834AA1F03DFA834D02211F207F4AA1F0FF
:1080600037FA02211F20804AA1F032FA2B784BB94F
:1080700028462BF077FA00280CBF012300232B7031
:1080800040F0E4802146794828F02CFE6DF0CCFCCD
:108090000446C9F072FD002840F0D880201D25F06C
:1080A0005FFF04F1080025F0EBFE2046C9F07AFDE1
:1080B0006F4A704B0221002808BF13461F206E4AEA
:1080C000A1F006FAFFF742FF002840F0BF806B4B9B
:1080D000039001936A4B6B480293A3F05AFA6A4CDF
:1080E000039001AB694823632AF0CEFF002840F0DB
:1080F000AD806748A3F05AFD664DD5E8AF3FDA077B
:108100000BD42846A9F093FD38B1634A634964480B
:10811000C8F0BBFC2846A9F08FFD624DD5E8AF3F03
:10812000DB070FD42846A9F082FD58B15C495E48B0
:1081300015F014F8584A5D495B48C8F0A6FC28467B
:10814000A9F07AFD5A4D584B2846236429F04AF885
:108150002669A5631EB9574E574B26617360E36BC2
:108160004BBB564D6B68002B6FD105F1140086F0A8
:10817000C5FA05F11C0086F0C1FAEB6803B92B7251
:1081800095F834304E4823F0050385F8343086F0F6
:10819000B5FA4C4886F0B2FA95F834304A4823F0E4
:1081A000180385F8343086F0A9FA00236E602B722C
:1081B00085F83430E563236C0BB9444B2364444D9C
:1081C000444B2846216963629BF099FD636A284607
:1081D0002B619AF0E9FF002838D122692562002A34
:1081E00036D03D4B3D4D5A60636102F0EDFB3C4B98
:1081F0000221A0623B4A2120E362A1F069F92846EE
:10820000216917F057FB08BB2069A5619DF0C8FFE5
:10821000354B2169606435482360A1F0B3FF3348D2
:1082200025F08EFE1849324816F0C4FE0446184860
:10823000A3F0CAFC3CB92F482AF05CFD14482BF08F
:1082400007F9044630B1204600E0032004B070BDB9
:108250002F20FBE700F0B0F8F5E700BFFD3F0E0868
:1082600030400E08C8BF00203C400E08205A0120B4
:10827000F43F0E08EC3F0E084C400E08857E0008C7
:10828000917E0008A0B0002078280220785A0120B2
:10829000D0BF00204C3A0120702802205BE608087D
:1082A00074280220483A012028120020BD7E0008D0
:1082B000543A01206429022018F80120104E0120B0
:1082C000344E01203C4E01201C4E0120E87300205A
:1082D000A44B0120442902209C4B0120604B01202B
:1082E000482902205E400E08F0370120C4280220F1
:1082F000807700208E400E0810B51348FFF79EFED1
:1083000008B186F0D1FA1148A3F050FC6DF08CFB57
:1083100000B10C301BF09CFD0C48A3F055FC1F2055
:1083200002210B4AA1F0D4F80A486AF0B5FC08B162
:1083300086F0BAFA084C2068DAF023FB08B1C9F0DD
:1083400052F8206010BD00BFB3400E08D0BF00201F
:10835000BC400E0818AE0120503A012010B50A4862
:10836000A3F0C0FB0021094A0948DAF09EFA094C43
:1083700002212060084A1F20A1F0AAF823680BB947
:10838000C9F031F810BD00BF785A012068D90F0834
:10839000F9820008503A0120CE400E08014824F02E
:1083A00089B900BFE84F0120024B01211868DAF0BB
:1083B00041BB00BF703A012010B50A4824F0D2F842
:1083C000044608B1C9F00FF801F076FA01F0BCFAE2
:1083D0002146054A0548DAF068FA054B186000287E
:1083E000F0D010BDE84F01208CD90F089D83000804
:1083F000703A012010B5044601210C20064AA1F074
:1084000067F80023E068A36020B1BDE8104003686E
:108410009B68184710BD00BFE7400E08A0F104009C
:10842000E8E700BF10B50B4CD4E8AF3FDB070ED434
:108430002046A9F0FCFB50B1074B084A08491360DD
:108440000648084AC8F021FB2046A9F0F5FB03487E
:1084500010BD00BFD83A01206C201008DC3A012082
:108460001DE708087028022010B504460B4B036076
:108470006433436000F50E7032F0DCFE636A23B1B2
:10848000002204F11C0062629847236923B1002294
:1084900004F1080022619847204610BD70E90F08DA
:1084A000A0F10400E0E700BF10B50446034B40F81C
:1084B000343B86F049F9204610BD00BF1CE90F0887
:1084C00037B5C0680D46144638B901210C200E4A54
:1084D000A0F0FEFF002003B030BD1A6821460192D3
:1084E00000221A6001AA0AF0F9F801A886F02CF916
:1084F000A38823B9E38813B92378402BEAD02B89CA
:1085000043F040032B81E5E7FA400E08A0F1040098
:10851000D6E700BFF0B505460C46152003211B4ADF
:1085200085B0A0F0D5FFAE6816B9032005B0F0BD48
:108530000023ADF8083023892BB96389022B20D1A1
:10854000237B142B02D00123ADF808306068277B11
:1085500031F060FE63683A46039302AB0093A16872
:10856000304603AB24F086FC044603A886F0ECF802
:108570002CB1A86818B1A1F018FB0023AB6020460D
:10858000D4E7002BDFD1237B402BDBE72D410E0806
:1085900037B516480AF08CFA1549164AD1F8AC34AA
:1085A000154D5360A1F54051144B104800950AF049
:1085B00075FB134B114A136129F0ECF8044602468F
:1085C0000A490E480BF094FB2946204628F078FF14
:1085D00040B10C482AF08EFB6D210B4B0B4A0C4826
:1085E0006BF0D8FE6C6003B030BD00BF50180020A7
:1085F00080A70020EC28022070170020CC28022041
:10860000805101003E410E085A410E086F410E088C
:108610008D410E0838B500243248334BC0E9044080
:1086200003606433436000F10803C0E902332F4B59
:10863000C0E90940836100F11C03C0E907332C4BFA
:10864000C0E90D44C0E90B342A4BC0E9204443641F
:10865000203383640523C0E92244C0E9644480F8E0
:108660003C40046480F8744080F89841C0F89C4114
:1086700080F8A04180F8B84180F8D041C0F81C32A1
:108680001D4B1E4A1E491F4DC0F83832C0E98F44A9
:1086900080F8E84180F80042C0F8184280F8204293
:1086A00080F84442C8F0F1F9144A17491748C8F055
:1086B000ECF9124A16491748C8F0E7F92846164B54
:1086C0006C6040F8103B2C722BF0B4FAC5E93444CE
:1086D000C5E936442846BDE83840084A0F49C8F085
:1086E000D4B900BF5018002070E90F089538010870
:1086F000B12B0108B8D90F087C2F10087028022070
:10870000698400087017002031E70808EC2802206F
:1087100033E70808CC2802201CE90F08A9840008C8
:10872000012903BF034B00201B78A62008BF13704C
:10873000704700BF37DE0120022938B514461D46B8
:108740000FD1202200210848C9F0C1F83CB1202DEA
:108750002A46214628BF20220348C9F063F9002099
:1087600038BDA620FCE700BF17DE0120104608B583
:108770006AB163B102290CD1202B28BF20231A46ED
:10878000029B05491A60C9F04DF9002008BD2F2051
:10879000FCE7A620FAE700BF17DE0120012905D17A
:1087A00002B11278024B00201A707047A620704761
:1087B00037DE01202DE9F0431D46002389B007462E
:1087C00008460E461446CDE905332AF0B5FF18B920
:1087D000D82009B0BDE8F083304605A92BF078F821
:1087E0000028F6D120462AF0A7FF0028F0D0204626
:1087F00006A92BF06DF80028EBD1DDE9058607907E
:1088000007A912482BF064F80446D8B9079B18EB67
:10881000030902D10EB1C8F0E6FD009302213B46E8
:108820001F20CDE901860A4AA0F052FE6B689E42E5
:108830000AD8324649462868C9F030F86B689E422B
:10884000E9D86E602046C4E71924FBE721720800CE
:10885000F9410E0801482BF083B900BF00720800EF
:10886000002307B50348019301AB2BF085F803B053
:108870005DF804FB0072080001482BF02DB900BF21
:108880000C72080010B506480C462AF0F5FF40F2BD
:108890000123984202BF4FF6F1732380002010BDE0
:1088A0000C72080001482BF05BB900BF0D72080084
:1088B00073B5002601AB0C480C46154601962BF00B
:1088C0005BF840F20123984208D14CB1062D09D93A
:1088D00020462946054A85F078FF304602B070BD33
:1088E0000B20FBE71920F9E70D72080017420E086C
:1088F00001482BF0F1B800BF0B72080010B5064814
:108900000C462AF0B9FF40F20123984202BF48F218
:1089100005032380002010BD0B72080001482BF0D6
:108920001FB900BF0E72080073B5002601AB0C48DA
:108930000C46154601962BF01FF840F20123984291
:1089400008D14CB1062D09D920462946054A85F0A3
:108950003CFF304602B070BD0B20FBE71920F9E761
:108960000E7208001E420E0801482BF0F9B800BF35
:1089700010720800002307B50348019301AB2AF0E9
:10898000FBFF03B05DF804FB1072080001482BF0F8
:10899000E7B800BF11720800002307B50348019330
:1089A00001AB2AF0E9FF03B05DF804FB1172080087
:1089B00001482BF0D5B800BF12720800002307B59C
:1089C0000348019301AB2AF0D7FF03B05DF804FB25
:1089D0001272080001482BF07FB800BF187208001F
:1089E00010B506480C462AF047FF40F20123984292
:1089F00002BF01232380002010BD00BF18720800B1
:108A000001482BF0ADB800BF0F72080073B5002607
:108A100001AB0C480C46154601962AF0ADFF40F21A
:108A20000123984208D14CB10C2D09D92046294682
:108A3000054A85F0CAFE304602B070BD0B20FBE748
:108A40001920F9E70F72080028420E0801482BF0A0
:108A500087B800BF0472080001482AF08DBF00BF2C
:108A60000472080001482BF095B800BF1F7208007F
:108A700007B50020009003482AF0D4FF03B05DF84A
:108A800004FB00BF1F72080001482BF025B800BF8F
:108A90000772080013B510480C462AF0EDFE40F2AC
:108AA00001229042034604D14FF4706323800023D7
:108AB0000FE070B92388B3F5805FF8D34FF4C27329
:108AC0002F240121CDE90034044A054BA0F000FD1C
:108AD0002346184602B010BD0772080055420E0822
:108AE00035420E0801482BF00FB800BF087208008D
:108AF00010B506480C462AF0EBFE40F201239842DE
:108B000002BF4FF47A732360002010BD0872080082
:108B100001482BF025B800BF0972080001482AF06F
:108B20002BBF00BF0972080001482BF019B800BF25
:108B30000A72080001482AF01FBF00BF0A7208002D
:108B40000B4610B5084A0C4608480949FFF732FEA3
:108B5000D82807D11BF008FA03682146BDE8104069
:108B60009B68184710BD00BF2772080066420E08B8
:108B7000267208000B4610B5084A0C4608480949F9
:108B8000FFF718FED82807D11BF0EEF9036821463D
:108B9000BDE810405B69184710BD00BF2572080092
:108BA00082420E08247208000B4610B5084A0C4693
:108BB00008480949FFF7FEFDD82807D11BF0D4F972
:108BC00003682146BDE810401B69184710BD00BF6F
:108BD00023720800A8420E0822720800022307B57B
:108BE00001A8D1E9001201936CF040FE18B9019977
:108BF00002482AF089FF03B05DF804FB20720800E8
:108C00001FB5022003900698009003A86CF046FE62
:108C100018B9039902482AF077FF05B05DF804FB04
:108C200020720800002370B5164886B00D4616461F
:108C300004932AF081FDE8B1124804A92AF048FE05
:108C4000B0B9049B3246002B08BF0223294605A871
:108C500005936CF08BFE0446029073681F2001930D
:108C60006B6802210093084A049BA0F031FC204667
:108C700006B070BD1BF078F90368324629469B693F
:108C80009847E8E720720800C1420E0801482AF020
:108C90003BBF00BF2172080001482AF019BE00BF87
:108CA0002172080001482AF05BBF00BF297208004A
:108CB00001482AF061BE00BF2972080001482AF06D
:108CC00069BF00BF0572080007B500200090034887
:108CD0002AF0A8FE03B05DF804FB00BF057208008F
:108CE00001482AF0E1BE00BF2872080001482AF0BE
:108CF00097BD00BF287208000020094B10B518600E
:108D000032B9084C2146BDE8104007482AF0FCBEA5
:108D1000A1F5005105488C18A2F0F5FEF2E700BF5E
:108D2000E03A012000E0170821720800785A01207B
:108D300000232DE9F04F85B080460F462C4803A94B
:108D4000154603932AF0C4FD002838D1294E336814
:108D500023B903992848A2F0B7FE80BBD5E90014D7
:108D60003368039A02EB030B14F003031BD10A468A
:108D7000234659462048A2F0ADFE00BB404631686C
:108D80002AF0C2FED8B9384669682AF0BDFEB0B9EB
:108D900032686B680020134413F03F021CBF40335D
:108DA0009B1A33600BE004F1040AAAEB030A504655
:108DB000019125F027FE0199814618B9AC2005B034
:108DC000BDE8F08F2246C8F02DFEAAEB0402FF2179
:108DD00009EB0400C8F07BFD53464A465946064855
:108DE000A2F078FE0446484625F030FE2046C4E74F
:108DF00021720800E03A0120785A012008B50A469D
:108E000002480349FFF794FF08BD00BF2272080023
:108E10002372080008B50A4602480349FFF788FF95
:108E200008BD00BF247208002572080008B50A4674
:108E300002480349FFF77CFF08BD00BF2672080007
:108E400027720800044600B589B01E22002168463A
:108E5000C8F03DFD2346084A1E2168466BF0B2FD6E
:108E60006946064829F046FF684685F020FDD6F0A1
:108E70008BFEC8F0B8FA00BF0C430E0822430E0860
:108E80002DE9F04F0446D0E90076384B87B0D3F88F
:108E900028B0D3F82CA0D3F83490D3F83880D0E998
:108EA000025301930369012102934369304A0393FA
:108EB00083690493C369002005932E4B1B68A0F0BF
:108EC00007FB5B46012100202B4AA0F001FB534623
:108ED00001210020294AA0F0FBFA4B460121002085
:108EE000274AA0F0F5FA434601210020254AA0F0C8
:108EF000EFFA234601210020234AA0F0E9FA00F00E
:108F000023FB3B4601210020204AA0F0E1FA334632
:108F1000012100201E4AA0F0DBFA2B46012100208F
:108F20001C4AA0F0D5FA01210020019B1A4AA0F0AA
:108F3000CFFA01210020029B184AA0F0C9FA0121B2
:108F40000020039B164AA0F0C3FA01210020049BD5
:108F5000144AA0F0BDFA01210020059B124AA0F09E
:108F6000B7FA00F0F1FADAF0E3F8FEE700ED00E01E
:108F700083430E08AC45012099430E08AF430E0809
:108F8000C5430E08DB430E08F1430E0807440E08E4
:108F90001D440E0833440E0849440E085F440E0871
:108FA00075440E088B440E08A1440E08024B034A78
:108FB0001A6085F07DBC00BFAC4501204452414899
:108FC000024B034A1A6085F073BC00BFAC45012018
:108FD0004655504D024B034A1A6085F069BC00BFEC
:108FE000AC45012046535542024B034A1A6085F0B6
:108FF0005FBC00BFAC45012054465355024B034AA9
:109000001A6085F055BC00BFAC450120544643535F
:10901000024B034A1A6085F04BBC00BFAC450120EF
:109020004E4D4244012108B50020064B064AA0F0EF
:109030004FFA00F089FADAF07BF8044904486BF043
:10904000E9FEFEE7B7440E08DF3F0F0853430E0862
:109050006A430E080C4600B59BB06422002101A8AB
:10906000C8F035FC23466421094A01A86BF0AAFC2C
:1090700001210020074A01ABA0F02AFA00F064FAAF
:10908000DAF056F8044905486BF0C4FEFEE700BF6D
:10909000DA440E08DF3F0F0853430E086A430E08F8
:1090A000034B0360034B0B604FF4A07313607047D6
:1090B0004845012048400120034B0360034B0B60EF
:1090C0004FF4A07313607047E43F0120E43A01209D
:1090D0000C4600B59BB06422002101A8C8F0F7FB44
:1090E00023466421064A01A86BF06CFC0121002094
:1090F000044A01ABA0F0ECF900F026FAC8F073F9CD
:10910000ED440E08DF3F0F08024B034A1A6085F05A
:10911000CFBB7047AC450120474F44572A2108B5C3
:10912000024800F05BF9BCF074F8FEE7FD440E085D
:10913000024B01211868D9F07DBC00BF78460120A0
:109140000D4BD9889A8889B292B2914211D0D988B0
:109150009A8889B292B291423DBF9A88D8881B8979
:10916000D8882DBF9B8813FA80F0801AC01A80B26D
:1091700070470020704700BFB0450120F8B50E468B
:10918000074608B9C8F02FF9154D2C898C42F9D340
:10919000FFF7D6FF201A80B286421BD8EB88E888FA
:1091A000E41AA4B2A6422B6815D92246394613FA0E
:1091B00080F0C8F037FC2868321B3919C8F032FC3F
:1091C000EB8816FA83F12B89B1FBF3F203FB121142
:1091D00089B2E980F8BD3246394613FA80F0EDE7EE
:1091E000B045012038B50446DAF08BF90121054677
:1091F0000846D8F09DFA2846DAF07EF90C480D4B67
:109200002146B4F8002100685CF036F94FF0FF32D7
:1092100000210120D9F04FFCDAF073F90446002157
:109220000120D8F085FA2046BDE83840DAF064B96C
:10923000482D0220319100080023F0B5C3B0174D2E
:10924000174E01ACA4F8003184F802314FF0FF331F
:10925000002221462868D9F0C8FE0028F6D194F8EB
:1092600002712046FFF7BEFF47B140F60D23238071
:1092700002232046A4F80031FFF7B4FF326852B150
:10928000204608496BF0D4FB0023A4F800012046D7
:109290003360FFF7A7FF00231A46DAE70C460120E8
:1092A0001046012027450E082DE9F843DFF85080CD
:1092B0001E46B8F800901546A3EB09070D4BFFB208
:1092C0001C89FFF73DFF241AA4B2A74207D83946EC
:1092D00005EB0900FFF752FF0023A8F8003006480D
:1092E00032462946054B00685BF072FFBDE8F84343
:1092F000FFF75AB8B0450120482D0220A992000876
:1093000060BF012070B5214E3468002C3DD14FF470
:1093100082711F4A0A20D9F0F5FD1E4D1E4A2860B1
:1093200021461E48D9F0C1FA1D4B1E4A9C801A6086
:109330004FF4807230601A81DC8008B9C8F053F8AD
:109340002B68002BFAD0184CA7F0B5F98022174BE8
:10935000174920685BF03CFF8022144B15492068B8
:109360005BF036FF0B205EF03DFC0B205EF0F4FB63
:109370001422114B0521DA640422A3F580531A65E7
:109380000E48BDE87040BBF054BE70BD7846012069
:1093900028DA0F080C46012040DA0F08399200083D
:1093A000B045012038DE0120482D0220A992000896
:1093B000E0ED012060ED01200020015B0000015B79
:1093C00008B5FEF7F1FF0421034B03F500521165C8
:1093D000D164DB6C08BD00BF0000015BF0B50C463A
:1093E0000646C3B018B94FF0FF3043B0F0BD4B1E76
:1093F000FF2BF8D80D4F3B680BB9FFF783FF002315
:1094000001AD2246314628468DF80631C8F00AFBE8
:109410004FF0FF33182229463868ADF80441D9F0DF
:10942000B0FD0028DFD120B2DFE700BF0C460120ED
:1094300030B50C46C3B00146D8B1631EFF2B18D817
:1094400001AD22462846C8F0EDFA01230A488DF8FE
:1094500006311822002329460068ADF80441D9F0EE
:1094600090FD10B920B243B030BD044A13680133F7
:1094700013604FF0FF30F6E70C4601201046012044
:109480000422F0B52C4B85B00C4607461A6500281F
:109490004FD000294DD0FFF753FEA04219D2DAF089
:1094A00043F805462548264E03AB01A9006802AAE9
:1094B000BBF010FD338802998B4207D20198C91A7C
:1094C000184489B2FFF75AFE029B33802846DAF02F
:1094D00026F81C4D2E89B44201D9C7F084FFFFF74E
:1094E0002FFEA04228BF2046AB8884B2F61AB6B23F
:1094F000B4422B68A98817D9324613FA81F138464D
:10950000C8F090FA2968A21BB819C8F08BFAAB888A
:109510002A8914FA83F3B3FBF2F102FB11339BB2F5
:10952000AB8020B205B0F0BD2246384613FA81F177
:10953000EBE74FF0FF30F5E70010015B482D02200C
:1095400060BF0120B0450120002370B5C2B00B4DB3
:109550000B4E01ACA4F8003184F8023100232146FF
:109560001A462868D9F041FD08B142B070BD2146C5
:10957000B4F8002130685BF0EFFCEFE70C46012007
:10958000482D022008B5082025F03CFA18B1002328
:109590004360014B036008BD88DA0F0808B5082056
:1095A00025F030FA18B100234360014B036008BD79
:1095B000A4DA0F08436843B9054B0B6005234B60E1
:1095C000436801334360012070470020704700BFAB
:1095D00041450E08042370B5144645688AB0ADF8BD
:1095E00002302B680A4601A805499E6885F0CBF930
:1095F000224628460DF1020301A9B0470AB070BD0A
:1096000047450E0830B54468134622688BB015698B
:1096100001A80A46034985F0B6F9204601A9A847E2
:109620000BB030BD54450E0830B58DB04468019282
:1096300023680A4603A80649DD6885F0A4F90423D7
:1096400020460DEB030203A9A8470DB030BD00BFB3
:1096500047450E08F0B5A3B0064617A81F460C46AE
:1096600015469EF06AFC2A2217A80CA99EF077FCEA
:109670000DF10B03019315234FF48072009317A88B
:1096800000239EF0D2FD50BB97E80300154B8DE8F8
:109690000300D3E9002317A89EF09FFEF8B9D7E98D
:1096A0000201114B8DE80300D3E9002317A89EF0B7
:1096B00094FEA0B99DF90B1017A89EF0EBFD70B9B0
:1096C0007668224633680949DF6803A82B4685F08F
:1096D0005AF93046BDF874300CAA03A9B84723B034
:1096E000F0BD00BFF0DA0F08E8DA0F0854450E08A5
:1096F00013B5044608460A4B1146C4E9003000235E
:10970000C4E903330193036822815B6A01AA984785
:1097100010B9019BC4E90303204602B010BD00BF8D
:109720006CDA0F082DE9F041D0E903329342044688
:109730000D469EB003D300201EB0BDE8F0812A265E
:1097400042683B495768ADF802603A68D2F8088031
:10975000028910A885F017F938460DF1020305AA11
:1097600010A9C0470028E6D110A89DF02AFF324674
:1097700005A910A89DF068FF4FF480720023152101
:1097800010A89EF0F9FA0028D5D10DF1010110A81A
:109790009EF02DF90028CED1264BCDE90100D3E96A
:1097A0000023CDE9030010A89EF0D9FA0028C2D109
:1097B00001AE314610A89EF0DCF90028BBD11E4B4B
:1097C00010A8D3E900239EF0CAFA0028B3D10DF106
:1097D0000C08414610A89EF0CCF90028ABD110A887
:1097E0009EF0B2FA0028A6D19DF9011010A89EF0B3
:1097F00057FA00289FD196E8060004F1140704F1F7
:109800002506384685F0E4F898E80600304685F0ED
:10981000DFF83846C8F013F9C5E900703046C8F0E3
:109820000EF9C5E90260E36801200133E36083E7D4
:1098300054450E08F0DA0F08E8DA0F0870B505464F
:109840000E460024AC4206DB22F0BEFF06499FF024
:109850005EFB002070BD22F0B7FF56F824200349BC
:109860009FF055FB0134EDE767450E088F500F0858
:1098700070B505460E460024AC4201DB002070BDE9
:1098800056F8243002211C20024A9FF021FE0134A8
:10989000F2E700BFDF3F0F0810B522F095FF044646
:1098A0009BF005FF0349024620469FF030FB002055
:1098B00010BD00BF65450E0803220249024822F090
:1098C0002FBE00BFF8DA0F08E84F01202DE9F0475E
:1098D0000646E0B088464FF4C07200216846C7F0E3
:1098E000F6FF002E29DD00256C464FF0200958F8C0
:1098F00025A05046C8F0A3F860AB27189F42024647
:109900001DD220465146C8F009F87C1C60AB9C4231
:1099100005F101052CBF3C4687F80090AE42E6D128
:109920000848A1F0E5FF6846D1F0C9F90548A1F063
:10993000E1FF002060B0BDE8F0872F20FAE7192092
:10994000F8E700BFA0B0002001220249024822F03F
:10995000E7BD00BF1CDB0F08E84F01200122024BCE
:1099600083F80421704700BF7C46012070B5836BEB
:1099700005460C4643B1134B2420002918BF0B4663
:10998000114A03219FF0A4FD2B6821465B6C2846F9
:109990009847AB6B064653B1A0280AD1094B0B4A36
:1099A000002C18BF2346032124209FF091FD304650
:1099B00070BD9F28FBD1034B054A002C18BF2346DE
:1099C000F1E700BFDE450E08E5450E0828460E0803
:1099D00072460E082DE9F0411F46836B0546012BA8
:1099E0000C46164608D9154B2420002918BF0B46F3
:1099F000134A03219FF06CFD2B683246D3F83C805C
:109A000021463B462846C047AB6B0646012B0AD988
:109A1000A0280BD1094B0B4A002C18BF2346032169
:109A200024209FF055FD3046BDE8F0819F28FAD1F3
:109A3000024B054A002C18BF2346F0E7DE450E080E
:109A4000C2460E08FF460E0846470E0810B50446EB
:109A5000054B036000F5CF60A0F031FB23690BB12B
:109A6000C7F0C1FC204610BDDC2010082DE9F341F1
:109A70001E46836B05460C46174633B10B46242021
:109A800003210F4A00969FF023FD2B683A46D3F836
:109A90004080214633462846C047AB6B0646012B23
:109AA0000AD99F2808D1074B0321002C18BF234651
:109AB0002420054A9FF00CFD304602B0BDE8F0813D
:109AC00093470E08DE450E08E2470E0870B50446BF
:109AD0000B4B00F5387503F12C0203604C334260E8
:109AE000836000F11006B54207D055F8080C283DF8
:109AF0000028F8D030F01AFCF5E7204670BD00BF12
:109B00002C2B1008A0F10400E0E7A0F10800DDE72D
:109B100010B5094B04460360084B8360006948B1E7
:109B200043680BB9C7F05FFC013B436013B903689E
:109B30001B6B9847204610BD80DB0F08D42E100801
:109B400010B50446034B40F80C3BFFF7E1FF2046FD
:109B500010BD00BFA4DB0F080022002310B5C0E930
:109B60000023C0E90223C0E904230D4B0446002171
:109B7000836121226030C7F0AAFE4FF6FF720023F6
:109B8000A4F882204FF48072204684F88130A4F833
:109B90008420C4F8883084F0F9FF204610BD00BF4F
:109BA000A0231008F7B500F1080504460E4605602D
:109BB00011B91048C7F026F90846C7F040FF0F2832
:109BC00006EB0007019008D90022204601A969F0A0
:109BD000F9FA0546019B2060A3603A4631462846C3
:109BE000C7F070F900212046019B22686360D154C0
:109BF00003B0F0BD2F480E0810B50446044B0360B7
:109C0000406A84F064FFE06885F053F8204610BD98
:109C100030DB0F0870B5164605460C468CB0114671
:109C2000684684F094FF2946304684F002FF641BA6
:109C30000A4BE4105C43694606A884F088FF22467C
:109C4000002106AB284685F05DF806A8C7F0FAF8B3
:109C50006846C7F0F7F80CB070BD00BFABAAAAAA5F
:109C60002DE9F04F4FF0180B044617460D468DB006
:109C700000EB0B08A5EB0409B9F5C07F24DD404BD0
:109C80004FEAE90903FB09F94FEA690657BB1827B0
:109C9000013E684607FB064184F059FF694606A865
:109CA00084F055FF20464A46314606AB85F02AF837
:109CB00006A8C7F0C7F856B96846C7F0C3F82B1B0B
:109CC000182BA5F1180507DC0DB0BDE8F08F68462C
:109CD000013EC7F0B7F8DCE72A4629462046FFF7E1
:109CE00099FFECE70BFB06464046314685F005F848
:109CF000A5F11809C246494660B1304684F0FDFF1F
:109D000008B131460BE04946404684F0F6FF28B1E1
:109D1000494604E0404684F0F0FF10B34146204637
:109D2000C7F070F92E465046214684F0E6FFD14632
:109D30000AF1180A0028F6D1A6F1180A5146204661
:109D400084F0DBFF5646AAF1180A0028F6D1B14587
:109D50000ED3013F29463A464846FFF781FF4D465C
:109D600088E74946304684F0C8FF0028C9D0CFE7CD
:109D700031464846C7F046F909F1180AD3E700BF53
:109D8000ABAAAAAA2DE9F043884205460E4687B041
:109D900005D0DFF8608000F11804A64202D107B0B8
:109DA000BDE8F0832946204684F0A7FF04F1180798
:109DB000E0B12146684684F0CAFEB946641BE4104F
:109DC00008FB04F4002C08DC2846694684F031FEC8
:109DD0006846C7F037F83C46DFE7A9F13001A9F142
:109DE0001809484684F025FE013CEBE7204684F044
:109DF000E6FFF0E7ABAAAAAA2DE9F041036886B016
:109E00009B6A0446984701210346384A24209FF064
:109E10005FFB236821466846DB6A9847039E00245F
:109E200030460DF10408404505D1314B9C4206DD1A
:109E30003048C6F0EAFFC6F087FE0134F3E7182782
:109E400067431CB13846BBF0E4FD04462546464551
:109E50002AD1AC4217D0284B2E1BF2105A43B2FA2B
:109E600082F2C2F11F02294620465200FFF7F8FE97
:109E7000B6F5C07F28DD04F5C07631462046FFF7F1
:109E800081FFB5421BD12646B54222D12646B542B6
:109E900027D11CB139462046BBF0CBFD029884F097
:109EA00016FE06B0BDE8F081284606F1100184F0E8
:109EB000EEFD3046C6F048FE18350646C7E7304688
:109EC00084F07DFF1836DCE729462046FFF75AFF6D
:109ED000D9E70121242056F8183B084A9FF0F8FAE8
:109EE000D2E73046C6F0AEFF1836D0E761480E081C
:109EF0005555550592480E08ABAAAAAAC3480E08A4
:109F0000F8B50025474C60199035FFF725FEB5F5EB
:109F1000347FF8D100254448FFF71EFE0026C4E92F
:109F2000D855C4E9DA55A4F87053C4F8745384F8CA
:109F3000785384F8805384F88253A4F8845300271C
:109F400012243A4A3A493748C6F09FFD394B3A4AFB
:109F50001A6002F12C014C32C3E90225596010331A
:109F6000102218460021C7F0B2FC41F2A452034669
:109F7000013CC0E90667057442824561056203F150
:109F80002803EDD1294A2D492A48C6F07EFD2C48E8
:109F900023F062F8254A2B492948C6F076FD2A4865
:109FA00031F07CFA214A29492748C6F06EFD28483D
:109FB000284B1E4A2849C0E9014403600473C6F0D7
:109FC00064FD2648264B194A036000F10803C0E9E6
:109FD0000433244900F12003234DC0E90A330472FD
:109FE000C460846180F820404462046380F8344097
:109FF0008463C6F04AFD1D4B21462B601C4B10228A
:10A0000005F11800EB60C5E901442C61C7F05FFC65
:10A01000184BEC616B612846BDE8F840034A1649CD
:10A02000C6F033BD383600200839002070280220E1
:10A03000E9EB0808583300202C2B1008CD9A0008B3
:10A04000A82B00204D9A0008A01A0020B9B60308DA
:10A05000E84701207C2F100835B20308AC470120E7
:10A0600030DB0F08F99B000884470120A4DB0F08B0
:10A0700080DB0F08D42E1008419B000870B50368E0
:10A0800005460C4616460BB1032070BD02210D207B
:10A09000074A9FF01DFA0CB92F20F6E723682046E7
:10A0A000DB6898470028F0D1C5E90046EDE700BF1E
:10A0B000CB480E082DE9F04F074600688BB00468C6
:10A0C0000D46646C90461E46A0472D2804460ED0CF
:10A0D00048B19A4A9A4B0221A52818BF13460D2071
:10A0E000984A9FF0F5F920460BB0BDE8F08F6B78E9
:10A0F000202B01D10024F6E7934B3868029358B126
:10A1000003682A461B6C02A99847044630B102989E
:10A1100003689B689847E6E70324F8E74FF0000AD6
:10A120004FF0000B894B0393029803A90368DB6887
:10A13000984730B102210D20854A9FF0C9F9A52426
:10A1400010E08DF8060003980DF106010368DB6846
:10A150009847044630B99DF80630402B07D0802B35
:10A1600005D00324039803689B689847CFE76A7873
:10A170009A42D9D1012303988DF8073003680DF175
:10A1800007015B69984704460028EBD19DF807302A
:10A19000082B17D8002BC7D0013B072BC4D801A22E
:10A1A00052F823F0D1A10008DBA1000829A1000882
:10A1B000E7A1000829A1000829A1000829A1000899
:10A1C00005A20008102BAFD1102EADD8614B1DE0B9
:10A1D000741E6342634153B9A6E7731E012B8CBF03
:10A1E00000230123F7E7042E01D0012E9CD1002388
:10A1F00003980493036804A95B6A9847814648B1B1
:10A200004C46AFE7082E8FD84FF48973F340D80738
:10A210008AD5ECE7049B1BBB0023039805930368D6
:10A2200005A99B6B984781460028E9D1059B002B27
:10A230007FD1002496E74FF0FF31C21C994274EBA6
:10A24000020243D39DF80620402A8AD105F10C0171
:10A2500005F118044FEA134CA14229D109F1010973
:10A26000049B4B457FF660AFCDE906AB03984946AA
:10A27000036806AA9B6A9847044600287FF472AFD9
:10A28000DDE906306FF0010C5A1E40F1FF319445B4
:10A290006FF010028A41CED39DF80620402A7FF449
:10A2A00060AFD5E90212904208BF8B42D6D1B3E726
:10A2B00051F8042F002ACFD0BCEB124FCCD198B26A
:10A2C0000028C9D092B29042C6D8A5E713F5803FC6
:10A2D00070F1FF32FFF445AF9DF80620802ADEE7DB
:10A2E00000230398069303684946DB6B06AA984748
:10A2F000044600287FF436AF069BD90704D5D8F86A
:10A3000000200799914212D19A0705D5BDF8201077
:10A31000B8F8042091420AD15B078AD57868B8F86A
:10A320000420036809999B689847002881D109F1A6
:10A330000109059B4B45D3D8F6E600BF9BC80F0823
:10A3400013490E08E7480E08F4280220F8280220D6
:10A3500004490E08160101000023F0B58BB0CDE9C9
:10A360000433054600688DF80D308DF80E308DF8F9
:10A370000F3003680DF10D01DB6898470446002893
:10A3800040F0B58028680DF10E0103681B699847FD
:10A390000446002840F0AB8028680DF10F010368E7
:10A3A0005B6998470446002840F0A180286804A90A
:10A3B00003685B6A98470446002840F09880286844
:10A3C00005A903689B6B98470446002840F08F80DE
:10A3D0009DF80E30002B00F093809DF80D30402B3F
:10A3E00044D0802B40F08E809DF80F30102B3DD153
:10A3F000474B01210D20474A9FF06AF87EE028680C
:10A400003146036806AA9B6A984700286ED19DF8DA
:10A410000D30402B1FD1DDE906326FF0010C591EC3
:10A4200042F1FF378C456FF01001B94107D24FF070
:10A43000FF3103329942904116D39BB2A3B101364A
:10A44000049BB342DBD80027334E059BA3420FD8B1
:10A4500001200BB0F0BD802B06D1069B079A13F5A7
:10A46000803F72F1FF32E7E72C4BC2E72646E7E771
:10A470002868069703682146DB6B06AA98470028E0
:10A4800034D1069BD80703F0020103F0040203D481
:10A49000D9B972B9224BACE7002935D1079B13F526
:10A4A000302F4FEA1340F5D2C0B91B04F2D471B972
:10A4B0004AB1099B03EA060212F5003FEAD89BB2B3
:10A4C000B3F5404FE6D20134BFE7002AE2D14FF6A0
:10A4D000FF73BDF820109942EAD1DBE740F2FE306D
:10A4E00003F580639BB28342D4D8E0E704460121A0
:10A4F0000D200C4B0C4A00949EF0EAFF0020A8E7C8
:10A500000A4B76E70A4B74E7002AC7D0C2E700BFC0
:10A5100039490E0899490E080000FFFF1A490E0834
:10A520002A490E0872490E0883490E085D490E0833
:10A530004B490E082DE9F0410546006886B00F46EC
:10A540001E468DF80F2020B90324204606B0BDE832
:10A55000F081DFF86880AB68CDF8148073B900240F
:10A560002868314603680DF10F02DB6B9847A0B1F4
:10A570000446059803689B689847E6E703689DF8DA
:10A580000F205C6B8DF8132031460DF1130305AAE3
:10A59000A0470028E3D105ACE2E71CB1236843459E
:10A5A00008BF002402233946CDE90043284633463C
:10A5B0009DF80F2084F061FF0024DAE7F8280220DC
:10A5C000034B1868034B002808BF1846704700BFAC
:10A5D000FC4701200048012010B5044602210D204F
:10A5E000024A9EF075FF024B1C6010BDAB490E087D
:10A5F000FC47012008B5084A08490948C6F045FA51
:10A60000054A08490848C6F040FABDE80840024A31
:10A6100006490748C6F039BA70280220E3F3080853
:10A6200000480120F5F30808F8280220F7F308088D
:10A63000F42802200023F7B5CDE900333AB96E467D
:10A6400001AB15240E4A013C04D1142315E06B46DE
:10A6500001AEF6E71578002DF7D055788D4206D17A
:10A6600007683568AF4207D0019D01350195009D0F
:10A67000403201350095E6E71B68036003B0F0BD8A
:10A68000003A002007B5019021B10122097801A804
:10A69000FFF7D0FF019813280AD8064B820103EB7D
:10A6A00080109B5C002B08BF002003B05DF804FB0A
:10A6B0000020FAE7003A00200023152010B51360AF
:10A6C000074B013801D1002010BD1C78002CFAD0B6
:10A6D0005C7840338C4202BF146801341460F0E7A8
:10A6E000003A002000231A4610B50648B3F5A06FC3
:10A6F0000A6001D1002010BD4033C45C002CF9D0A9
:10A700000132F3E7C03900200868114B70B5984258
:10A710000E46154603D303F10C02904214D31B7965
:10A72000A3B90B4C03689B6898470123002D346044
:10A73000237108BF00234FF00000637118BF2B780E
:10A74000A06018BFA37170BD0446EBE71920FAE7BB
:10A750001048012002210D20014A9EF0B9BE00BF21
:10A76000C2490E08022110B50D20074A9EF0B0FE26
:10A770000021064C08194031B1F5A86F01D1002025
:10A7800010BD84F01EFFF5E7EA490E08003A0020EC
:10A7900038B50B4B0C46984202D30C33984201D388
:10A7A000C6F021FE85680FCD0FC40FCD0FC40FCDAD
:10A7B0000FC495E80F0084E80F00002038BD00BFEB
:10A7C000002902202DE9F041114C1E460F461523A9
:10A7D000A046013B01D1192018E0217809B140348D
:10A7E000F7E721461068FFF7D3FF054668B90EB1B9
:10A7F000637833704FB1A4EB0804A4113C6026B118
:10A80000002238463178FFF715FF2846BDE8F08171
:10A81000003A0020064B984203D303F10C02904209
:10A8200004D39B680248002B18BF0020704700BF6C
:10A830000029022010B50868FFF7ECFF80B182689C
:10A84000084B0AB19A4206D21B784BB9054A84F0EC
:10A8500004FF002010BD03F14004A242F4D2F6E749
:10A860001920F7E7C039002038B5114B846894B936
:10A87000104C84602278A2B142791AB1657882794D
:10A880009542F3D10868FFF7C5FF70B1224684F006
:10A89000E4FE002008E09C423CBF403484609C42BF
:10A8A000E8D1034B83600A2038BD1920FCE700BFC4
:10A8B000003F0020003A0020F0B50E4F84680646A5
:10A8C000BC4205D307F140039C4201D20020F0BDF9
:10A8D0003B7863B9074D0FCC0FC50FCC0FC50FCC1C
:10A8E0000FC594E80F0085E80F00B760EEE7192068
:10A8F000EDE700BFC03900202DE9F0410E461146BA
:10A900003046FFF7BFFE0446002842D0224FBB6806
:10A91000984202D13846FFF7CFFFDFF88C804445DC
:10A9200016D204F1400CC4450FD294F8403063B104
:10A9300065460FCD0FC40FCD0FC40FCD0FC495E8E2
:10A940000F0084E80F006446E9E7204684F039FEF2
:10A95000124CBB6804EB86169E4212D003D24345CC
:10A9600001D2403BBB600E4A93689E4206D84345E5
:10A9700004D2A3420CBF0023403B93600020BDE8FB
:10A98000F0817D68286803689B689847054B2B60B9
:10A99000E9E70A20F3E700BF00290220003A00207F
:10A9A00010480120F8280220003F00208268054B53
:10A9B00000219A4203D340339A4238BF117081601C
:10A9C000704700BFC039002010B5094CD4E8AF3F34
:10A9D000DB070BD42046A7F02AF938B1054A06490F
:10A9E0000648C6F052F82046A7F026F9034810BDE5
:10A9F0000C48012070280220A3F60808FC28022039
:10AA000008B5084A08490020C6F03FF80020074B67
:10AA1000074A18711A600749024ABDE80840C6F0A3
:10AA200034B800BF70280220A9F608081048012099
:10AA300078DC0F084FF7080870B5104ED6E8AF4F16
:10AA400014F0010418D13046A7F0F1F8A0B10C4D74
:10AA50000C4A2B4607CA43F8044B83E807004FF61D
:10AA6000FF722A824FF0FF321846C5E9052484F0B0
:10AA7000C3FF3046A7F0E0F8014870BD1C48012034
:10AA800020480120D8DC0F0838B5054604300C46B4
:10AA900084F0B2FF2A6813461BB9E26001202C60E3
:10AAA0000DE09868A16888420ED1197909B1217921
:10AAB00031B923200121054A9EF00AFD002038BD4E
:10AAC000D888E1888842F4D0DB68E5E7104A0E08B0
:10AAD000094A08B5026002690AB1C6F084FC074A57
:10AAE000011D026082688A42F7D141680029F4D0D2
:10AAF0004A604368136008BD34DD0F08ECDC0F08C2
:10AB000010B50446024B0360FFF7E2FF204610BD7C
:10AB10007CDD0F08F7B50C46114B054619686846F1
:10AB20000B689B689847D4E91421009B20469F1A24
:10AB3000019B63EB010685F030FB038920469F42B1
:10AB400076F1000309D285F028FB0430036828461B
:10AB50002B6000236B6003B0F0BD85F01EFBF5E7B2
:10AB6000BC2A0220F0B504460F46104619460026BE
:10AB7000231D85B0C4E90133C4E906011B4B0A9DBE
:10AB8000267326612360276204F1280C95E80F00E4
:10AB90008CE80F002B7C04F1480084F838306B8A75
:10ABA00063876B69E363D5E90623C4E91023104B7F
:10ABB00004F1580519680B689B6898470022002328
:10ABC000C4E914230B9A01AB07CA85E8070083E8A0
:10ABD00007000123204684F8646084F8686084F8E4
:10ABE0006C60A4F87430A66705B0F0BD34DD0F08C2
:10ABF000BC2A02202DE9F04F80460E4615469A46A3
:10AC00006FF0010B6FF0100489B09AF01FFD421E27
:10AC100041F1FF33934574EB030307468946F4D3B0
:10AC2000183630469EF077FC044630BB4FF0FF32BA
:10AC30004FF0FF33CDE9042304AB03900693304675
:10AC400003AB204A06A907939EF0CEFC039C34B9BF
:10AC5000002388F80030404609B0BDE8F08F236833
:10AC600020461B689847214630469EF09BFC3046A4
:10AC70009EF051FC04460028EAD03A464B4600219B
:10AC8000CDE9005AFFF76EFF0F4B04F12806236051
:10AC900095E80F0086E80F002B7C204684F83830BA
:10ACA0006B8A63876B69E363D5E90623C4E91023E4
:10ACB000012388F800302368C8F80440DB6898470F
:10ACC000C9E700BF390109087CDD0F08084B10B542
:10ACD0000360183343600446083085F0D2FA014619
:10ACE00020B9606900F5CF609FF0FFF9204610BDE4
:10ACF000C4DD0F08A0F10400E8E700BF2DE9F04F24
:10AD000006460C468FB01D469DF86430904607936A
:10AD1000D1E90023CDE9003227200B7A2D4A032107
:10AD2000189FDDF868A09DF86C909EF0D1FB002282
:10AD30002146304685F0FAFA834670BB032127206E
:10AD4000254A9EF0C5FBD6F83CC0DCF800E004962E
:10AD500094E80F008DE80F006046DEF80030B26B1B
:10AD600006F1080198478346B8B925B10B22214660
:10AD70002B69E86898476FB194E80F0008AD85E843
:10AD80000F000B230C93002329468DF83430F8680C
:10AD90003B6998470FB0BDE8F08F5846079992F08D
:10ADA00026FBBAF1000F03D0514658460FF022FBA4
:10ADB0002DB14B462A464146584692F042FC002FA0
:10ADC000E8D04B463A46414658460FB0BDE8F04FF2
:10ADD00092F03FBC414A0E08724A0E0882B070B52C
:10ADE00086B00AA981E80C000122054685F09EFA8A
:10ADF0000446E8B903212720134A9EF069FBEC6B57
:10AE00000AAB266804950FCB8DE80F002046336807
:10AE1000AA6B05F108019847044688B90321272049
:10AE20000A4A9EF055FB06B0BDE8704002B070477C
:10AE30000A9B0321009327200B9B054A9EF048FBA9
:10AE400020460FF001FCEEE7BD4A0E08034B0E084A
:10AE50004A4B0E0810B504460221074A0D209EF009
:10AE600037FBFFF7ADFB04F1140184F0E1FA204653
:10AE7000BDE8104094F06AB8A44B0E0800B5084B2A
:10AE800089B0049304230593002303920449042208
:10AE9000009303A894F016F809B05DF804FB00BF16
:10AEA00058DE0F0838B50C46054602210D20084A29
:10AEB0009EF00EFB2146284694F05AF8044628B925
:10AEC000FFF77EFB05F1140184F0A4FA204638BD9B
:10AED000C34B0E0800B50D4B8DB0CDE90631ADF872
:10AEE000202000231F22CDE90923012391F83C20D3
:10AEF0008DF82C308DF82D200093024606AB08A962
:10AF000002A80CF0BBFE0DB05DF804FB4CDE0F0890
:10AF10002DE9F041D0F80C80B2B00546DDE9387675
:10AF20000C46B8F1000F35D0A1B34022002168468D
:10AF3000C6F0CDFC2378012E8DF83C3002D18DF87F
:10AF4000146001E0022EFAD06378402B25D1D4E9B9
:10AF50000223CDE9002301238DF80830002F4BD0C8
:10AF600000213C2222A8ADF844108DF850108DF835
:10AF70005C108DF860108DF862101097C6F0A7FC79
:10AF800010A894F0EEF9034680B101210D201C4A6F
:10AF90009EF09EFA32B0BDE8F081202B01BFA3687D
:10AFA000ADF8103001238DF81230D7E7BDF84430EA
:10AFB00012AAADF8183007AB07CA83E807000AAB3E
:10AFC00015AA07CA83E807009DF860308DF8343071
:10AFD0001BB19DF861308DF835309DF8623000224C
:10AFE0008DF8363001238DF83830EB68DB68694620
:10AFF0001868FFF76FFFCDE73A46D8F80C30F6E750
:10B00000E64B0E082DE9F04F15460026BBB01C4656
:10B0100007460596FFF7D4FA2B69042B08D8042BB2
:10B0200010D8DFE813F013000F00FF002B013201EE
:10B030004FF6FC72934200F02D814FF6FD72934261
:10B0400000F02A8140F286533B6077E00021954B67
:10B050003C220693944B0DF11C0A2AA80793ADF8E5
:10B0600064108DF870108DF87C108DF880108DF8BC
:10B070008210CDF860A0C6F02AFC0123204684F897
:10B08000443084F036FF804600284ED10DA80C9441
:10B090009CF053FF854885F0B3F9D0B1844EB6F8E3
:10B0A000643906F50B6603F00503052B18BF00266F
:10B0B0000523DFF800B20B935846CDE908B685F0BA
:10B0C0009FF940B90A9008A885F0AAF9DDF8289000
:10B0D00003E04646ECE74FF00009B9F1050F18D040
:10B0E000902505FB09B556B1304685F089F930B198
:10B0F00096F8812095F881309A4208BF354695F838
:10B100008150FFF75DFA00688DF81050E0B9032315
:10B110009846204684F032FFB8F1000F05D14FF673
:10B12000FF7384F84C80A4F84A30504685F060F9EB
:10B13000069803689B689847C7F800800023384644
:10B140003B713BB0BDE8F08F036804AA1B6C06A9F5
:10B1500098470346002BDBD1069851460368DB680D
:10B160009847034620B10A28D2D1CDF82890AAE703
:10B17000189A8DF8103010680393026804A91269B8
:10B1800090479DF81020002A4AD00C9D95F8452044
:10B1900072B1039B04A98DF81030189B18680368DE
:10B1A0001B6998470C9D9DF810302A7A9A42D3D19A
:10B1B0002B7A28460DA9039384F007FF0028CBD0F3
:10B1C00095F8463029688BB1039B096C4FF4807267
:10B1D000009318A8002394F0ACF9034619462846BA
:10B1E0000DAA039384F00AFF039BB3E72B6C05F1D0
:10B1F000280204A884F037FE03460028EED12B680D
:10B200000222196C039B18A80093002394F091F973
:10B2100003460028E2D1296804A884F05CFEDCE73C
:10B22000712375E70068002839D003689B6905A978
:10B230009847034600287FF407AF0123216884F86C
:10B24000443004F12802236C18A8059D84F00BFEFD
:10B25000034600287FF4F8AE2268106CCDE9005355
:10B26000022200239CF043FF034600287FF4ECAE4B
:10B27000216818A884F02FFE0346E5E60068002840
:10B280003FF4E2AE0368DB69D1E705A9006885F009
:10B29000A5F8CEE70596D0E702230593CDE7032373
:10B2A000D2E600BFF4280220F828022030A00020B7
:10B2B00080970020609D00202DE9F04190F9343006
:10B2C00006460133A6B003D1002026B0BDE8F081C8
:10B2D0000368002BF8D100F1080840469CF014FDEB
:10B2E000074630600028EFD1204C0146942201A887
:10B2F0000094C6F0ECFAB06C04AD03689B68984704
:10B300000FCDB46406F15804A6F850700FC40FCDE9
:10B310000FC40FCD0FC495E80F0014AD84E80F00E3
:10B320000FCD06F198040FC40FCD0FC40FCD0FC47D
:10B3300095E80F0084E80F00684686F8D87086F814
:10B34000DA7085F055F8414606F1480093F0FAFFAF
:10B3500030600028B8D196F840302BB1B06C96F828
:10B3600041100368DB6998470120AEE7F828022006
:10B370002DE9F04104460E460027154600F1080865
:10B3800040469CF01EF93146404627609CF02EF95D
:10B3900084F840702B7884F8403013B16B7884F8CF
:10B3A0004130084B2046A3640023A4F8503084F8B1
:10B3B000903084F8D03084F8D83084F8DA30BDE8A2
:10B3C000F08100BFF82802202DE9F047CEB080467A
:10B3D0000D460E7AFFF7F4F80068002861D0036884
:10B3E00003AF3A4631465B6A984700285AD1FFF7C7
:10B3F000E7F80DF110094946006884F0EFFF0446B4
:10B40000002850D198F80E30012B00F2C8800DF1C1
:10B41000180840469CF0D5F82246214640469CF04C
:10B4200013F901232B712B7A88F83840002B40D078
:10B430002C6820469CF0EDF9162838D1204616A934
:10B440009CF0D5FA70BB2346424604F1300E944678
:10B45000186859680833ACE8030073456246F6D1B2
:10B460001B7820468CF800309DF958109CF018FC91
:10B47000C0B901222B7A88F8382088F8393098F939
:10B480002C3005AC013317D0214640469CF0A4FC7B
:10B4900040B92268D9F800309A420ED940F2895456
:10B4A00001E00320044620464EB0BDE8F0878E2020
:10B4B000F8E740F27E50F5E7206098F8383002ACAB
:10B4C000237013B198F8393063702246414616A8AC
:10B4D000FFF74EFF0DF1A00916A8FFF7EDFE70B9BA
:10B4E000DDF858A0BAF1210F08BF4FF0000A484616
:10B4F00084F07EFFBAF1000F09D05446D3E74846E6
:10B50000FEF72AFF0028E7D14FF02F0AEFE798F85F
:10B510003830237013B198F83930637041462246B1
:10B5200016A8FFF725FF05F1080816A8FFF7C4FEC7
:10B5300038B9169C212C30D07CB3484684F058FF93
:10B54000B1E73B6853450BD9FFF73AF8534632460B
:10B550004146CDF8009083F0F0FF58B10446ECE787
:10B56000FFF72EF8002332464146CDF8009083F0D5
:10B570009BFFF2E70AF1010AD7E7013B3B60FFF7C7
:10B580001FF8324629463B68FEF7D4FF0028E5D174
:10B590003B685345F1D80024CFE70835F8E7042B82
:10B5A00031D13B68D9F80020013393423FF676AFA2
:10B5B000164BADF86000169301232B712B7A8DF892
:10B5C000A0008DF8E0008DF8E8008DF8EA0016AFD5
:10B5D000B3B13846296893F0B5FE044670B91698A1
:10B5E00015F8081F0368DB699847FEF7E9FF234653
:10B5F00032462946009783F057FF044638469DE7B8
:10B6000040F27E54FAE76C244DE700BFF828022090
:10B61000F0B517690E460446194685B0BFB902F168
:10B620000800FFF7D1FE2F28034613D0D82811D0E9
:10B630000B2819D000228DF80C20039A2046009286
:10B6400031463A4693F0B9FC204605B0F0BD4FF4C0
:10B65000B163EFE7872501210D20044A00959DF095
:10B6600037FF45F4A063E5E78925F4E70D4C0E08A4
:10B67000034B53F81C09002818BF1846704700BF39
:10B680005848012008B50C4802680AB1C5F0ABFE65
:10B690001F21A0F11C0340E905120849C3E9073244
:10B6A00040F81C1C483140F8182C40F80C2C40F88D
:10B6B000042C40F8081C08BD58480120F0DD0F0894
:10B6C0007FB5094B1F2201934FF00113CDE90323EE
:10B6D0000023ADF8080001A902A8ADF8143099F0D4
:10B6E000F7FF07B05DF804FB80DE0F0808B50248DD
:10B6F00084F0B2FE08BD00BF3C480120024A034965
:10B700000348C5F0C2B900BF7028022083040908AD
:10B710003C48012000B5084B89B0049303230593EE
:10B720000023039204490322009303A893F0CAFB69
:10B7300009B05DF804FB00BFE8DE0F0810460249BF
:10B7400002229EF02EB800BFD8DE0F087FB5166922
:10B750000546022E1C464DD008D826BB364893F02D
:10B7600058FF032865D0CDE9020610E04FF6FC73C0
:10B770009E4208D04FF6FD739E4212D086220123CE
:10B78000C0E900230AE000220023CDE9022320467D
:10B7900002A984F0D1FE002328602B71284604B052
:10B7A00070BD0122F0E70123216884F8443004F1E0
:10B7B0002802236C02A884F056FB0028EBD12368F2
:10B7C000186C1E4B93F8A12422B9022200239CF08E
:10B7D00022FD08E093F8A034FF2B2AD00093022228
:10B7E00000239CF09EFC0028D5D1216802A884F09B
:10B7F00072FBD0E70123216884F8443004F1280269
:10B80000236C02A884F02FFB0028C4D12368186C95
:10B810000A4B93F89E24002AD7D04FF6FF72B3F854
:10B820009C34934205D00093022200239CF084FCB8
:10B83000D9E740F28750AEE7C8A3002080A70020D8
:10B840002DE9F04317460221314AA1B004461D20DC
:10B850001D46B3F800909DF03BFE39462D4896F00A
:10B86000BAFF804608B92C4B20E02C4E96F8FC34E9
:10B87000DBB996F8FD34C3B9A6F56E7093F0CFFE30
:10B8800098B92B69B3F57A7FEDD3254A9342EAD86C
:10B89000AB690F2BE7D9202BE5D8A6F56E7093F096
:10B8A000B5FE814509D9852300E01E4B23600123A5
:10B8B0002046636021B0BDE8F083A6F56E7084F089
:10B8C0005BFE8145EFD3AB89B3F5805FEBD2291DD9
:10B8D00007A899F039FA0028C5D1B8F88230CDE927
:10B8E000037301ABD5E9050183E803002B694946E1
:10B8F0000093AA890C4807AB93F05FFF0546002828
:10B90000B1D102211D20094A9DF0E2FD2560CEE75C
:10B91000244C0E08609D00200103010080A7002038
:10B92000A086010001020100C8A30020524C0E08AD
:10B9300010B50221104A04461D209DF0C9FD0F4894
:10B940000CF0F0FE0E4893F06AFE50B901211D2064
:10B950000C4A9DF0BDFD0C4B236001236360204623
:10B9600010BD074811F08EFF02211D20074A9DF0EF
:10B97000AFFD0023F0E700BF734C0E087CAC002045
:10B98000C8A30020A24C0E0801040100CD4C0E08F3
:10B99000034B53F81809002818BF1846704700BF1A
:10B9A0007848012008B50B4802680AB1C5F01BFDB4
:10B9B00020F8141C3C21A0F1180340E90412C3E94B
:10B9C0000632054900F8122C40F8082C40F8181CE3
:10B9D00008BD00BF784801209CDE0F087FB578B90C
:10B9E000094B3C2201934FF00113CDE903230123BE
:10B9F000ADF8080001A902A8ADF8143099F068FE6E
:10BA000007B05DF804FB00BF08DF0F0808B5024867
:10BA100084F0C3FD08BD00BF60480120024A03490D
:10BA20000348C5F032B800BF70280220C5050908D8
:10BA30006048012030B59BB0044615460A494822AB
:10BA400008A8C5F0EFFF094B0E2204930E230593BF
:10BA5000A36906490193092303A8009308AB039542
:10BA600093F0E0F91BB030BD18E00F08A8DF0F0815
:10BA7000044B00F114025968914204BF00225A603D
:10BA800093F064BAC8BF002030B5C36804468FB0D5
:10BA900013B303211D20114A9DF01AFDE368002510
:10BAA000DB680AA91C680E4B02A8089307AB099330
:10BAB0002823CDE90A5301230C9302232246ADF833
:10BAC0003430009508AB0CF0D9F8236820469B6809
:10BAD000ADF828500A9998470FB030BDF04C0E08C9
:10BAE0009CDF0F0830B5C36804460D468FB0D3B154
