S02B00002F55736572732F73757072617461702F73696C6162732D73746173682F6D61747465725F6578746526
S3150800600008120020093B0408F12F0C08F9E30008E0
S31508006010F1800D0821E4000835E4000849E4000889
S31508006020F12F0C08F12F0C08F12F0C08ADFF0E0804
S315080060305DE400087041110851FF0E08353D0F0850
S3150800604081370408F12F0C08F12F0C08F12F0C08E2
S31508006050F12F0C08F12F0C08F12F0C08F12F0C0862
S31508006060F12F0C08F12F0C08F12F0C080DE8000889
S31508006070F12F0C08F12F0C08F12F0C08F12F0C0842
S31508006080F12F0C08F12F0C08F12F0C08F12F0C0832
S31508006090F12F0C08CD840608F12F0C08F12F0C08F7
S315080060A0F12F0C08B981060899810608F12F0C080A
S315080060B0F12F0C08E5ED0908B9F60908A3F50E084D
S315080060C09FF50E082DEE0908B9F50E08A7F50E0876
S315080060D089F60908ABF50E08F9F6090861F7090803
S315080060E0F12F0C08F12F0C0855E50008F12F0C08C4
S315080060F087760D08F12F0C08F12F0C08F12F0C08E4
S31508006100F12F0C08F12F0C08F12F0C08F12F0C08B1
S31508006110F12F0C08F12F0C08F12F0C08F12F0C08A1
S31508006120F12F0C08F12F0C08F12F0C08F12F0C0891
S31508006130F12F0C08F12F0C08F12F0C08F12F0C0881
S31508006140F12F0C08CD580708F12F0C08094D0F0838
S31508006150E5D70908F12F0C0883F50E0889F50E080E
S31508006160F12F0C08F12F0C08F12F0C08F12F0C0851
S31508006180F0B5114A114C124E00F00105E3695F079C
S3150800619013D40DB9334213D103EA00078F4207D14E
S315080061A00B4A1A40002A14BF6FF001000020F0BD08
S315080061B0013AEBD16FF00200F9E74FF0FF30F6E74E
S315080061C06FF00100F3E700BF8096980000000350C7
S315080061D00200010070B50B4BD96911F480310DD15D
S315080061E001244FF48072084E084DF46020462C6452
S315080061F01A61FFF7C5FF3464EC6070BD6FF00100EB
S31508006200FBE700BF000003500010035000200350B6
S315080062104FF4803238B50E4B0E4C9A66E56941F656
S31508006220713315400122E3630B4B0021DA60022328
S31508006230606121202361FFF7A3FF10B92120FFF732
S315080062409FFF0122054BDA600DB10023E36338BDD9
S315080062500090005000000350001003500020035027
S3150800626070B5134C6061E3695B071ED40E4656F899
S31508006270043B8D18A361AE420BD1042300212120D3
S315080062802361FFF77DFF58B9BDE870402120FFF76D
S3150800629077BF08210846FFF773FF10B1042323616F
S315080062A070BD56F8043BA361E5E74FF0FF30F7E70A
S315080062B0000003502DE9F84316464FF48032184B78
S315080062C089469A6603F51C33DA69074602F480386C
S315080062D041F67132DA63012203F58053114DDA6013
S315080062E066B930460122104BDA60B8F1000F03D0C8
S315080062F00022A3F50053DA63BDE8F88307F50054D6
S315080063002C40E41BB44228BF344649462246384648
S31508006310FFF7A6FF0028E5D12744A144361BDFE78F
S315080063200090005000E0FFFF00200350000000002E
S31508006330000000000000000000000000000000004F
S31508006340013800D0FCE770472DE9F04F2DED028BA0
S315080063501C4613690546052BD7B00BD8013B01220D
S315080063600026042B23D8DFE813F041001C01230183
S31508006370320145014FF6FC72934212D04FF6FD7278
S3150800638093424FF0010340F0378102200021CDE906
S31508006390400184F84430204640A99CF08BFC2860D4
S315080063A0D7E000230022CDE940230123F1E7CB699A
S315080063B0204684F844202E939BF0D7FF0028EED180
S315080063C041A84094B3F0F5FF40A92EA8A0F016FE08
S315080063D0064620469CF00EF83046002EDFD14FF6D2
S315080063E0FF7384F84C60A4F84A30D8E7D1F81CA0AB
S315080063F0204684F844209BF0B8FF0746002840F062
S31508006400A78015A81494B3F0D4FF51460CA89FF0A2
S31508006410B6F90523B8469FED7A8B0DF14009C9E90F
S3150800642000A7C9E9023349460CA8A0F072FD002866
S3150800643000F084800CA8A0F052FD8DED248B8DED24
S31508006440268B90F88160CDE92888CDE92088ADF8BB
S3150800645088808DF8A8808DF8B460D0E90023CDE94E
S315080064602623B0F8823000F1600BADF88830D0E909
S31508006470022320215846CDE924237FF035FC624BC0
S315080064803146CDE928B02EAA50462E93AEF04FFCE1
S315080064900146002851D12FAB20934123219340ABCD
S315080064A0049355230DF1100B31465A465046059371
S315080064B0AEF0C9FD014600283FD1059BB3B19BE864
S315080064C00300012607AB0DF1280B83E803001946E4
S315080064D058468DF818608DF82460A0F085FD9BE875
S315080064E003002BAB83E803008DF8A8609DF8B43051
S315080064F0002B50D0149E96F8452096F808B00AB19D
S315080065005B454AD1304615A99BF09BFF002844D02D
S3150800651096F84630316823B3096C4FF4807200232D
S31508006520CDF800B020A8DBF039FF0146304615AAA1
S3150800653003919BF09FFF039979B30F4620469BF082
S3150800654059FF2FB94FF6FF7384F84C70A4F84A30F8
S315080065502F6000232B71284657B0BDEC028BBDE88F
S31508006560F08F336C06F1280209A89BF0B8FE0146A5
S315080065700028DBD133680222196C20A80023CDF845
S3150800658000B0DBF00BFF01460028CFD1316809A81F
S315080065909BF0DDFEC9E77121CFE70CA8A0F08CFCC3
S315080065A041E70520002184F84420CDE94001F2E6C0
S315080065B0CB6993F88233CDE940360123204684F827
S315080065C0443040A99CF076FB2E712860C3E7CB695E
S315080065D0204684F844202E939BF0C7FE00287FF4BB
S315080065E0DEAE41A84094B3F0E4FE40A92EA8A0F080
S315080065F006FEEDE6237ADEE78622C0E90023AAE74F
S315080066000000000000000000402F110800000000F4
S315080066102DE9F04F2DED028B4FF0000A4FF0000BDD
S315080066201F464FF6FF740023CDB0CDE930ABCDE958
S3150800663032ABCDE936ABDFF89CA205460E4690464E
S31508006640CDE90E338DF8D0303593CDF8E0A04A94D5
S3150800665072B1044600F534794C4501D10B240CE09F
S3150800666020469CF009F9002800F01B819034F3E7D6
S31508006670AEF0EDFA814630B9AC2420464DB0BDECFB
S31508006680028BBDE8F08F05F5347420469AF0BAFC03
S31508006690B9F882308DF8D060ADF8283199ED028BC3
S315080066A009F16009202148467FF01EFBCDE90E90CE
S315080066B0834B0DF12C0910930023CDF878A048469A
S315080066C01193C9F800300D930C93A1F0BAFE4FF45C
S315080066D0C8702DF0BDFB0DF1300AC9F8000050B99D
S315080066E00B240DA8A1F0ADFE0CA8A1F0AAFE0BA8DC
S315080066F0A1F0A7FEC1E709905046A1F0A2FE4FF40B
S31508006700C8702DF0A5FB8346CAF800000028E7D01C
S315080067100DA8A1F096FE4FF4C8702DF099FB0D90C8
S315080067200028DDD0099B314612934FF4C87312AA8C
S31508006730CDE915302846CDE9133B1793AEF0E7FAB5
S3150800674008B10446CDE73146284614AAAEF0C1FA88
S315080067500028F6D13146284616AAAEF097FA002840
S31508006760EFD112A918A8A0F03FFC14A91AA8A0F006
S315080067703BFC16A91CA8A0F037FC38AB079332AB34
S31508006780059336AB049330AB0DF1780B039310AB3E
S315080067908DED008BCDF818B002931CAA1AA918A87B
S315080067A023F018F80028CCD10DA8A1F04AFE5046CF
S315080067B0A1F047FE4846A1F044FE9FB9D5F8640308
S315080067C0002862D003689B6898470246D5F8640398
S315080067D00368002A52D05A4631465B69984780B109
S315080067E004464AE73B6838465B6998475946AEF01F
S315080067F059FD08B9C52440E79DF8603135978DF8ED
S315080068002A319DF868312046B3FA83F330A95B092B
S315080068108DF82B31AEF0EDFC0028E1D120460EA90B
S31508006820AEF0C2F994F88130B8F1000F2FD00221EA
S315080068301120244AB5F088F8D4E900122369CDE975
S31508006840012100930221112063691F4AB5F07CF8E3
S31508006850119905F55D7026F0AFFF034620B10121B9
S3150800686011201A4AB5F070F8B8F1000F04D095F85F
S315080068708233013385F882330024FEE63146DB682D
S3150800688098470028BDD11024F7E60324F5E6D4E995
S3150800689000121120CDE9002102210D4AB5F054F865
S315080068A0D6E7BDF864319FED048BADF828318DF835
S315080068B0D060FDE6AFF30080000000000000000095
S315080068C0A81D11087BCE0F089BCE0F0813CF0F0803
S315080068D0DECE0F08402F11082DE9F0478AB00DF1DA
S315080068E00D0301931523064600934FF48072002387
S315080068F008460C46B3F0D5FEE8B996F8963001225C
S31508006900009320460023B3F053FEA0B996F89730BB
S315080069100222009320460023B3F04AFE58B90DF12F
S315080069200E03019316230322009320460023B3F097
S31508006930B8FE054610B10AB0BDE8F0874FF0100959
S3150800694006F1C8070DF118081022002140467EF00E
S31508006950C1FE0DF10F03019315234FF480720093C6
S3150800696020460023B3F09DFE0028E4D196F8972030
S31508006970EBB29A4251D917ED0C7BC44637F828ACCE
S31508006980A7F12603A7F1160E624618685968083358
S3150800699003C273459446F7D18DED007B042200238C
S315080069A02046B3F0E0FD0028C5D105220023204685
S315080069B0CDF800A0B3F0FCFD0028BCD140464946FE
S315080069C006228DE8030000232046CDE90489B3F0AA
S315080069D03BFF0028AFD120469DF90F10B3F096FE75
S315080069E0013530370028A6D1032DADD120469DF9B3
S315080069F00E10B3F08BFE00289DD1B6F88E30072214
S31508006A00009320460023B3F0D3FD002893D12046F7
S31508006A109DF90D10B3F07AFE8DE782469FED027B55
S31508006A20BAE700BFAFF300800000000000000000D6
S31508006A30A0F1840050E700BF2DE9F04F2DED028B41
S31508006A4006460C469FED508B4569DFF8488199B09C
S31508006A5006F110039D4207D1304619B0BDEC028BF2
S31508006A60BDE8F04F28F086BBD5E91102D4E9281312
S31508006A709A4208BF88426F68019565D1D5E9130225
S31508006A80D4E92A139A4208BF88425DD14FF000091B
S31508006A900DF1300A0021102250467EF01BFE14A884
S31508006AA0CDF844908DED128BCDF84080B5F09CFD65
S31508006AB0ADF85C908DF85E90A146B4F8583009A8F8
S31508006AC0ADF8423059F8883B1193B5F08DFD99E839
S31508006AD0030007AB83E8030094F88C30B3B384460D
S31508006AE0D4E9240105AB83E8030094F8943083B312
S31508006AF00246D4F89830CDE914C2049313F47F0FF4
S31508006B00CDE9023314BFBDF81030BDF82C30ADF80E
S31508006B10583094F883308DF85D3094F884308DF8C9
S31508006B205C3094F886301BB194F885308DF85E3069
S31508006B304FF0000B043D04F1080963685B450AD869
S31508006B40304601A928F0D4FA3D4681E7DDF824C08D
S31508006B50C6E70A9ACDE7484627F0F0FF48B901216B
S31508006B6022200B4AB4F0F0FE0BF1010B09F11009D3
S31508006B70E3E799E80F008AE80F005146284628F00F
S31508006B8085FAF1E7AFF3008000000000000000007E
S31508006B90E3D60F080100A415054B18680368D969E0
S31508006BA001A3D3E90023084700E0373B015D030052
S31508006BB01C2C02200000000073B5BCF0CDFF044673
S31508006BC000286ED13A4B01AE1A889B78ADF804209E
S31508006BD0B3703EF03FF83EF0BBFD3EF019FD0546AA
S31508006BE0344B03603EF0B4FF28463EF0BDFE00B9C4
S31508006BF0FEE72DA3D3E900234FF0FF314FF0FF3016
S31508006C003EF030F83EF008FD21463EF061FDBCF04E
S31508006C10A6FF30463EF06AFE044600B1FEE7264B64
S31508006C20264A98801860264B98801A60254B264A73
S31508006C3018631A60254A98806FF06300DA603FF09F
S31508006C40E5FE0B203EF036FD3EF094FD3EF0DAFC04
S31508006C5000B9FEE766F056FE2046BDF030F9082179
S31508006C600846BDF033F900B1FEE7BDF026F93EF05F
S31508006C701FFCBDF070F810211548D1F0A7FA00B92D
S31508006C80FEE714491248D1F0B3FA00B9FEE710211D
S31508006C908C20114A66F062FA00B1FEE70F4845F00B
S31508006CA0DFFD02B070BD00BF0AE020FFF20300005E
S31508006CB00C451108EF3C0C0898ED002097020220BD
S31508006CC060ED002028ED00201702022018ED0020B4
S31508006CD02895012035490F0818950120C9BE0F08C7
S31508006CE02DE9F04389B0BCF028FF00B9FEE75E4DF8
S31508006CF02B6803B9FEE701229B8811460DF10B00AC
S31508006D008DF80B303EF098FD9DF80B102B68023974
S31508006D100022186889B23EF08FFD00230593079379
S31508006D20524B05AE06932B6893F834208DF8142041
S31508006D301B681C7814F0200414D0BDF0C2F8002893
S31508006D405ED0BDF0BEF87AF023FF0B46024642A19C
S31508006D50D1E900017BF0C0F87BF02EFA079B1844B6
S31508006D60012407903EF0ACFD9DF80B300633002851
S31508006D7049D0D8007AF01CFF39A3D3E900237AF06A
S31508006D8081FF894680463EF09BFD7AF001FF0B465F
S31508006D900246494640467BF09FF87BF00DFA079B72
S31508006DA018440790BCF0D0FE38B13EF0EFFC002046
S31508006DB0BCF0C6FE0020BCF0CAFE2A6853696BBB4D
S31508006DC0BCF0DEFED5F800C008B3079B284F03F5D4
S31508006DD0FA7307939CF81830BB703EF0D1FCF87034
S31508006DE0286833463A46214680793EF007FD68B35F
S31508006DF04FF480510020EDF0B4FDBDF08FF925E089
S31508006E000798C030ACE7079800EB4310C9E732464D
S31508006E1021469CF806003EF0E7FCE8E7962115486F
S31508006E20818011690B441449A3F59B730B600021FB
S31508006E30CDE90331214690790E4B009603AA3EF020
S31508006E40EBFC0028D4D10120BCF0A5FE09B0BDE8B2
S31508006E50F08300BFAFF300800000000060E36641E6
S31508006E600000000080842E411495012020A107000F
S31508006E70CC2C0220C02C0220109501200000000016
S31508006E802DE9F3411E461C4B044683424FF000038E
S31508006E908B4115460AD216A3D3E900237BF0FCF9E9
S31508006EA01649144602462846C1F05BF8144B4EF6BE
S31508006EB06021B4FBF3F203FB1244B4FBF1F34FF485
S31508006EC07A7801FB1344B4FBF8F728460D49009776
S31508006ED0C1F047F846B1284608FB17420A4902B0EE
S31508006EE0BDE8F041C1F03DB802B0BDE8F08100BF91
S31508006EF0005C260500000000FF5B2605CC74100820
S31508006F0080EE3600F7CF0F08D27410080000000094
S31508006F102DE9F04FDBB01C46824606910DF1A80814
S31508006F2008920E937FF074F90368184616937FF05B
S31508006F30DFFC08221590002140467EF0CBFBBAF113
S31508006F40000F04D0DAF83430002B01F0FE81069BDE
S31508006F505A6EB3F90C30D00740F13881990400F124
S31508006F60478743F40053069922F400528B811BB2DB
S31508006F704A661D0740F1BC80069A1269002A00F08D
S31508006F80B78003F01A020A2A00F0C1800023CDF860
S31508006F9010A09E46CDE92F3331ABCDF85CE0CDF895
S31508006FA060E01C462E93CDF824E0CDF844E09FED32
S31508006FB0927BCDE919EE8DED127B089E049F904BCE
S31508006FC0D3F8E4507FF01EF93246034626A9384620
S31508006FD0CDF80080A8470028034600F0B780C0F225
S31508006FE0AD80269A252A01D01E44E8E7089B054667
S31508006FF0F71A40F0AF8000234FF0FF32751C96F861
S3150800700001908DF88F300A93079203930135A9F101
S3150800701020035A2B00F2F680DFE813F09704F400F9
S31508007020F4008F04F400F400F4006D04F400F40096
S3150800703052036403F4005D03AB04F400A3045B008D
S315080070405B005B005B005B005B005B005B005B005A
S31508007050F400F400F400F400F400F400F400650110
S31508007060F40096021604650165016501F400F40052
S31508007070F400F4000E04F400F400D703F400F4005E
S31508007080F400BE02F4004F04F400F4009A08F40079
S31508007090F400F400F400F400F400F400F4006501D0
S315080070A0F4009602BC016501650165014304BC0153
S315080070B0B501F4003704F400C70396036A03B50163
S315080070C0F400BE02B2010703F400F400C808F40095
S315080070D0B201A9F13003002202EB820215F8019BE6
S315080070E003EB4202A9F13003092BF5D90A928EE780
S315080070F0069D504629467EF0C1F9002841F0D687FC
S31508007100B5F90C3003F01A020A2A7FF43FAF069944
S31508007110B1F90E20002AFFF639AF4A6ED20702D41B
S315080071209F0541F168832346089A069950467CF0E4
S315080071306FFB099009985BB0BDE8F08F0822002123
S3150800714040467EF0C7FA01231E4438E7089B0546E9
S31508007150F71A11D0089B2F9AC4E900370132309BE1
S31508007160072A3B442F92309312DC0834099B3B4490
S315080071700993002D7FF43FAF309BDDF810A0002B5C
S3150800718041F02F830022069B2F92B3F90C3011E0B1
S315080071902EAA069904987DF0E3FD40B931ACE5E7DF
S315080071A0DA460B9B1BB10B995046D0F0DFFE069BC7
S315080071B0B3F90C30069A526ED40740F1D7805A06B6
S315080071C000F12F8209985BB0BDE8F08F9F0540F16A
S315080071D018829E047FF5C5AE95047FF5CAAE069B58
S315080071E09B899E0500F11D82069B986D7FF0C8FA63
S315080071F017E200BFAFF300800000000000000000A7
S31508007200CC2E02200895B9F1000FB5D00023012233
S3150800721041AF8DF804918DF88F300B930C9207933C
S3150800722014930592CDE90F33039B309D13F0840325
S31508007230AE4600F0E9809DF88F20EAB12F98002627
S31508007240013001220135626007280DF18F02CDE970
S315080072502F05226000F35F8408346EB12F98013041
S3150800726024AA0235226007284FF00202CDE92F052D
S31508007270626000F35D840834802B00F09783079BD7
S315080072800C9A9E1A002E00F3D080039BDB0500F1B2
S3150800729004810C9B27601D4463602F9B3095013346
S315080072A0072B2F9300F3E5830834039B5E0705D568
S315080072B00A9B059A9E1A002E00F348840599DDE973
S315080072C009328A42ACBF9B185B180993002D40F01F
S315080072D0AA8300232F930B9B1BB10B990498D0F01C
S315080072E045FE31AC69E60E9B4FF0FF320895073331
S315080072F023F00701A34BB1EC027B57EC176B0E91F9
S3150800730027F000418DED1C7A1D91DDE91CAB8DED52
S31508007310127B5046594698F009FF002840F014861B
S315080073204FF0FF32974B504659467AF027FF0546ED
S31508007330002840F00986039B00223046394623F090
S315080073408003039300237AF00FFF002841F0C383DC
S31508007350B9F1470F9DF88F30CCBF8B4F8B4F002B61
S3150800736041F0668503220B930C9258E799053FF581
S3150800737026AF069CA06D7FF003FAB4F90C301EE721
S3150800738095F8009042E6039B95F8009043F0200399
S3150800739003933BE603990895880640F1B2850E9B50
S315080073A00391073323F007031A465B6852F8085B14
S315080073B01E460E92002BC0F25982079A002AC0F286
S315080073C04981039B23F08003039355EA060340F0A3
S315080073D04181131E18BF0123002A40F03B811A463B
S315080073E00B939DF88F305AAF309D191E039BAE46FE
S315080073F0079218BF012113F084030C920591149289
S31508007400CDE90F227FF417AF0A9A0599561A002E6E
S3150800741000F3B8849DF88F20002A7FF40FAF079BEE
S315080074200C9A9E1A002E7FF730AF102E2F9ADFF88F
S3150800743060A123DD29461023DDF810B0069D02E081
S31508007440103E102E19DD013210315148072AC4E9C1
S315080074500003CDE92F2104F10804F1DD2EAA2946FF
S31508007460584631AC7DF07CFC00287FF499AE103E7E
S315080074701023102EDDE92F21E5DC0D4601323544B7
S31508007480C4F800A0072A6660CDE92F2500F3A48476
S31508007490039B0834DB057FF5FCAEB9F1650F40F3B5
S315080074A0F28200220023DDE912017AF053FE002859
S315080074B000F08D832F9B0135364A013330952260C3
S315080074C00122072B2F93626000F35E870834259B01
S315080074D0119A934280F29084159B169A1D44C4E92A
S315080074E000232F9B30950133072B2F9300F38F86AC
S315080074F00834119B5E1E002E7FF7D7AE102E2F9BE9
S31508007500DFF88CA040F3AB821027DDF81090DDF889
S3150800751018B003E0103E102E40F3A1820133103557
S31508007520072BC4E900A7CDE92F3504F10804F1DDDE
S315080075302EAA594648467DF013FC002840F00287DB
S3150800754031ACDDE92F35E5E70E9BB9F1430F089518
S3150800755003F1040500F08786039BDE0600F18386A7
S315080075600E9B41AF1B688DF80431012305930C93DC
S3150800757000230E958DF88F300B9307931493CDE95E
S315080075800F3351E6FFFFEF7F808E11087C8E1108BE
S31508007590B4A21108BC8E11080E9E0023089556F851
S315080075A0047B8DF88F30002F00F04D86B9F1530F0C
S315080075B000F0F686039B13F010030F9340F0F08655
S315080075C0079B002BC1F2FF801A460F9938467FF0B9
S315080075D0D9F89DF88F300B90002801F0FF830B9A9D
S315080075E0D21B0C9222EAE27205920BB10132059285
S315080075F00F9B4FF073090E960793149310930B93F2
S3150800760012E6069DA86D7FF0B9F8B5F90C306A6EDA
S3150800761098047FF5A6AC91047FF5ABACD7077FF548
S31508007620DEAD4FF0FF330993CCE5039908958F0635
S3150800763040F147840E9B002207338DF88F2023F0F4
S3150800764007035E6853F8085B0E93079B934280F224
S31508007650D98303910A2D76F1000380F0FE86079BF5
S3150800766030359DF88FC00DF26717012B8DF86751DD
S31508007670B8BF0123059300230F9301230C9300231E
S315080076800B93BCF1000F02D0059B013305930F9BAA
S31508007690002B01F07C85059B02330593039BDDE9EE
S315080076A02F0513F08403AE46024600F0C881BCF1EC
S315080076B0000F40F08582CDF850C0CDE90FCCCEE55D
S315080076C00E9B53F8042B002A0A9280F2A6830A9A84
S315080076D00E9352420A92039B95F8009043F00403D6
S315080076E0039393E42B2395F800908DF88F308DE45F
S315080076F000220E99089547F63003079D51F8040BAA
S315080077009542ADF890308DF88F200346C0F251852A
S31508007710039D25F0800545F002050395002840F0F5
S3150800772010870798002840F00C874FF078090E91CB
S31508007730039A00239DF88FC05AAF02F00202059300
S315080077400C930F9207939AE703980895810640F1E0
S31508007750A7830E9B073323F007031A46596852F886
S31508007760083B0E9200228DF88F20079A002A3EDBEE
S3150800777020F490620392079A002A3BD153EA010249
S3150800778014BF0122002235D110F00101059100F045
S31508007790498330230DF2671707928DF867310C91EC
S315080077A00B921492CDE90F223EE5039A0E9B9206A0
S315080077B0089503F1040140F1B6831B68099A1A601B
S315080077C0D2175A600E91FFF7F8BB039B08959D06E2
S315080077D043F01000BDD40E9B1A1D0E9B00210E927D
S315080077E000221B688DF88F20079A002AC0DA20F439
S315080077F0806203925AAF03F00702DB08384643EA71
S3150800780041733032C90807F8012D53EA0105F2D150
S31508007810302A03D0039BDD0700F18B845AAB079A05
S31508007820DB1B9A420C93B8BF1A46059200230B93AA
S315080078301493CDE90F33F7E4039B95F8009043F0D2
S3150800784008030393FFF7E2BB039B08959D0643F0E5
S3150800785010013FF5A4AD0E9B1A1D0E9B03911D68E2
S315080078600E92EE173346002BBFF6A7AD2D236D42B9
S315080078708DF88F3066EB4606079B002BFFF6EAAEBF
S31508007880039B23F080030393E4E695F80090039B9B
S31508007890B9F16C0F00F0C78443F010030393FFF7A8
S315080078A0B5BB95F80090039BB9F1680F00F0C38447
S315080078B043F040030393FFF7A9BB039B089543F0E6
S315080078C010019B063FF5B6AE0E9B1A1D00260E9BB1
S315080078D007981B68B0428DF88F601D46C1F2F88084
S315080078E021F080010E920391002B7FF4B3AE00289D
S315080078F03FF41EAFAEE6049F38467EF089FC436827
S31508007900184618937EF0F4FF1A90064638467EF01D
S315080079107FFC836895F800901993002E3FF476ABA8
S31508007920002B3FF473AB1B78002B3FF46FAB039B24
S3150800793043F480630393FFF769BB039B95F80090B4
S3150800794043F001030393FFF761BB9DF88F3095F869
S315080079500090002B7FF45AAB20238DF88F30FFF769
S3150800796055BB039B95F8009043F080030393FFF7FC
S315080079704DBB294611F8019BB9F12A0F01F0B483D2
S31508007980A9F13003092B01F28481002202EB82025D
S3150800799011F8019B03EB4202A9F13003092BF5D933
S315080079A042EAE2730D460793FFF731BB0A9B059A35
S315080079B09E1A002E7FF763AC102E2F9ADFF83CA68E
S315080079C025DD294610235546DDF818B0DDF810A048
S315080079D002E0103E102E18DD01321031072AC4E9E4
S315080079E00053CDE92F2104F10804F2DD2EAA5946E9
S315080079F050467DF0B5F900287FF4D3AB103E31AC84
S31508007A001023102EDDE92F21E6DCAA460D460132A9
S31508007A103544C4F800A0072A6660CDE92F2500F38F
S31508007A20EA8308342BE42EAA069904987DF098F97F
S31508007A3000283FF44EACDDF810A0FFF7B2BB0A9E53
S31508007A4005991493761A002ECDE90F3300F3538166
S31508007A50BCF1000F3FF403AC0226FFF7F1BB01337C
S31508007A603544C4F800A0072B6660CDE92F357FF7AB
S31508007A701BAC2EAA069904987DF072F90028DAD173
S31508007A80309D31AC11E4119B01352F9E04F1080994
S31508007A90012B06F1010640F315810123072E276005
S31508007AA06360CDE92F6500F31384159B0136169A9A
S31508007AB01D44072EC9E90023CDE92F6500F3FA8393
S31508007AC009F10809119B00225C1E0023DDE9120159
S31508007AD07AF040FB002840F05781013601372544EB
S31508007AE0C9F80440072EC9F80070CDE92F6500F3E0
S31508007AF0F58009F10809179B01361D44C9F80430B9
S31508007B00072E28ABCDE92F65C9F80030B1DC09F19D
S31508007B100804FFF7CABB2EAA069904981B937DF0A2
S31508007B201FF9002887D1309D31AC1B9BFFF795BB09
S31508007B302EAA069904981B937DF012F900287FF463
S31508007B407AAF309D31AC1B9BFFF796BB102E2F9B4F
S31508007B50DFF8ACA420DD1027DDF81090DDF818B0AA
S31508007B6002E0103E102E17DD01331035072BC4E94D
S31508007B7000A7CDE92F3504F10804F2DD2EAA5946EF
S31508007B8048467DF0EDF8002840F0DC83103E31AC25
S31508007B90102EDDE92F35E7DC01333544072BC4E920
S31508007BA000A6CDE92F357FF789AB2EAA069904984A
S31508007BB07DF0D6F800287FF43EAF309DFFF77EBBF8
S31508007BC0002202261492CDE90F22FFF739BB259928
S31508007BD0002940F331810F9B119A9342A8BF13469F
S31508007BE0002B99460ADD1D44C4E900732F9B309586
S31508007BF00133072B2F9300F39E8708340F9EB9F1A4
S31508007C00000FA8BFA6EB0906002E00F3B184039A5D
S31508007C100F9B50053B4400F1AB86259E119A964270
S31508007C2003DB0399C90740F1AD85159A16991544E2
S31508007C30C4E900122F9A30950132072A2F9201F3D0
S31508007C4003800834119A1744961BFF1AB742A8BF37
S31508007C503746002F0ADD23603D442F9B67600133BA
S31508007C603095072B2F9301F31F800834002FA8BFE8
S31508007C70F61B002E7FF719AB102E2F9BDFF87CA37F
S31508007C807FF7EDAE1027DDF81090DDF818B003E0A9
S31508007C90103E102E7FF7E3AE01331035072BC4E9EB
S31508007CA000A7CDE92F3504F10804F1DD2EAA5946BF
S31508007CB048467DF055F8002840F0448331ACDDE9AC
S31508007CC02F35E5E7039BDB073FF5E7AE0123072ED4
S31508007CD027606360CDE92F657FF70DAF2EAA069959
S31508007CE004987DF03DF800287FF4A5AE0DF1C4098F
S31508007CF0DDE92F65FFE60223102E7146DFF800A3A3
S31508007D002ADD1B935346A446BA461025DDF810B063
S31508007D10069C1F4602E0103E102E18DD0132103177
S31508007D20072ACCE90075CDE92F210CF1080CF2DD04
S31508007D302EAA214658467DF013F80DF1C40C0028EA
S31508007D407FF42EAA103E102EDDE92F21E6DC3846F8
S31508007D50644657461B9B8246501C7518C4F800A0FB
S31508007D6007286660CDE92F0500F3D6829DF88F2097
S31508007D700834002A40F09080002B3FF480AA13466E
S31508007D80FFF76DBA2F9AB7E7119B012B7FF7B3AEB2
S31508007D90112BDFF868A240F3DE831027DDF810B058
S31508007DA003E0103C102C40F3D68301361035072E1D
S31508007DB0C9E900A7CDE92F6509F10809F1DD2EAA61
S31508007DC0069958467CF0CCFF00287FF4E9A90DF106
S31508007DD0C409DDE92F65E4E72EAA069904987CF024
S31508007DE0BFFF00287FF427AE309D31ACFFF74DBAB0
S31508007DF092047FF5BEA814E4039BDF077FF555AA16
S31508007E00FFF76ABB21F080020392002B7FF422ACB5
S31508007E1055EA06033FF48CAC1CE495F800900E93E3
S31508007E20FFF7F4B8059A5AAF07920C9214920B9280
S31508007E30CDE90F22FFF7F8B92F9B01356C4A0133BC
S31508007E40309522600122072B2F93626000F3578634
S31508007E500834119B0B4300F0E486159B169A1D44C3
S31508007E60C4E900232F9B30950133072B2F9300F38A
S31508007E707D8604F108020029C0F22F871199013383
S31508007E8017600D44072B5160CDE92F353FF7F1AD4B
S31508007E9002F10804FFF709BA1E460023FFF7D0B916
S31508007EA003990E9A11F0100152F8043B41F04681ED
S31508007EB0039D15F0400000F095839BB228460E926C
S31508007EC050E403990E9A11F0100652F8043B7FF419
S31508007ED0FDAC039810F0400100F08F839DB2079B1C
S31508007EE08DF88F60002BC0F2678420F080010E9217
S31508007EF00391002B7FF4AEAB002D3FF419ACFFF7CE
S31508007F00A9BB039B0E9AD90652F8045B01F11981A5
S31508007F10039B5B0640F18A8345F3C0360E922DB269
S31508007F203346FFF747BA039BDB0600F10E83039B34
S31508007F305F0600F13384039B9E0540F106830E9B82
S31508007F40099A1B681A703DE4DDE9120102460B46E0
S31508007F5098F0ECF80646002840F0748729F0200BC4
S31508007F60BBF1410F40F06D833023B9F1610F8DF8F5
S31508007F70903014BF582378238DF89130079B632BD4
S31508007F8000F34484DDE91212002AC0F2028741AFE9
S31508007F901B900B909DED127B8DED207B25A89DED0A
S31508007FA0200B7EF047FD00224FF07F5351EC100B5B
S31508007FB079F068FE02460B46CDE90C230022002321
S31508007FC07AF0C8F808B101232593B9F1610FCDF805
S31508007FD03C903E46BB460CBF064B074B0593079B9A
S31508007FE0DDF814A0591E07948946DDE90C4513E00F
S31508007FF0BC8E11088C8E1108A08E1108B4A2110827
S31508008000C4A211080022002309F1FF377AF0A2F86A
S31508008010002840F07887B9460022B44B2046294606
S3150800802079F030FE0D46044698F096F8074679F042
S31508008030BFFD02460B462046294679F06BFC1AF826
S315080080400730B9F1FF3F324604460D4606F8013BB4
S31508008050D8D19246A64B0022DDF83C90CDE90C45D6
S315080080603D46079C5F467AF09DF840B90022A04B32
S31508008070DDE90C017AF06EF8D8B1EB0719D5059B46
S315080080803246CDF8B0A0D97B16F8013C8B4209D10F
S31508008090302002F8010C2C9A531E2C9312F8013C3E
S315080080A08B42F6D0392B00F0EE870133DBB202F8AB
S315080080B0013C039B259A43F00201F31B119309F136
S315080080C00F038DF8A030531E002B2593C0F2B287FC
S315080080D02B22092B8DF8A12000F3F7830DF1A202BC
S315080080E0303302F8013B28ABD31A1793119B179A22
S315080080F0012B1A440C9240F347860C9B159A13449D
S315080081000C9321F4806301F0020243F480730F920A
S3150800811003930C9B23EAE37305931B9B002B00F048
S315080081202D864FF02D0C00238DF88FC00793FFF78F
S31508008130ABBA30230238079A07F8013C5AAB074610
S315080081401B1A9A420C93B8BF1A460592FFF76EBBE4
S3150800815068480895039B0E9913F0200200F09B804F
S31508008160073121F007014A6851F8083B53EA02052E
S31508008170039E14BF01250025F60702D5002D40F001
S31508008180E98000268DF88F60079E002EC0F2B88021
S31508008190039E26F490660396079E002E40F0EC8018
S315080081A0002D40F0E9800E91FFF7C2BA52480895B3
S315080081B0D0E7039894460E914FF0780940F00200F4
S315080081C0022103904C480F915AAF03F00F011B0987
S315080081D0415C43EA0273120907F8011D53EA0201DA
S315080081E0F3D15AAB079ADB1B9A420C93B8BF1A46CF
S315080081F00592FFF744BA2EAA069904987CF0B0FDBA
S3150800820000287FF418AC309D31ACFFF738B82EAA99
S31508008210069904987CF0A4FD00287FF40CAC309DE8
S3150800822031ACFFF766B943F0200395F801900135A4
S315080082300393FEF7EBBE43F4007395F801900135FE
S315080082400393FEF7E3BE079B3A460797062B0E965F
S31508008250149228BF0623CDE90F22CDE90B730593A7
S31508008260264FFEF7E1BF082200212CA841AF7DF07A
S3150800827031FA0E9A2CAB0498126839467EF066FBE2
S3150800828003460C90013300F002870C9B23EAE37344
S315080082900593FFF76DB9039D51F8043B15F01005DA
S315080082A07FF464AF039A12F0400600F093819BB204
S315080082B02A465BE72EAA069904987CF051FD002809
S315080082C07FF4B9AB0DF1C409DDE92F65FFF7FABBF9
S315080082D02EAA069904987CF043FD00287FF4ABABE0
S315080082E00DF1C409DDE92F65FFF7DFBB000030405B
S315080082F00000E03FA08E11088C8E1108B48E11087C
S31508008300039D25F4806503950E914FF0000C0399A3
S3150800831001F002010F9157E72EAA069904981B93BC
S315080083207CF01EFD00287FF486AB9DF88F20309DDB
S315080083301B9B002A00F046811E4631AC03462F9847
S31508008340FEF77EBFCA46FEF72CBF50467CF094FF68
S31508008350FEF7FDBD30258DF891908DF890500025DB
S315080083608DF88F50079D002DC0F2FB82039D25F4E2
S31508008370906545F0020503950E9103999DF88FC007
S3150800838001F002010F911FE72EAA069904987CF0C6
S31508008390E7FC00287FF44FAB309D31ACFFF797B868
S315080083A00DF1B00A08220021279750467DF092F970
S315080083B0079B002BC0F27D83002505940B969B46F0
S315080083C02C46049E0EE041A930467EF0BFFA421CB8
S315080083D005F10405204400F0E684584507DC00F062
S315080083E0F7840446279A53465259002AEBD10C942F
S315080083F00B9E059C0C9B002B00F08E83632B40F391
S315080084008E84591C0498CFF0AEFD0746002800F06C
S31508008410B5860B900822002150467DF05BF90C9D2D
S3150800842027AA39462B460498CDF800A07EF0B4FA60
S31508008430854240F09B860C9900237B5421EAE17122
S315080084409DF88F200591002A40F03D8407920E96EC
S315080084501492CDE90F22FEF7E7BE039B002205948E
S315080084605AA903F48063CDF82C90DFF898B39646A2
S315080084701C46DDF8649023E0AB19AA463046394617
S3150800848043F10003ABFB032C2CF0030202EB9C0226
S315080084909B1A4FF0CC32EB1A66F1000602FB03F288
S315080084A0BAF10A0FA3FB0B530BFB06224FEA55053D
S315080084B070F10000134445EAC3754FEA53062BD3FF
S315080084C0AB190EF1010E01F1FF3743F10003ABFBC7
S315080084D0032020F0030202EB90029B1AEB1AA3FB7F
S315080084E00B3266F100005B080BFB002243EAC273FD
S315080084F003EB8303A5EB4303303301F8013C002C5F
S31508008500BAD099F80030FF2BB6D07345B4D10A2DEE
S3150800851076F1000380F03B8300225AAB059CDB1BF7
S315080085200F92079ACDF864909A42DDF82C909DF840
S315080085308FC0B8BF1A46CDF844E00C930592FFF7F2
S315080085409EB8AF484FF0780916E70E9B099A1B6844
S315080085501A60FFF737B901362544C9F800A0072E77
S31508008560C9F80440CDE92F657FF7C3AAFFF7B6BB64
S31508008570102E2F9BDFF890A240F3F58051462A462D
S31508008580BA464FF01009DDF810B00F46069D03E015
S31508008590103E102E40F3E38001331032072BC4E956
S315080085A00079CDE92F3204F10804F1DD2EAA294617
S315080085B058467CF0D5FB00287EF4F2AD31ACDDE9F7
S315080085C02F32E5E7002B00F0DA8013462F9831ACFE
S315080085D0FEF745BE039A12F400723FF4C7ADDBB24C
S315080085E03246C3E5039D15F4007100F0E8800146A4
S315080085F0DBB228460E92FFF7B5B8039810F400765A
S3150800860040F0D28007991D468DF88F600029C0F288
S31508008610D38003980E9220F080000390002B7FF4FD
S3150800862019A800293FF484A8FFF714B8039B0E92F3
S315080086309F0540F1AF8045F3C0166DB23346FEF78D
S31508008640B9BE079A039B551C43F4807ADDE91201EB
S315080086500B4600F0F0801AB9BBF1470F00F0A28470
S31508008660002BC0F2888400239DED127B1B938DEDB1
S315080086701E7BB9F1650F00F0F68200F3F380B9F1BD
S31508008680450F00F0F082B9F1460F40F0EF80079BE6
S31508008690032111932CAB119D0498019327AB2A460D
S315080086A0009325AB9DED1E0B00F086FDBBF1460F32
S315080086B00746054440F04B843B78302B00F037845E
S315080086C0259B1D4400220023DDE91E0179F042FDA9
S315080086D0002840F0B2832C9B9D4240F267853021EA
S315080086E05A1C2C9219702C9BAB42F9D3259ADB1B8A
S315080086F0BBF1470F0F92119300F0CE80BBF1460FE6
S3150800870040F0D280039B0F9903F00103079A0029D2
S3150800871043EA020340F3F484002B40F081830F9B65
S315080087204FF066090C93039B5B0500F1B6830C9B1F
S3150800873023EAE37305931B9B002B00F09982059BA4
S31508008740CDF80CA00133059300231A460B932D236D
S3150800875007928DF88F3014921092FEF765BD154674
S315080087603A465746924601333544C4F800A0072BCB
S315080087706660CDE92F3569DC0834FFF748BA31ACB5
S31508008780FEF77DBD1744961BFF1AB742A8BF3746AA
S31508008790FFF76CBAEE173346FEF70CBE0E9B099A26
S315080087A01B681A80FFF70EB8DDB2079B0E468DF8D8
S315080087B08F10002BBFF699AB0E92FEF74BBF0398AE
S315080087C00E92FEF7CFBF38467EF092F89DF88F30AE
S315080087D020EAE0720C900592002B3EF409AFFEF7F2
S315080087E005BF2EAA069950467CF0BAFA00283EF430
S315080087F0C9ACFEF7DCBC886D7DF0C2FFFEF793BC02
S315080088008C8E1108CDCCCCCCB4A21108591C049876
S31508008810CFF0A9FB0746002800F03984DDE91212DB
S31508008820002AC0F2CB831B960B909DED127B8DED33
S31508008830207BFFF7B3BB0029C0F2C98306231B962A
S315080088409DED127B07938DED1E7B12E72EAA0699E6
S3150800885004987CF085FA00287FF4EDA8309D31ACA9
S31508008860FFF7D5B9B9F1660F3FF411AF2CAB079AEC
S3150800887002210498019327AB9DED1E0B009325ABAF
S3150800888000F09AFC039B0746DE0700F14D822C9BFD
S315080088901B1A1193259B0F930F9BDD1C02DB079A6E
S315080088A0934242DDA9F102090F9B8DF8A090013B86
S315080088B0002B2593C0F2A1822B22092B8DF8A1202B
S315080088C040F3A482002203990B920DF1B70CDFF84E
S315080088D0F4E46546AEFB032A1E462846013D4FEAE8
S315080088E0DA0A632E0AEB8A02A3EB4202534602F126
S315080088F0300200F8012CEDDC303305F8013C831E0C
S31508008900634580F017840DF1A10213F8015B6345F6
S3150800891002F8015FF9D103F5B47328AA6B44C43B86
S315080089201B1A9B1A1793FFF7E1BB0F9B119A9342E9
S31508008930C0F20A82039B13F0010F0F9B00F09A8284
S31508008940159A13440C93039B590503D50F9B002BCB
S3150800895000F3A1820C9B4FF0670923EAE3730593A2
S31508008960E9E6039D25F4806545F002050395CBE409
S31508008970109A14990A43119A00F0EA83B8188B469C
S31508008980224629461C46DFF844A4DDF864900346CF
S315080089901A9D1B97BBF1000F32DC109809F1FF39BD
S315080089A00138109018982944C2E900052F9830918B
S315080089B0013007282F904DDC08321F1B99F800005C
S315080089C007938742A8BF0746002F0BDD2F98394427
S315080089D00130309107282F90C2E900475ADC083247
S315080089E099F80000002FACBFC61B0646002E0ADC0D
S315080089F0044410980028CDDCBBF1000F40F3F68242
S31508008A000BF1FF3BCEE7102E2F9840F3EC820C9427
S31508008A10102734460F95069E049DCDF850A019934D
S31508008A2002E0103C102C22DD013010310728C2E983
S31508008A3000A7CDE92F0102F10802F2DD2EAA314680
S31508008A4028467CF08DF9002840F09E8031AADDE9A1
S31508008A502F01E6E72EAA0699049807937CF080F979
S31508008A6000287EF4E8AF309931AA079BA5E7264689
S31508008A700F9D0C9CDDF850C0199B01303144C2F89B
S31508008A8000C007285660CDE92F0160DC083299F846
S31508008A900000ADE72EAA069904980C937CF060F9BD
S31508008AA000287EF4C8AF99F8000031AA30990C9BCB
S31508008AB098E7002327AA04981946CDF800A07DF068
S31508008AC06BFF03460C90013300F06D83279791E402
S31508008AD00E92FEF7BEBD2D23B9F1470F8DF88F30E4
S31508008AE000F3DC8003222B46B54F0B950C9204222B
S31508008AF0079314930592CDE90F33FEF795BB2EAA7B
S31508008B00069904987CF02CF900287EF494AF2599F0
S31508008B1031AC309DFFF79DB99DF88F300E96003B1E
S31508008B2018BF012305930C9B079314930B93CDE968
S31508008B300F33FEF779BB2EAA069904987CF010F934
S31508008B4000287EF478AF309D31ACFFF757B82EAACF
S31508008B50069904980C937CF003F900287EF46BAF11
S31508008B6099F8000031AA30990C9B41E72EAA06997C
S31508008B7004987CF0F5F800287EF45DAF259931AAB3
S31508008B80DDE92F35FFF777B9AA46FEF70ABB1A9A29
S31508008B901899A7EB020A50467DF074F899F8013047
S31508008BA00BB109F10109AB19864A4FF0CC314FF0E8
S31508008BB0010E43F100030AF1FF37A2FB030C2CF068
S31508008BC0030000EB9C001B1AEB1A66F1000603FB78
S31508008BD001F1A3FB023002FB061123FA0EF301444E
S31508008BE043EAC17521FA0EF6AB1943F10003A2FB5D
S31508008BF0031020F0030101EB90015B1AEB1AA3FBAB
S31508008C00023166F1000023FA0EF302FB001243EA72
S31508008C10C27303EB8303A5EB430330330AF8013C25
S31508008C206FE4039BDE077EF540AB159B169A1D4441
S31508008C30C4E900232F9B30950133072B2F9395DC2E
S31508008C4004F10802FFF71AB92EAA069904980793A1
S31508008C507CF086F800287EF4EEAE259E31AC309D79
S31508008C60079BFEF7EFBF079B02210133119311E51E
S31508008C709DF88F30002B00F0D481059A1B9B01329A
S31508008C80CDF80CA00B930592079314931093FEF757
S31508008C90CBBA00230D460793FEF7B9B903222B4634
S31508008CA0494F0B950C9222E72EAA069904987CF058
S31508008CB057F800287EF4BFAE259E31AC119B309D37
S31508008CC09E1BFEF7D3BF059A079301320E9614939F
S31508008CD00592CDE90F33FEF7A7BA4E421031DFF8F9
S31508008CE0ECA03EDAB9461024574602E0103E102E94
S31508008CF035DD01331035072BC2E90074CDE92F3570
S31508008D0002F10802F2DD2EAA069904987CF028F8EA
S31508008D1000287EF490AE31AADDE92F35E6E7002378
S31508008D2041AF0B93FFF776BB079B0022C5180023BC
S31508008D30DDE91E0179F00EFA002840F09D802C9B93
S31508008D409D423FF6CCACD1E4119B159A9A180F9B1D
S31508008D50002B0C9240F395804FF06709E3E4BA467E
S31508008D604F4601333544C2F800A0072B5660CDE9BB
S31508008D702F3500F30A810832FFF780B81B9B9DF850
S31508008D808FC00793FEF77DBCC8077FF5BAA9FFF722
S31508008D90B4B902F1004341AF209121932D230B90E2
S31508008DA01B93FFF7FBB8B246069B0022B3F90C30BB
S31508008DB00B9243F04003069A9381FEF7F2B900BF7F
S31508008DC07C8E1108CDCCCCCC808E1108B4A21108AB
S31508008DD0079B059C0B9E0C93FFF70CBB0E96002B6E
S31508008DE000F04481079B4FF0730907905A1C0C93B7
S31508008DF0149005921090FEF717BA0F9B2D22C3F117
S31508008E0001038DF8A120092B3FF75CAD30220399A9
S31508008E108DF8A22000220B920DF1A302FFF760B98C
S31508008E201346159A4FF0660913440B440C937AE4DB
S31508008E3000230322CDE90B3259E6EB1B1193259B40
S31508008E400F935FE4039B23F080030393139B13F0B4
S31508008E5000430F9300F0F8802D230322B9F1470F42
S31508008E608DF88F304FF00003CDE90B3240F30981BE
S31508008E70AD4F3CE60C9366E5259B0F93079B119334
S31508008E800AE5C3F101034FF067091A4422EAE273BF
S31508008E900C9205934FE44FF0670919990B78FF2B4D
S31508008EA000F0528100250F9A284603E0013001316F
S31508008EB0FF2B08D0934206DAD21A4B78002BF5D14D
S31508008EC00B780135F4E70F92199110901495149ABE
S31508008ED0109B1A9913440C9A01FB03230C9323EA5B
S31508008EE0E37305931B9B002B00F08C80059BCDF844
S31508008EF00CA0013305932D238DF88F3000230B9397
S31508008F000793FEF791B94946079CDDF83C905F4602
S31508008F100029FFF6CEA84A1C33463020324403F80F
S31508008F20010B9342FBD131444E1CFFF7C2B8002215
S31508008F300023DDE91E0179F00DF9002800F0C48050
S31508008F40259B0F93EB18DB1B1193FFF7DBBB002266
S31508008F500023DDE91E0179F0FDF828B92C9B9D4216
S31508008F603FF6BDABDB1B1193259BBBF1470F0F9358
S31508008F707FF49AAC90E4DDE9121202F100431E91E7
S31508008F801F932D231B93FFF774BB2EAA06990498EB
S31508008F907BF0E6FE00287EF44EAD31AADDE92F35DA
S31508008FA0FEF76CBF0029C0F2958001231B969DED44
S31508008FB0127B07938DED1E7BFFF75BBB02F1004327
S31508008FC020910B9021932D231B93FEF7E7BFDDE934
S31508008FD0121202F100431E911F932D231B930623A1
S31508008FE00793FFF746BBDFF848C146E523461B9FB4
S31508008FF014460D46CDF86490079A934228BF134647
S31508009000FEF70BBE9DF88F30002B00F0C580059A41
S315080090101B9B0132CDF80CA00B9305920793FEF724
S3150800902003B91B9BCDF80CA00B93079314931093CD
S31508009030FEF7FAB8C2F101032D22092B8DF8A120FB
S315080090403FF743ACFFF74AB8B9F1470F9DF88F30A1
S31508009050CCBF354F354F002B7DD103220793149390
S315080090600C9210930B930592FEF7DEB8079B4FF010
S3150800907073090C9305930B9B149310930793FEF7B0
S31508009080D3B82A4F33E5059B9B7AFFF710B80698A5
S31508009090B0F90C30426E43F04001D60781813EF5A7
S315080090A0C0AA98053EF5BDAAFEF763B9069A536E9F
S315080090B0D8073EF5B6AA938999053EF5B2AA906DEA
S315080090C07DF05EFBFEF7ADBA119BC3F10103259354
S315080090D0FFF7F7BA01F100431E901F932D231B9348
S315080090E001230793FFF7C5BA0E9B95F801900D4625
S315080090F053F8042B42EAE2720E930792FDF786BFF5
S3150800910033B901234FF0660905930C93FFF713BB98
S31508009110159B4FF06609079A01331A4422EAE2734F
S315080091200C920593FFF707BB888E1108848E1108E9
S31508009130B4A2110802231793FEF7D8BF0398FEF7C7
S315080091404CBB1946FEF789BB002314931093BEE661
S31508009150BA18079250E7032200230C9204220793B9
S315080091600592149310930B93FEF75EB8069BDDF8F1
S3150800917010A0B3F90C3043F040031CE6069BDDF85B
S3150800918010A0B3F90C300B9043F0400313E60F9B85
S3150800919014931093FEF748B81B9BCDF80CA00B93BD
S315080091A00793FEF741B8DDF810A0FDE5DB1B119328
S315080091B0259B0F93FFF7A6BA2DE9F04F9FB00446FB
S315080091C00091816B289D57EC106BCDE909328DED26
S315080091D0040B41B1C26B012393404A608B607DF05A
S315080091E0DDFE0023A363B7F10009C0F2A8800023BF
S315080091F02B60734B33EA090300F0AC80002200238E
S315080092009DED047B51EC170B8DED027B78F0A2FFE8
S31508009210824668B10123099A1360299B13B1694BE9
S31508009220299A1360684B069306981FB0BDE8F08F1D
S315080092309DED020B1CAA1DA920467EF003FADDF857
S3150800924070805FEA19550B9040F09A801D9D454441
S3150800925005F23243202B40F3CC81C3F1400309FACF
S3150800926003F905F2124326FA03F349EA030078F0F4
S315080092708FFC013D0122A1F1F873149219460022D0
S31508009280524B78F047FB48A3D3E9002378F0FAFC61
S3150800929047A3D3E9002378F03FFB06460F46284646
S315080092A078F086FC44A3D3E9002378F0EBFC024669
S315080092B00B463046394678F02FFB06460F4696F0A1
S315080092C04BFF00228146079000233046394678F046
S315080092D04BFF002840F07481A8EB0508079D08F1AC
S315080092E0FF36162D089600F25881394B03EBC50355
S315080092F0DDE90201D3E9002378F036FF002840F0C3
S315080093007F81B8F1000F40F30E862E441290119516
S3150800931008960C9000231093009B092B60D8052B08
S3150800932040F36C81043B00250093009B023B032B12
S3150800933058D8DFE813F0870284027A026F01012306
S3150800934029F000492B601E4BCDF8149033EA090327
S315080093507FF454AFC9F3130942F20F73099A59EA15
S315080093600609136017D1299B002B00F01287194BA9
S3150800937006930833299A069813601FB0BDE8F08F44
S31508009380DDE90201144BA5F2FF35C1F31302CDF84E
S3150800939050A0134372E7299B002B40F037810F4BEF
S315080093A0069341E7AFF3008061436F63A787D23F17
S315080093B0B3C8608B288AC63FFB799F501344D33FB6
S315080093C00000F07FBD8E1108BC8E11080000F83F22
S315080093D050A41108049611080000F03F10961108D1
S315080093E00023009300212046E1637DF0B1FD06903D
S315080093F0002800F06686069BA3631D9B002B03DBF3
S31508009400079A0E2A40F3E4854FF0FF3200210D92A9
S315080094100A911392149A002A40F017821C9BC3F1F2
S315080094203603089A109D1A4408920C9A90461A44D4
S315080094300C92012120467DF077FE0646B8F1000F12
S3150800944000F07A85089B002B40F37685089A0C99DC
S3150800945042451346A8BF4346C91AA8EB0308D31AC0
S315080094600C910893109BC3B1002D00F0D6853146A8
S315080094702A4620467DF03AFF0B9F064620463A4686
S3150800948031467DF07FFE3946074620467DF086FD4B
S31508009490109B0B975D1B40F08485012310930121D7
S315080094A020467DF041FE119B0746002B40F00683BF
S315080094B0009B012B40F35D83012308990B4413F0AD
S315080094C01F0300F05482C3F12002042A40F3F384F8
S315080094D0C3F11C030C9A19441A4498440C92089137
S315080094E00C9B002B05DD1A460B9920467DF05EFF86
S315080094F00B90089B002B05DD39461A4620467DF061
S3150800950055FF0746009B022B129BD4BF4FF0000A5B
S315080095104FF0010A002B40F0E6820D9B002B00F36A
S315080095202F82BAF1000F00F02B820D9B002B40F022
S31508009530AE823946052220467DF03AFD07460B984D
S3150800954039467DF0A5FF002840F3A182079BDDF888
S3150800955018B003F1010A31230BF8013B39462046BE
S315080095600AF1010A7DF01AFD1EB1314620467DF04A
S3150800957015FD0B9920467DF011FD00238BF8003070
S31508009580099BC3F800A0299B002B3FF44DAE069813
S31508009590C3F800B01FB0BDE8F08F01231293089BF3
S315080095A0002B20DB00230C93079B002B16DA0C9A62
S315080095B0079BD21A5B42109300230C921193ABE6D9
S315080095C0484678F0F5FA32463B4678F0C3FD00285F
S315080095D07FF482AE09F1FF3307937DE6089A11936B
S315080095E01A44089296E6C8F101030C9300230893DF
S315080095F0DAE7C3F1200306FA03F038E6012594E614
S31508009600079B013B079300231293C8E7B74B0693C2
S315080096100333AFE64FF0010A0A9B079A13441393E4
S315080096200133012B1E460D93B8BF0126172E40F3B2
S31508009630A585012204235B001146013203F11400BB
S31508009640B042F8D9E16320467DF082FC06900028F6
S3150800965000F03785069BA3630D9B0E2B00F2238132
S31508009660002D00F02081079A002A40F3E581A049E1
S3150800967002F00F03151101EBC303D3E90067D30505
S3150800968040F154829B4B05F00F054FF00309D3E9CF
S315080096900823DDE9020178F01FFCCDE90E0185B14A
S315080096A0DFF85082E80740F1D3803046394609F1A1
S315080096B00109F8E8022378F0E5FA06466D100F4628
S315080096C0F0D132463B46DDE90E0178F005FCCDE9DE
S315080096D00E01129B53B10022874BDDE90E67304617
S315080096E0394678F041FD002840F0EE83484678F088
S315080096F05FFADDE90E2378F0C5FA804B002278F090
S315080097000BF90D9B0646A1F15077002B00F0B280AD
S31508009710079B1A930D9B1593754B15991B9303EB92
S31508009720C103DDE90E8913ED027B49464046CDE9C2
S3150800973016678DED187B96F00FFD0746069E78F0A6
S3150800974037FA303702460B4640464946751C78F0CC
S31508009750E1F880468946FFB2DDE91823BAF1000F21
S3150800976000F028820020664978F0B6FBDDE916236A
S3150800977078F0D0F8377042464B4606460F4678F0E2
S3150800978011FD002840F04C844FF0000ADDF854B073
S315080097900E942BE00AF1010ADA4580F2CE813046B2
S315080097A039460022574B78F06DFA0022554B06468B
S315080097B00F464046494678F065FA8946804696F04F
S315080097C0CBFC044678F0F4F902460B4630344046A2
S315080097D0494678F09FF832463B4605F8014B8046E5
S315080097E0894678F0C1FC002840F0198442464B4669
S315080097F00020414978F08EF832463B4678F0B4FCB2
S315080098000028C7D0069A0E9C02E0954200F0FF8316
S31508009810AB4615F8013D392BF7D001330692DBB27A
S315080098202B701A9B03F1010AA3E64FF0010A0A9B63
S31508009830002B40F33C810A9E13960D96F6E64FF0F0
S31508009840000AE9E64FF0000AF1E703F23343E8E5D8
S315080098506D1008F1080825E7484678F0A9F9DDE90A
S315080098600E2378F00FFA0022244B78F055F80646B6
S31508009870A1F150770022244BDDE90E0178F04AF871
S3150800988032463B468046894678F08CFC002840F0F4
S31508009890598340464946324607F1004378F064FC4E
S315080098A0002840F0FA801D9B002B02DB079A0E2A3F
S315080098B02CDDBAF1000F40F048810C9B002B00F01C
S315080098C0F382089B002B00F0EF820C9A0899134646
S315080098D0109E8A42A8BF0B46D21ACB1A0C9208933E
S315080098E0002E40F03D839046D9E500BF109611083A
S315080098F050A4110828A411080000F03F00001C40DD
S315080099000000E03F0000244000001440A64B1B93D3
S315080099101B9B079A03EBC20393ED007B0A9B002B64
S315080099208DED007B80F25F830D9B002B00F35B833C
S31508009930002B40F0B28000229C4BDDE9000178F054
S31508009940A1F902460B46DDE9020178F017FC0D99EC
S31508009950002840F0A3803123DDF818B020460BF824
S31508009960013B7DF01BFB079B03F1020A01E61C2362
S315080099700C9A98441A440C92089A1A440892AFE52D
S31508009980109B002B40F0DF81079B03F1010ADDF8ED
S3150800999018800125DDF834B0DDF82C9007E049463B
S315080099A000230A2220467DF003FB0135814639460D
S315080099B048467DF07BF85D4500F1300308F8013B29
S315080099C0EDDB0D9A0025CDF82C9002F1FF38002A20
S315080099D0069AD8BF4FF00008013290440B9901222D
S315080099E0204600937DF0E2FC39460B907DF050FD51
S315080099F0002840F3FB82069A02E0904500F00183B6
S31508009A0018F8013CC34608F1FF38392BF5D0013365
S31508009A1088F80030394620467DF0C0FA002E3FF41B
S31508009A20A8AD002D3FF4A1ADB5423FF49EAD294641
S31508009A3020467DF0B3FA98E500F06D82079B5A4AF6
S31508009A405D4205F00F0302EBC303DDE90201D3E92A
S31508009A50002378F017F92D11CDE90E0100F08A835D
S31508009A60534E4FF00209E9070ED509F10109DDE960
S31508009A700E01F6E8022378F005F96D10CDE90E011E
S31508009A803FF427AEE907F0D46D100836EBE70A9BDA
S31508009A90DDF818B06FEA030A60E5002120467DF07C
S31508009AA07DFA0A9BDDF818B0C3F1000A61E50123C7
S31508009AB000211393E1630D930A93C4E51A46014600
S31508009AC020467DF013FC009B0746012B40F373826A
S31508009AD0002311933B6907EB830318697DF0BAFAF3
S31508009AE0C0F12003E9E439460B987DF0D1FC002843
S31508009AF0BFF613AD00230B990A222046079D7DF079
S31508009B0057FA139B05F1FF390B90002BCCBF0025A4
S31508009B100AF00105109B002B40F00781002D40F04C
S31508009B201183139BDDF81CA00D9330E79DED027B96
S31508009B304FF002098DED0E7BB1E51D9B0E9C002BA7
S31508009B4003DB079A0E2A7FF7E3AE009A012A7FF70E
S31508009B5061AC0D9B109A5D1EAA42C0F20E82002BC4
S31508009B60A2EB050580F2F682DDE90C32A3EB0208CA
S31508009B705FE4049B002B7FF49FAC059BC3F31303A0
S31508009B80002B7FF499AC059B23F000431B0D1B05A6
S31508009B90002B3FF491AC0C9B01330C93089B0133CB
S31508009BA008930123119388E450A411080000144077
S31508009BB028A41108DDE9160178F064F8069B1F70E1
S31508009BC0159B012BCDE90E0100F0C282069BAA4621
S31508009BD0159A03EB020B0022B94B4046494678F02A
S31508009BE051F88946804696F0B7FA064677F0E0FFC0
S31508009BF002460B4630364046494677F08BFE0AF851
S31508009C00016BD34580468946E5D16E1E159B1E44D9
S31508009C100022AC4BDDE90EAB5046594677F07CFE88
S31508009C2042464B4678F0A0FA002840F0FF8152469B
S31508009C305B460020A34977F06DFE42464B4678F016
S31508009C40B1FA00286AD11D9B002BFFF636AE079B9A
S31508009C500E2B3FF732AE1B9B079A03EBC20393ED1D
S31508009C60007B8DED007BDDE9009ADDE902674A4657
S31508009C7053463046394678F02FF996F06DFA804605
S31508009C8077F096FF4A46534677F0FCFF02460B46A6
S31508009C903046394677F03EFE08F13003069A1370CF
S31508009CA00D9B012B00F0DE81C5F1010902944FF0EE
S31508009CB0000A4FF0000B4C46DDF834901CE0DDE955
S31508009CC000233046394678F007F996F045FA80467B
S31508009CD077F06EFFDDE9002377F0D4FF0B460246E6
S31508009CE03946304677F016FE08F1300305F8013B91
S31508009CF02B194B4500F0B5810022714B77F0C2FF56
S31508009D0052465B4606460F4678F024FA0028D6D017
S31508009D10079BAB46029C03F1010A2AE416F8013CAC
S31508009D20B346013E302BF9D07BE5314600230A22A3
S31508009D3020467DF03DF9139B0646CDF81C900D9301
S31508009D40002D7FF4F2ABB8F1000F05DD314642462F
S31508009D5020467DF02BFB0646119B002B40F06A81BE
S31508009D60B146069D0D9A6B1E02970B9F1A44049BDB
S31508009D7003F001030A920C93029938467CF096FE8A
S31508009D803146824638467DF083FB029980464A462C
S31508009D9020460AF1300B7DF09DFBC3680146B3BB34
S31508009DA0089038467DF074FB0899089020467DF0A7
S31508009DB0F5F8009B089A13435FD10C9B002B00F023
S31508009DC0B781B8F1000FC0F2AF810A9BA846AB4233
S31508009DD008F801BB00F07C81394600230A22204698
S31508009DE07DF0E6F84E45074631464FF000034FF042
S31508009DF00A0220463BD07DF0DBF84946064600239A
S31508009E000A2220467DF0D4F845468146B4E7204626
S31508009E100B97CDF820B0029F7DF0C0F8B8F1000F7F
S31508009E20089B08DB049A009902F0010248EA010837
S31508009E3052EA080232D10B990122204600937DF09E
S31508009E40B5FA39460B907DF023FB0028009B40F3BA
S31508009E508B81392B00F045810AF13103AB460BF8AB
S31508009E60013B3546079B4E4603F1010AD2E57DF0D4
S31508009E709FF84546064681467EE7B8F1000FC0F2D0
S31508009E803B81009B48EA03080C9B53EA080800F04C
S31508009E903381002A99DD0B975B46029F392B00F028
S31508009EA02081AB460133DAE7109E002E58D1DDF843
S31508009EB03080FFF7F4BA3FF413ABC3F13C0357E520
S31508009EC0000024400000E03F0D9B002B3FF4C4AC8B
S31508009ED0139D002D7FF7E7AC079B304639460022D5
S31508009EE0013B1A93AD4B77F0CDFE02460F4609F1BA
S31508009EF001001646CDE90E6777F05AFE32463B4614
S31508009F0077F0C0FE0022A64B77F006FD15950646AB
S31508009F10A1F1507700E49DED027B4FF002098DED2B
S31508009F200E7BFFF7D6BBC8F1010312900C93079B73
S31508009F3008931193FFF7EEB9109B002B3FF4ADAAD7
S31508009F40FFF792BA3123DDF818B0002120460BF846
S31508009F50013B7DF023F8079B03F1020AFFF709BBD3
S31508009F60109A20460B997DF0C1F90023DDF8308060
S31508009F701E460B901093FFF792BA109B0121119A77
S31508009F802046EB1A0D9F1A44089B3B4411920893EE
S31508009F907DF0CAF80C9B0646002B40F08380984655
S31508009FA00C972A460B9920467DF0A0F901230B90C1
S31508009FB01093FFF774BA049B002B7FF489ADDDE993
S31508009FC00412C2F31303002B00F09D80119181E562
S31508009FD0079A744B03EBC2034FF0FF3293ED007BF5
S31508009FE00D928DED007B069B5D1C3CE603D1009B24
S31508009FF0DB073FF500ADC34618F8013D302BFAD014
S3150800A00008E53123069A0AF1010A137002E51A9B3C
S3150800A010069201331A93312302E4109DC1E70E9C80
S3150800A0201A9BAB4603F1010AFFF7A3BA3546069A0F
S3150800A030FFF7EEBB716820467CF08AFF05460028CC
S3150800A04000F0A080336906F10C010C3002339A0047
S3150800A0507CF0D8FB2946012220467DF0A7F98146E7
S3150800A0607FE6029C02460B4677F056FC079B06469F
S3150800A0700F4603F1010ADDE9002378F093F848B9A1
S3150800A08030463946DDE9002378F064F838B118F02F
S3150800A090010F04D0079B069A1A93FFF7B9BBAB4684
S3150800A0A0FFF767BA0C99089A8A421346A8BF0B4667
S3150800A0B0D21AA1EB030808920D9A8A18D31A0C93A0
S3150800A0C06FE7394B002240F2AF11384879F0D8FAD9
S3150800A0D0079A35460B975B46029F02F1010A4E46E0
S3150800A0E07CE4079BA846069A354603F1010A3923FC
S3150800A0F04E4608F8013B83E4002A0B975B46029F0D
S3150800A1003FF799AEAAE6059B23F000431B0D1B05F6
S3150800A110002B3FF4DEAC0C9B01330C93089B0133F8
S3150800A120089301231193D5E40B975B46029F95E6A6
S3150800A1305B460B97029F392BD3D0B8F1000F3FF738
S3150800A1408BAE8BE6139BCDF81C900D93FFF7EDB9FC
S3150800A1502E465DE5089B0D9A134408930C9B98467A
S3150800A16013440C93FFF765B97FF478AEDA077FF5E9
S3150800A17075AE6EE64FF00209FFF7ABBA0021E16350
S3150800A180FFF761BA0246084B40F2EF21074879F01B
S3150800A19077FA074B0693FFF747B800BF000024403D
S3150800A1A000001C4050A4110814961108289611089E
S3150800A1B004961108000000002DE9F04FDBB00C46AC
S3150800A1C082460A910DF1A80807920E937CF020F8B2
S3150800A1D00368184616937CF08BFB0822159000211D
S3150800A1E040467BF077FAA3891F0603D52369002B1F
S3150800A1F001F05C810023CDF810A09E46CDE92F33EF
S3150800A20031ABCDF85CE0CDF860E01C462E93CDF876
S3150800A21020E0CDF844E09FED727BCDE919EE8DED97
S3150800A220127B079E049F704BD3F8E4507BF0EAFF3D
S3150800A2303246034626A93846CDF80080A8470028A6
S3150800A240034600F09B80C0F29180269A252A01D009
S3150800A2501E44E8E7079B0546F71A40F0938000235B
S3150800A2604FF0FF32751C96F801908DF88F300993E0
S3150800A270069203930135A9F120035A2B00F2B68002
S3150800A280DFE813F0E503B400B400DE03B400B4005D
S3150800A290B400BD03B400B400F8020A03B400030313
S3150800A2A0F703B400F0035B005B005B005B005B0038
S3150800A2B05B005B005B005B00B400B400B400B40054
S3150800A2C0B400B400B4002501B40042023A042501E2
S3150800A2D025012501B400B400B400B4003204B4006A
S3150800A2E0B4008603B400B400B4007802B4001404C1
S3150800A2F0B400B4009C08B400B400B400B400B400C0
S3150800A300B400B400B4002501B40042026801250176
S3150800A31025012501100368016D00B4002A03B40065
S3150800A3201B03560335036D00B40078026A00AD02BC
S3150800A330B400B400C908B4006A00A9F130030022C9
S3150800A34002EB820215F8019B03EB4202A9F13003E6
S3150800A350092BF5D909928EE795F800908AE7039BB1
S3150800A36095F8009043F02003039383E70822002121
S3150800A37040467BF0AFF901231E4454E7079B054688
S3150800A380F71A11D0079B2F9AC4E900370132309B80
S3150800A390072A3B442F92309317DC0834089B3B442A
S3150800A3A00893002D7FF45BAF309BDDF810A0002BDF
S3150800A3B041F0E0830A9B9B8903F04003002B41F0A0
S3150800A3C0628708985BB0BDE8F08F2EAA0A990498B0
S3150800A3D07DF03AFA0028EDD131ACDFE7AFF3008023
S3150800A3E00000000000000000CC2E02200795B9F1FD
S3150800A3F0000FD9D00023012241AF8DF804918DF8C2
S3150800A4008F300B930C92069314930592CDE90F3374
S3150800A410039B309D13F08403AE4600F0D5809DF86B
S3150800A4208F20EAB12F98002601300122013562609B
S3150800A43007280DF18F02CDE92F05226000F3C384AA
S3150800A44008346EB12F98013024AA023522600728F5
S3150800A4504FF00202CDE92F05626000F3A6840834A6
S3150800A460802B00F0E183069B0C9A9E1A002E00F3BF
S3150800A470BC80039BDE0500F1F0800C9B27601D4421
S3150800A48063602F9B30950133072B2F9300F33A8493
S3150800A4900834039B5A0705D5099B059A9E1A002E70
S3150800A4A000F39F840599DDE908328A42ACBF9B1800
S3150800A4B05B180893002D40F0F38300232F930B9B22
S3150800A4C01BB10B990498CDF051FD31ACA9E60E9B52
S3150800A4D04FF0FF320795073323F00701A04BB1EC85
S3150800A4E0027B57EC176B0E9127F000418DED1C7A15
S3150800A4F01D91DDE91CAB8DED127B5046594695F052
S3150800A50015FE002840F060864FF0FF32944B504607
S3150800A510594677F033FE0546002840F05586039BDA
S3150800A52000223046394623F080030393002377F050
S3150800A5301BFE002841F0B682B9F1470F9DF88F300F
S3150800A540CCBF884F884F002B41F05F8503220B93C1
S3150800A5500C9258E703990795880640F123860E9BC7
S3150800A5600391073323F007031A465B6852F8085B22
S3150800A5701E460E92002BC0F2D182069A002AC0F21D
S3150800A5804381039B23F08003039355EA060340F0B7
S3150800A5903B81131E18BF0123002A40F035811A4655
S3150800A5A00B939DF88F305AAF309D191E039BAE460C
S3150800A5B0069218BF012113F084030C920591149298
S3150800A5C0CDE90F227FF42BAF099A0599561A002E6A
S3150800A5D000F30C859DF88F20002A7FF423AF069B95
S3150800A5E00C9A9E1A002E7FF744AF102E2F9ADFF88A
S3150800A5F07CA123DD29461023DDF810B00A9D02E070
S3150800A600103E102E19DD013210315848072AC4E9C8
S3150800A6100003CDE92F2104F10804F1DD2EAA29460D
S3150800A620584631AC7DF010F9002840F01484103EED
S3150800A6301023102EDDE92F21E5DC0D4601323544C5
S3150800A640C4F800A0072A6660CDE92F2500F3118516
S3150800A650039B0834DE057FF510AFB9F1650F40F3AB
S3150800A6605C8300220023DDE9120177F073FD0028E0
S3150800A67000F0FA832F9B01353D4A0133309522605D
S3150800A6800122072B2F93626001F382800834259BF1
S3150800A690119A934280F21385159B169A1D44C4E9B4
S3150800A6A000232F9B30950133072B2F9300F3F28657
S3150800A6B00834119B5E1E002E7FF7EBAE102E2F9BE3
S3150800A6C0DFF8A8A040F314831027DDF81090DDF812
S3150800A6D028B003E0103E102E40F30A8301331035EC
S3150800A6E0072BC4E900A7CDE92F3504F10804F1DDED
S3150800A6F02EAA594648467DF0A7F8002841F02B8037
S3150800A70031ACDDE92F35E5E70E9BB9F1430F079527
S3150800A71003F1040503D0039BDE0640F1A186082257
S3150800A72000212CA841AF7AF0D5FF0E9A2CAB0498DD
S3150800A730126839467CF00AF903460C90013301F099
S3150800A7409D850C9B23EAE373059300230E958DF8EC
S3150800A7508F300B9306931493CDE90F3358E600BF59
S3150800A760FFFFEF7F808E11087C8E1108F8A3110871
S3150800A770BC8E11080E9E0023079556F8047B8DF8AB
S3150800A7808F30002F00F0A186B9F1530F01F00C802D
S3150800A790039B13F010030F9341F00680069B002BD2
S3150800A7A0C1F2F3811A460F9938467BF0EBFF9DF804
S3150800A7B08F300B90002801F090840B9AD21B0C92D4
S3150800A7C022EAE27205920BB1013205920F9B4FF015
S3150800A7D073090E960693149310930B9318E6039930
S3150800A7E007958F0640F19B840E9B002207338DF850
S3150800A7F08F20069A23F00703002A5E6853F8085B41
S3150800A8000E9380F2628403910A2D76F1000380F09C
S3150800A8109881069B30359DF88FC00DF26717012B7E
S3150800A8208DF86751B8BF0123059300230F930123C1
S3150800A8300C9300230B93BCF1000F02D0059B013348
S3150800A84005930F9B002B01F04685059B0233059364
S3150800A850039BDDE92F0513F08403AE46024600F09C
S3150800A8603782BCF1000F40F0F882CDF850C0CDE930
S3150800A8700FCCE8E50E9B53F8042B002A099280F2C8
S3150800A8803B84099A0E9352420992039B95F80090CD
S3150800A89043F004030393EDE42B2395F800908DF819
S3150800A8A08F30E7E495F80090039BB9F1680F00F044
S3150800A8B0E18543F040030393DCE4039A0E9B92067A
S3150800A8C0079503F1040140F15B841B68089A1A6036
S3150800A8D0D2175A600E91A4E495F80090039BB9F13B
S3150800A8E06C0F00F0CF8543F010030393C2E40022F7
S3150800A8F00E99079547F63003069D51F8040B9542C5
S3150800A900ADF890308DF88F200346C0F28785039DF9
S3150800A91025F0800545F002050395002840F08A8752
S3150800A9200698002840F086874FF078090E91D6E3FE
S3150800A93003980795810640F111840E9B073323F08F
S3150800A94007031A46596852F8083B0E9200228DF8FA
S3150800A9508F20069A002A2DDB20F490620392069A2D
S3150800A9605ABB53EA010214BF0122002225D110F076
S3150800A9700101059100F0C58330230DF26717069291
S3150800A9808DF867310C910B921492CDE90F223FE5B1
S3150800A990039B07959D0643F01000CED40E9B1A1D07
S3150800A9A00E9B00210E9200221B688DF88F20069AB6
S3150800A9B0002AD1DA20F4806203925AAF03F0070224
S3150800A9C0DB08384643EA41733032C90807F8012DD7
S3150800A9D053EA0105F2D1302A03D0039BDB0700F1C5
S3150800A9E0DE845AAB069ADB1B9A420C93B8BF1A460A
S3150800A9F0059200230B931493CDE90F3308E5049FC2
S3150800AA0038467BF005FC4368184618937BF070FFC0
S3150800AA101A90064638467BF0FBFB836895F800904B
S3150800AA201993002E3FF426AC002B3FF423AC1B7879
S3150800AA30002B3FF41FAC039B43F48063039319E494
S3150800AA40039B95F8009043F00103039312E49DF8E5
S3150800AA508F3095F80090002B7FF40CAC20238DF8EE
S3150800AA608F3007E4039B95F8009043F08003039327
S3150800AA7000E4294611F8019BB9F12A0F01F0EC838D
S3150800AA80A9F13003092B01F20682002202EB8202A9
S3150800AA9011F8019B03EB4202A9F13003092BF5D902
S3150800AAA042EAE2730D460693FFF7E5BB039B07955B
S3150800AAB043F010019B063FF597AE0E9B1A1D002624
S3150800AAC00E9B06981B68B0428DF88F601D46C0F233
S3150800AAD0AC8721F080010E920391002B7FF494AE8F
S3150800AAE0002800F0FC828FE6039B95F8009043F05F
S3150800AAF008030393FFF7BEBB039B07959D0643F028
S3150800AB0010013FF52CAD0E9B1A1D0E9B03911D6877
S3150800AB100E92EE173346002BBFF62FAD2D236D424E
S3150800AB208DF88F3066EB4606069B002BFFF66CAE5B
S3150800AB30039B0A2D23F08003039376F10003FFF4A9
S3150800AB4068AE039B002205945AA903F48063CDF8E6
S3150800AB502C90DFF8C8B996461C46DDF8649023E0C9
S3150800AB60AB19AA463046394643F10003ABFB032C22
S3150800AB702CF0030202EB9C029B1A4FF0CC32EB1A24
S3150800AB8066F1000602FB03F2BAF10A0FA3FB0B53A8
S3150800AB900BFB06224FEA550570F10000134445EAFF
S3150800ABA0C3754FEA53062BD3AB190EF1010E01F10B
S3150800ABB0FF3743F10003ABFB032020F0030202EB4F
S3150800ABC090029B1AEB1AA3FB0B3266F100005B0896
S3150800ABD00BFB002243EAC27303EB8303A5EB430393
S3150800ABE0303301F8013C002CBAD099F80030FF2B1D
S3150800ABF0B6D07345B4D10A2D76F1000381F0B6803C
S3150800AC0000225AAB059CDB1B0F92069ACDF864907E
S3150800AC109A42DDF82C909DF88FC0B8BF1A46CDF839
S3150800AC2044E00C93059204E6099B059A9E1A002EA9
S3150800AC307FF719AC102E2F9ADFF8E8A823DD2946EE
S3150800AC4010235546DDF828B0DDF810A002E0103EC6
S3150800AC50102E16DD01321031072AC4E90053CDE95A
S3150800AC602F2104F10804F2DD2EAA594650467CF03D
S3150800AC70EBFDF8B9103E31AC1023102EDDE92F217B
S3150800AC80E8DCAA460D4601323544C4F800A0072A76
S3150800AC906660CDE92F2500F3B2850834FFF7E3BBDC
S3150800ACA02EAA0A9904987CF0CFFD00283FF405AC3B
S3150800ACB0DDF810A00B9B002B3FF47CAB0B9950469C
S3150800ACC0CDF054F90A9B9B8903F04003FFF776BB46
S3150800ACD0099E05991493761A002ECDE90F3300F3D1
S3150800ACE03E81BCF1000F3FF4AEAB0226FFF79CBBDA
S3150800ACF001333544C4F800A0072B6660CDE92F352B
S3150800AD007FF7C6AB2EAA0A9904987CF09DFD002809
S3150800AD10CED1309D31ACFFF7BCBB119B01352F9EC0
S3150800AD2004F10809012B06F1010640F361810123AC
S3150800AD30072E27606360CDE92F6500F3B381159B65
S3150800AD400136169A1D44072EC9E90023CDE92F6559
S3150800AD5000F39B8109F10809119B00225C1E002360
S3150800AD60DDE9120177F0F6F9002840F05A8101363C
S3150800AD7001372544C9F80440072EC9F80070CDE903
S3150800AD802F6500F3418109F10809179B01361D4417
S3150800AD90C9F80430072E28ABCDE92F65C9F800306D
S3150800ADA0B0DC09F10804FFF774BB2EAA0A990498C7
S3150800ADB01B937CF049FD00287FF47AAF309D31ACB7
S3150800ADC01B9BFFF74DBB2EAA0A9904981B937CF090
S3150800ADD03BFD00287FF46CAF309D31AC1B9BFFF721
S3150800ADE030BB102E2F9BDFF840A720DD1027DDF89B
S3150800ADF01090DDF828B002E0103E102E17DD013362
S3150800AE001035072BC4E900A7CDE92F3504F108044E
S3150800AE10F2DD2EAA5946484631AC7CF015FD0028CD
S3150800AE2040F09984103E102EDDE92F35E7DC01331A
S3150800AE303544072BC4E900A6CDE92F357FF732AB99
S3150800AE402EAA0A9904987CF0FFFC00287FF430AFFC
S3150800AE50309DFFF727BBDA462CE70022022614921C
S3150800AE60CDE90F22FFF7E0BA2599002940F320849F
S3150800AE700F9B119A9342A8BF1346002B99460ADDE9
S3150800AE801D44C4E900732F9B30950133072B2F937C
S3150800AE9000F34B8708340F9EB9F1000FA8BFA6EB45
S3150800AEA00906002E00F32183039A0F9B52053B44A3
S3150800AEB000F15683259E119A964203DB0399C8072B
S3150800AEC040F12886159A16991544C4E900122F9A56
S3150800AED030950132072A2F9200F396870834119A83
S3150800AEE01744961BFF1AB742A8BF3746002F0ADD3C
S3150800AEF023603D442F9B676001333095072B2F93C2
S3150800AF0000F3BA870834002FA8BFF61B002E7FF778
S3150800AF10C0AA102E2F9BDFF80CA67FF7E9AE1027E4
S3150800AF20DDF81090DDF828B003E0103E102E7FF70C
S3150800AF30DFAE01331035072BC4E900A7CDE92F355D
S3150800AF4004F10804F1DD2EAA594648467CF07CFC3B
S3150800AF50002840F0008431ACDDE92F35E5E702230F
S3150800AF60102E7146DFF8C0A52ADD1B935346A4466A
S3150800AF70BA461025DDF810B00A9C1F4602E0103EBE
S3150800AF80102E18DD01321031072ACCE90075CDE9FB
S3150800AF902F210CF1080CF2DD2EAA214658467CF02A
S3150800AFA053FC0DF1C40C00287FF455AF103E102E4B
S3150800AFB0DDE92F21E6DC3846644657461B9B824668
S3150800AFC0501C7518C4F800A007286660CDE92F053F
S3150800AFD000F39E839DF88F200834002A40F09B805A
S3150800AFE0002B3FF440AA1346FFF72DBA2F9AB7E76E
S3150800AFF0039BD9073FF59BAE0123072E27606360A5
S3150800B000CDE92F657FF7C1AE2EAA0A9904987CF080
S3150800B0101BFC00287FF44CAE0DF1C409DDE92F6551
S3150800B020B3E6119B012B7FF7B0AE112BDFF8F4A422
S3150800B03040F30A841027DDF810B003E0103C102C0A
S3150800B04040F3028401361035072EC9E900A7CDE979
S3150800B0502F6509F10809F1DD2EAA0A9958467CF0F0
S3150800B060F3FB00287FF4F7AE0DF1C409DDE92F657F
S3150800B070E4E72EAA0A9904987CF0E6FB00287FF4F8
S3150800B08017AE309D31ACFFF7F4B92EAA0A99049889
S3150800B0907CF0DAFB00287FF40BAE0DF1C409DDE97C
S3150800B0A02F6559E62EAA0A9904987CF0CDFB00284C
S3150800B0B07FF4FEAD0DF1C409DDE92F653FE6039B7C
S3150800B0C0D8077FF5E6A9FFF7E7BA21F080030393CF
S3150800B0D055EA06037FF498AB002A7FF495AB039AEA
S3150800B0E000239DF88FC05AAF02F0020205930C9315
S3150800B0F00F920693FFF79DBB95F800900E93FFF706
S3150800B100B9B8059A5AAF06920C9214920B92CDE9E9
S3150800B1100F22FFF77DB91E460023FFF785B903996D
S3150800B1200E9A11F0100652F8043B7FF4C8AC039847
S3150800B13010F0400100F0B0839DB2069B8DF88F6039
S3150800B140002BC0F25A8220F080010E920391002D46
S3150800B1507FF45AAB002BC2D0FFF756BB03990E9A61
S3150800B16011F0100152F8043B41F0DE80039D15F002
S3150800B170400000F0AA839BB228460E92FFF7E6BB72
S3150800B180039BDB0600F15A83039B5F0600F1CA8422
S3150800B190039B9E0540F152830E9B089A1B681A7002
S3150800B1A0FFF798BB039B0E9AD90652F8045B01F188
S3150800B1B0CA80039B5F0640F15C8345F3C0360E9256
S3150800B1C02DB23346FFF7D6B9DDE9120102460B4622
S3150800B1D094F0ACFF0646002840F0DC8629F0200BE8
S3150800B1E0BBF1410F40F082833023B9F1610F8DF82E
S3150800B1F0903014BF582378238DF89130069B632B23
S3150800B20000F3DB84DDE91212002AC0F2B48641AFEE
S3150800B2101B900B909DED127B8DED207B25A89DED57
S3150800B220200B7BF007FC00224FF07F5351EC100BEC
S3150800B23076F028FD02460B46CDE90C2300220023B2
S3150800B24076F088FF08B101232593B9F1610FCDF88F
S3150800B2503C903E46BB460CBFAC4BAD4B0593069B9C
S3150800B260DDF814A0591E06948946DDE90C4509E067
S3150800B2700022002309F1FF3776F06CFF002840F022
S3150800B280A186B9460022A34B2046294676F0FAFC49
S3150800B2900D46044694F060FF074676F089FC0246A0
S3150800B2A00B462046294676F035FB1AF80730B9F1E1
S3150800B2B0FF3F324604460D4606F8013BD8D1924672
S3150800B2C0954B0022DDF83C90CDE90C453D46069CA1
S3150800B2D05F4676F067FF40B900228F4BDDE90C0127
S3150800B2E076F038FFD8B1EB0719D5059B3246CDF86D
S3150800B2F0B0A0D97B16F8013C994209D1302002F852
S3150800B300010C2C9A531E2C9312F8013C8B42F6D052
S3150800B310392B00F0D5870133DBB202F8013C039BD9
S3150800B320259A43F00201F31B119309F10F038DF8D7
S3150800B330A030531E002B2593C0F21C872B22092B05
S3150800B3408DF8A12000F398840DF1A202303302F89B
S3150800B350013B28ABD31A1793119B179A012B1A4452
S3150800B3600C9240F3F7850C9B159A13440C9321F421
S3150800B370806301F0020243F480730F9203930C9BDF
S3150800B38023EAE37305931B9B002B00F0CE854FF051
S3150800B3902D0C00238DF88FC00693FFF74FBA302384
S3150800B3A00238069A07F8013C5AAB07461B1A9A4216
S3150800B3B00C93B8BF1A460592FFF71BBB544807956E
S3150800B3C0039B0E9913F0200200F01A81073121F031
S3150800B3D007014A6851F8083B53EA0205039E14BF61
S3150800B3E001250025F60702D5002D40F0B781002675
S3150800B3F08DF88F60069E002EC0F21181039E26F4FA
S3150800B40090660396069E002E40F0BA81002D40F005
S3150800B410B7810E9163E63D480795D1E703989446B0
S3150800B4200E914FF0780940F0020002210390374848
S3150800B4300F915AAF03F00F011B09415C43EA0273EF
S3150800B440120907F8011D53EA0201F3D15AAB069A0D
S3150800B450DB1B9A420C93B8BF1A460592FFF7E9B967
S3150800B4600E9B41AF1B688DF80431012305930C939D
S3150800B470FFF76BB943F4007395F801900135039310
S3150800B480FEF7F8BE43F0200395F8019001350393C3
S3150800B490FEF7F0BE2EAA0A9904987CF0D5F9002882
S3150800B4A07FF406AC309D31ACFFF703B94021504616
S3150800B4B0CCF059FD0A9B18601861002800F0048733
S3150800B4C040230A9A5361FEF795BE069B3A460697AD
S3150800B4D0062B0E96149228BF0623CDE90F22CDE936
S3150800B4E00B7305930E4FFEF793BF102E2F9BDFF8B5
S3150800B4F034A040F38D8251462A46BA464FF01009C9
