S02B00002F55736572732F73757072617461702F73696C6162732D73746173682F6D61747465725F6578746526
S31508006000081200208D8F030825E90A08598F000811
S31508006010A1380C08818F0008958F0008A98F000801
S3150800602025E90A0825E90A0825E90A0805C50D0823
S31508006030BD8F0008E8400F08A9C40D08D9020E084C
S31508006040058C030825E90A0825E90A0825E90A0846
S3150800605025E90A0825E90A0825E90A0825E90A08B2
S3150800606025E90A0825E90A0825E90A0875930008B2
S3150800607025E90A0825E90A0825E90A0825E90A0892
S3150800608025E90A0825E90A0825E90A0825E90A0882
S3150800609025E90A0821D8050825E90A0825E90A088C
S315080060A025E90A0809D50508E9D4050825E90A08ED
S315080060B025E90A08AD760808817F0808E7BA0D08B9
S315080060C0E3BA0D08F5760808FDBA0D08EBBA0D080F
S315080060D0517F0808EFBA0D08C17F0808298008080B
S315080060E025E90A0825E90A08BD90000825E90A08ED
S315080060F0CD2D0C0825E90A0825E90A0825E90A0824
S3150800610025E90A0825E90A0825E90A0825E90A0801
S3150800611025E90A0825E90A0825E90A0825E90A08F1
S3150800612025E90A0825E90A0825E90A0825E90A08E1
S3150800613025E90A0825E90A0825E90A0825E90A08D1
S3150800614025E90A082DB3060825E90A08EB120E0800
S31508006150DD60080825E90A08C7BA0D08CDBA0D0892
S3150800616025E90A0825E90A0825E90A0825E90A08A1
S31508006180F0B5114A114C124E00F00105E3695F079C
S3150800619013D40DB9334213D103EA00078F4207D14E
S315080061A00B4A1A40002A0CBF00206FF00100F0BD10
S315080061B0013AEBD16FF00200F9E74FF0FF30F6E74E
S315080061C06FF00100F3E700BF8096980000000350C7
S315080061D00200010070B50B4BD96911F480310DD15D
S315080061E001244FF48072084E084DF46020462C6452
S315080061F01A61FFF7C5FF3464EC6070BD6FF00100EB
S31508006200FBE700BF000003500010035000200350B6
S315080062104FF4803238B50E4B0E4C9A66E56941F656
S31508006220713315400122E3630B4B0021DA60022328
S31508006230606121202361FFF7A3FF10B92120FFF732
S315080062409FFF0122054BDA600DB10023E36338BDD9
S315080062500090005000000350001003500020035027
S3150800626070B5134C6061E3695B071ED40E4656F899
S31508006270043B8D18A361AE420BD1042300212120D3
S315080062802361FFF77DFF58B9BDE870402120FFF76D
S3150800629077BF08210846FFF773FF10B1042323616F
S315080062A070BD56F8043BA361E5E74FF0FF30F7E70A
S315080062B0000003502DE9F84315464FF48032184B79
S315080062C089469A6603F51C33DF690646174041F688
S315080062D07132DA63012203F58053DFF84C80DA6005
S315080062E055B9284601220F4BDA601FB10022A3F5E3
S315080062F00053DA63BDE8F88306F5005404EA080497
S31508006300A41BAC4228BF2C46494622463046FFF716
S31508006310A7FF0028E6D12644A1442D1BE0E700BFCD
S31508006320009000500020035000E0FFFF000000002E
S31508006330000000000000000000000000000000004F
S31508006340013800D0FCE770472DE9F04F2DED028BA0
S315080063501D4613690646052BD5B00BD8013B01220D
S315080063600024042B23D8DFE813F04100290130016B
S315080063703F0152014FF6FC72934212D04FF6FD725E
S3150800638093424FF0010340F0448102200021CDE9F9
S315080063903E0185F8443028463EA985F0BEF93060AE
S315080063A086E000230022CDE93E230123F1E7CB69ED
S315080063B0284685F844202C9384F049FC0028EED121
S315080063C03FA83E959EF048FD3EA92CA889F0D7FD2A
S315080063D00446284684F080FC2046002CDFD14FF680
S315080063E0FF7385F84C40A5F84A30D8E7D1F81C80E9
S315080063F0284685F8442084F02AFC0446002856D10D
S3150800640013A812959EF028FD41460AA887F02AFF90
S3150800641005232246414600930EA889F015FD274616
S315080064209FED7F8BDFF800A20EA90AA889F023FD4D
S31508006430044648B9284684F04FFC4FF6FF7385F8A2
S315080064404C40A5F84A3032E00AA887F0DBFE8DED0D
S31508006450228B8DED248B90F88190CDE92677CDE9B6
S315080064601E77ADF880708DF8A0708DF8AC90D0E9E5
S315080064700023CDE92423B0F8823000F16004ADF89A
S315080064808030D0E9022320212046CDE92223C9F015
S3150800649037F84946CDE926402CAA4046CDF8B0A0A3
S315080064A098F07DF8044658B1284684F015FC346007
S315080064B000233371304655B0BDEC028BBDE8F08F32
S315080064C02DAB1E9341230DF1080B1F933EABCBF862
S315080064D0003055235A4649464046CBF8043098F0D2
S315080064E0EDF904460028DFD1DBF80430B3B19BE8A8
S315080064F0030001238DF8103005AB83E8030004A9D7
S3150800650007A889F02FFD9DF81C308DF8A0302BB117
S3150800651029AB08AA92E8030083E803009DF8AC308B
S31508006520002B49D0DDF8489099F8452099F808B02D
S315080065300AB19B451AD1484613A984F0F4FBA8B1C1
S3150800654099F84630D9F80010A3B1096C4FF4807257
S315080065500023CDF800B01EA8C7F089FA0446014604
S3150800656013AA484684F0F8FB002C9DD10AA889F0A6
S3150800657057FC59E7D9F8403009F1280207A884F0F2
S3150800658020FB044628B12146484613AA84F0E4FBBA
S315080065908AE7D9F800300222196C1EA80023CDF824
S315080065A000B0C7F064FA04460028ECD1D9F8001008
S315080065B007A884F03EFBD1E7712475E70520002182
S315080065C085F84420CDE93E01E5E6CB6993F88233A8
S315080065D0CDE93E340123284685F844303EA985F0A6
S315080065E09CF83471306065E7CB69284685F8442005
S315080065F02C9384F02CFB00287FF4D1AE3FA83E955F
S315080066009EF02AFC3EA92CA889F0BDFDE0E62B7A6F
S31508006610DEE78622C0E900234CE700BFAFF300801F
S315080066200000000000000000A0FA0E0800000000AC
S315080066302DE9F04F2DED028B083085B00E469146B8
S31508006640DDF850809FF081FF0446002800F0A38003
S315080066506F4600259FED548B4FF0010B41F2A45A6B
S3150800666010AB0FCB87E80F00514BC4E902552360E6
S31508006670C4E90455C4E906552C3363604D4B04F14F
S31508006680500C0FCB84ED108BC4E90E5584F82050BE
S3150800669084F8305084F848508CE80F00464B84F84C
S315080066A060B0A4F862A06566236704F18403C4E9B0
S315080066B02133424B1022C4F89830294684ED1A8BB0
S315080066C0C4E91D55C4E9275584F87C50C4F88C5094
S315080066D0C4F8A45004F1A800C8F060FF84ED308B1C
S315080066E084F8B8B0A4F8BAA0C4F8BC5004F1C8003D
S315080066F0A0F0BAFD4AF6C873C82284ED388B84ED3B
S315080067003A8BC4E93C2304F58673C4E94055C4E9C9
S315080067104333A4F8D45084F8D650A4F8D85084F853
S315080067200851C4F814513368A3607368E360B3680A
S315080067302361F36863613369A3617369E361337E37
S3150800674084F8203033B104F1240306F11C0207CA89
S3150800675083E8070096F8283084F830300BB1F36ADE
S315080067606363304684F044FCA8B9B9F1000F12D02F
S31508006770B8F1000F0FD003CF3B78C4F8389084F8EF
S315080067804830012384F80031231D20646164C4F86D
S315080067909080C4F8A430204605B0BDEC028BBDE855
S315080067A0F08F00BFAFF3008000000000000000007B
S315080067B030780E085C4E01205C2D0F0820780E08F4
S315080067C02DE9F04F2DED028B00240025CBB099461C
S315080067D0CDE92E450023CDE93045CDE934454FF6C0
S315080067E0FF74DFF898A2064688461746CDE90C33AB
S315080067F08DF8C8303393CDF8D8A04894A2B305468F
S3150800680000F53474A54206D10B2420464BB0BDECE6
S31508006810028BBDE8F08F284684F018FD08B1903544
S31508006820F0E79FED8F8BBDF85C318DF8C880ADF829
S3150800683020318D4B4FF4C8710E93002309A8CDE97A
S3150800684009330F93CDF870A00B9389F081FB099C4F
S3150800685014BB0B240BA884F09FFA0AA884F09CFAB0
S3150800686009A884F099FAD0E797F029FE044608B9F2
S31508006870AC24CAE706F53475284683F02BF8B4F835
S3150800688082308DF8C880ADF8203121460CA894EDE9
S31508006890028B97F081FDCCE74FF4C8710AA889F0FE
S315080068A057FBDDF828A0BAF1000FD2D04FF4C87113
S315080068B00BA889F04DFB0B9A002ACAD04FF4C8736F
S315080068C04146CDE91332304610AA1094CDE9113A63
S315080068D0159397F054FE04460028BBD1414630462E
S315080068E012AA97F02EFE04460028B3D14146304638
S315080068F014AA97F003FE04460028ABD110A916A8DF
S3150800690089F01CFB12A918A889F018FB14A91AA863
S3150800691089F014FB36AB079330AB05930DF1B80A33
S3150800692034ABCDE903A30DF1700B0EAB8DED008BE7
S31508006930CDF818B002931AAA18A916A81BF044FF96
S315080069400446002886D10BA884F026FA0AA884F003
S3150800695023FA09A884F020FAB9F1000F13D1D6F862
S31508006960640300285ED003689B6898470346D6F8F8
S315080069706403002B4ED003685A4641465B69984724
S31508006980044688B141E7D9F8003048465B6998471C
S31508006990594698F0C1F808B9C52436E79DF8583124
S315080069A0CDF8CC908DF822319DF860315146B3FA76
S315080069B083F328465B098DF8233198F054F804468A
S315080069C000287FF422AF28460CA997F02AFD06F581
S315080069D05D7495F881303FB302211120234A9FF058
S315080069E091FDD5E900122B69CDE9012100936B6968
S315080069F0022111201E4A9FF085FD20460F991DF0A1
S31508006A00FBFD034630BB96F88233013386F88233A2
S31508006A100024FAE603684146DB6898470028C3D194
S31508006A201024F2E60324F0E6D5E900121120CDE998
S31508006A30002102210F4A9FF065FD20460F991DF09F
S31508006A40DBFD03460028E3D0012111200A4A9FF006
S31508006A5059FDDDE701211120074A9FF053FDD2E7D2
S31508006A600000000000000000C4BB0E0889BA0E082A
S31508006A70A9BA0E08ECBA0E0821BB0E08A0FA0E0831
S31508006A802DE9F0478AB00DF10D030193152306464B
S31508006A9000934FF48072002308460C469EF00CFCC7
S31508006AA0E8B996F8963001220093204600239EF016
S31508006AB08AFBA0B996F89730022200932046002355
S31508006AC09EF081FB58B90DF10E030193162303229C
S31508006AD00093204600239EF0EFFB054610B10AB04E
S31508006AE0BDE8F0874FF0100906F1C8070DF1180840
S31508006AF0102200214046C8F051FD0DF10F03019305
S31508006B0015234FF480720093204600239EF0D4FB91
S31508006B100028E4D196F89720EBB29A4251D917ED9E
S31508006B200C7BC44637F828ACA7F12603A7F1160E46
S31508006B30624618685968083303C273459446F7D104
S31508006B408DED007B0422002320469EF017FB0028CB
S31508006B50C5D1052200232046CDF800A09EF033FBC0
S31508006B600028BCD14046494606228DE8030000238A
S31508006B702046CDE904899EF072FC0028AFD1204654
S31508006B809DF90F109EF0CDFB013530370028A6D1B0
S31508006B90032DADD120469DF90E109EF0C2FB0028AC
S31508006BA09DD1B6F88E3007220093204600239EF02A
S31508006BB00AFB002893D120469DF90D109EF0B1FBE3
S31508006BC08DE782469FED027BBAE700BFAFF30080F0
S31508006BD00000000000000000A0F1840050E700BF9C
S31508006BE0054B18680368D96901A3D3E90023084748
S31508006BF000E0373B015D0300642902200000000025
S31508006C0037B5A8F04AFC044600286ED13A4B1A88D4
S31508006C109B78ADF804208DF8063033F04BFA33F044
S31508006C205FFF33F0BDFE0546344B036034F048F988
S31508006C30284634F051F800B9FEE72DA3D3E900231E
S31508006C404FF0FF314FF0FF3033F03CFA33F0ACFE33
S31508006C50214633F005FFA8F023FC01A833F0FEFF18
S31508006C60044600B1FEE7264B264A98801860264B54
S31508006C7098801A60254B264A18631A60254A988018
S31508006C806FF06300DA6035F08DF80B2033F0DAFE2A
S31508006C9033F038FF33F07EFE00B9FEE75CF01EF8ED
S31508006CA02046A8F0C7FD08210846A8F0CAFD00B18D
S31508006CB0FEE7A8F0BDFD33F0C3FDA8F007FD1021DF
S31508006CC01548BCF05BFE00B9FEE714491248BCF053
S31508006CD067FE00B9FEE710218C20114A5BF016FC0E
S31508006CE000B1FEE70F483AF07FFE03B030BD00BFA3
S31508006CF00AE020FFE203000090510F0865F60A0833
S31508006D0098ED0020ED00022060ED002028ED00201F
S31508006D106D00022018ED0020CC930120050F0E0807
S31508006D20BC9301208A500F082DE9F04389B0A8F0DA
S31508006D30A5FB00B9FEE75C4D2B6803B9FEE7012207
S31508006D409B8811460DF10B008DF80B3033F03CFF94
S31508006D509DF80B102B6802390022186889B233F0A7
S31508006D6033FF002305930793504B05AE06932B6814
S31508006D7093F834208DF814201B681C7814F020042E
S31508006D8014D0A8F059FD00285CD0A8F055FD67F08E
S31508006D90F1FC0B46024640A1D1E9000167F08EFEE0
S31508006DA067F0FCFF079B18440124079033F050FF57
S31508006DB09DF80B30002848D0981DC00067F0EAFC03
S31508006DC037A3D3E9002367F04FFD8946804633F0A1
S31508006DD03FFF67F0CFFC0B4602464946404667F040
S31508006DE06DFE67F0DBFF079B18440790A8F04DFB84
S31508006DF038B133F093FE0020A8F043FB0020A8F03A
S31508006E0047FB29684B6963BBA8F05BFB10B3079B7C
S31508006E10274F03F5FA7307932B681B7EBB7033F075
S31508006E2077FEF870286833463A462146807933F06B
S31508006E30ADFE58B34FF480510020DAF088F8A8F078
S31508006E4028FE23E00798C030AEE70798063300EB24
S31508006E504310CAE72B6832462146987933F08CFEF0
S31508006E60E7E70022962004920A691A44114BA2F514
S31508006E709B7298800392887903AA2146009633F07C
S31508006E8093FE0028D6D10120A8F026FB09B0BDE85C
S31508006E90F08300BFAFF300800000000060E36641A6
S31508006EA00000000080842E41B893012020A107002D
S31508006EB0182A02200C2A02202DE9F3411E461C4BF3
S31508006EC0044683424FF000038B4115460AD216A3A7
S31508006ED0D3E9002367F0D2FF16491446024628462E
S31508006EE0ACF04BFC144B4EF66021B4FBF3F203FBFB
S31508006EF01244B4FBF1F34FF47A7801FB1344B4FB64
S31508006F00F8F728460D490097ACF037FC46B12846F5
S31508006F1008FB17420A4902B0BDE8F041ACF02DBCA7
S31508006F2002B0BDE8F08100BF005C26050000000045
S31508006F30FF5B2605A88A0F0880EE36009EBF0E085E
S31508006F40AE8A0F080348044B834202D0034B03B1B1
S31508006F5018477047D8330220D833022000000000B3
S31508006F60064B0749C91A891048BF0131491003D091
S31508006F70044B0BB101481847704700BFD8330220AD
S31508006F80D83302200000000010B5064C237843B918
S31508006F90FFF7D8FF044B13B10448AFF30080012371
S31508006FA0237010BDCAC2012000000000E471100859
S31508006FB008B5054B1BB105490548AFF30080BDE888
S31508006FC00840FFF7CDBF00BF000000009036012043
S31508006FD0E4711008A3F5803A704700BF174B002BE1
S31508006FE008BF134B9D46FFF7F5FF00218B460F465A
S31508006FF01348144A121AC8F0D1FA0E4B002B00D0C7
S3150800700098470D4B002B00D098470020002104001C
S315080070100D000D48002802D00C48C7F078FF69F02B
S315080070204FF820002900BCF059FC02F051F800BFC7
S315080070300000080000000000000000000812002000
S3150800704008120020E02402200FEF0C0800000000C0
S3150800705002211D20014A9FF055BA00BF68160E0886
S3150800706002211D20014A9FF04DBA00BF78160E086E
S3150800707008B5044A02211D209FF044FAFF22024B5C
S315080070801A7008BD87160E08AA32022070B5037C4E
S31508007090244AFE2B0446137022D0FF2B30D00B2B2C
S315080070A037D80B2B35D8DFE803F00612063434340C
S315080070B0343434343412A0F01CF9036841F28831B0
S315080070C05D692346184AAC46BDE870406047A0F0A3
S315080070D010F9036842F210715D69134A2346F2E714
S315080070E0A0F007F9036822465B6A0F499847A0F0A3
S315080070F000F903684FF47A715D690B4A2346E2E7A3
S31508007100A0F0F7F803682246BDE870405B6A0649B6
S315080071101847FF2313700221BDE870401D20034A5B
S315080071209FF0F0B9AA32022071700008A1160E0865
S3150800713008B5A1F0E4FC23F08FFC23F0BFFC094856
S3150800714026F012FE00224FF46171074894F07DF88C
S3150800715030B1BDE8084001212120044A9FF0D2B988
S3150800716008BD00BFA0B00020C8A30020B6160E08B0
S3150800717010B500220C4613481349A1F068FD1821E2
S315080071800A20124AD9F038FC114B186040B9212060
S315080071900121104A9FF0B6F940F2017082F01BFAFD
S315080071A020460D4A0A49D9F0E8F840B921200121BC
S315080071B00A4A9FF0A7F940F2027082F00CFA002002
S315080071C010BD00BFD0BF00206D760008101A0E084B
S315080071D0C8380120E4160E08EC190E0807170E0821
S315080071E0F7B53D489FF043FA01463B4CA3689942E0
S315080071F001D3012B0FD901290DD0D4E9033202FBA3
S3150800720001331B7A13B1FA2211461CE020469FF07F
S3150800721051FA0146EAE7314B1B78FF2B40D00B2B7E
S315080072204BD8DFE803F006090C4A4A4A4A4A4A4A52
S315080072304A143222322106E04FF47A72E4E74FF418
S315080072402F724FF49671264882F051F835E0254E94
S315080072506846337840F2B634002B234B18BF3225E4
S31508007260196808BF4FF42F750B6808BF4FF496745A
S315080072701B699847DDE900721C49D1E9003013F50E
S315080072807A7340F100009F4272EB000015D3337801
S31508007290C1E9007283F00103224629463370D2E71A
S315080072A0134B1B7883B1134B1B786BB1124B1B78AE
S315080072B033B101210A4800F0E9FD012003B0F0BD11
S315080072C0322240F2B631BEE70C4B1B780BB1642272
S315080072D09AE740F2B632ADE7BC360120AA32022060
S315080072E010120020CBC201206429022008120020B7
S315080072F0CDC20120C0D30120BFD30120BED30120B7
S3150800730010B5084B084C18702046A1F0CBF9074B6E
S3150800731018702046A1F01EFA054B1870BDE81040FB
S31508007320FFF75EBFCDC20120A0B00020C0D3012068
S31508007330BFD3012008B51448A1F0C8FCA0B1134872
S31508007340A1F0B0F9124B18701048A1F003FA114BCE
S315080073501870114825F01AFA003818BF01200F4B8B
S3150800736018700948A1F0BBFC0D4B1B780BB9FFF749
S3150800737037FF0C4800F064FD0B4B186818B1BDE8E0
S31508007380084000F05DBD08BDD0BF0020A0B00020B9
S31508007390C0D30120BFD30120D8580120BED3012075
S315080073A0CCC2012010120020B836012008B5094BBE
S315080073B01868D9F083F901300AD121200121064A3B
S315080073C09FF0A0F8BDE8084040F2067082F003B9C5
S315080073D008BD00BFD038012021170E08014608B5A0
S315080073E04FF47A7200238002890D67F047FD094B36
S315080073F001461868D9F046F950B121200121064AFC
S315080074009FF080F8BDE8084040F2057082F0E3B8C6
S3150800741008BD00BFD038012039170E0810B540F650
S31508007420B83302210B4A21209FF06CF840F6B83099
S31508007430FFF7D4FF0122084C084B204600211A709A
S3150800744000F024FD2046BDE810404FF4FA7181F0A3
S3150800745052BF00BF52170E0810120020CCC20120DE
S3150800746008B5FFF7A3FF064B1A7842B100221A7037
S315080074700221BDE808402120024A9FF043B808BD12
S31508007480CCC2012091170E0808B5094B0A211868C5
S31508007490D9F0F8F850B121200121064A9FF032F8B8
S315080074A0BDE8084040F2057082F095B808BD00BFF7
S315080074B0CC380120B2170E0810B5044686B0094824
S315080074C09FF043F860B10023CDE903330293064BDE
S315080074D0214601930223054A0093054B07F000F85D
S315080074E006B010BDBC3601208D700008517000082A
S315080074F061700008004870472037012070B58AB0CF
S3150800750001AA1546174B03F1200614461868596850
S31508007510083303C4B3422246F7D1186820601248DC
S31508007520A1F0CFFB1148A1F0BDF804460F48A1F021
S3150800753011F9002C18BF04460D488DF8054093F044
S31508007540D4FD0C4B8DF8260093F8623906488DF861
S315080075500430A1F0C4FB2946074881F072FE0AB040
S3150800756070BD00BF281A0E08D0BF0020A0B00020AA
S31508007570C8A30020809700202037012008B5FFF710
S31508007580BDFFBDE80840014881F09BBE20370120B9
S3150800759010B50388012B11D10479012C07D1FFF707
S315080075A0ADFF2146BDE81040054881F075BE032CA5
S315080075B0F7D1BDE810400348FFF7E0BF10BD00BF94
S315080075C020370120CCAC012008B5094B01461868C4
S315080075D058B100231822D9F04FFA40B1054A0121C3
S315080075E0BDE8084021209EF08DBF034AF7E708BD95
S315080075F0C8380120CA170E08F7170E087FB50223E8
S31508007600ADF80030044B019068460293FFF7DCFFA3
S3150800761007B05DF804FB00BF457700087FB5012376
S31508007620ADF80030044B8DF8040068460293FFF766
S31508007630CBFF07B05DF804FB9175000813B5094B3D
S315080076401B786BB100240DF107010473064881F01D
S31508007650F4FD9DF80730022B02D12046FFF7DEFF26
S3150800766002B010BDCDC201202037012048F2040225
S3150800767013B50388044693421ED007D803F5FF4383
S315080076807F339BB2012B1BD902B010BD48F2120200
S315080076909342F9D102211B4A21209EF033FF9FF025
S315080076A028FE036840F6B8315C690023A446164AEA
S315080076B002B0BDE810406047027A144B1A70E3E73F
S315080076C013480DF1070181F0B8FD9DF80700012860
S315080076D001D1FFF7A3FF94F90830012B03D094F9E1
S315080076E00930012BD0D102210A4A21209EF00AFF37
S315080076F09FF0FFFD036840F6B8315C69024A002333
S31508007700A047C1E740180E0889910808CDC2012094
S315080077102037012018180E088B68084603B1184749
S3150800772002212120014A9EF0EDBE00BF7C180E08FA
S3150800773000220249024827F0B3BB00BFE9790008D6
S31508007740D0BF00200388022B06D1044B1B780BB947
S31508007750FFF764BEFFF7ECBF704700BFCCC201203D
S3150800776000220249024827F09BBB00BF317100087E
S31508007770D0BF002030B5A5B003AB0193812301AC7F
S315080077800546029369F004F8214669F00DFD78B9BB
S3150800779045B1DDE90112094881F05DFD012107487F
S315080077A081F09AFD94E803002DF078F925B030BDF4
S315080077B001212120024A9EF0A5FEF7E72037012085
S315080077C0AC180E0810B5002204462649264800F0D3
S315080077D0BFF90023224619462448D4F0D3FC244B8B
S315080077E0186040B921200121224A9EF08BFE40F202
S315080077F0047081F0F0FE0023224601211E48D4F0D1
S31508007800C1FC1E4B186040B9212001211C4A9EF07C
S3150800781079FE40F2047081F0DEFE02212120194B28
S31508007820194A9EF06FFE194A0221012321209EF073
S3150800783069FE27F029FF0368DB6F98470120FFF7E9
S3150800784099FF00F0E9FA0021114881F058FD114826
S31508007850A0F072FF104B11491870114896F0D0FE2F
S3150800786010BD00BF50230E0820370120FD75000803
S31508007870D0380120C4180E08C5910808CC38012054
S31508007880DE180E081A3A0F08F8180E081C190E0802
S3150800789010120020A0B00020CDC20120AC36012075
S315080078A0609D002038B50546FFF78CFF044638B1C1
S315080078B00C4826F087FF204681F08DFE204638BD0D
S315080078C02B682846DB689847044608B10648F0E75F
S315080078D0064B1A6852F8580C1A581844926B904777
S315080078E0ECE700BF39190E084B190E08305901206C
S315080078F010B50379012B05D1BDE8104040F6B83024
S31508007900FFF76CBD144B1B781BB1BDE81040FFF7A1
S31508007910A7BDFFF74BFD114B1C78D4B91048A1F051
S31508007920D0F922464FF461710E4893F08EFC044656
S315080079300B48A1F0D4F924B101210B4A21209EF06D
S31508007940E1FD0020FFF716FFBDE810400320FFF712
S3150800795065BE0221054AF1E7CCC20120CDC201204D
S31508007960D0BF0020C8A30020B6160E085C190E0862
S3150800797073B50024154D2146202205F1D000C5E92E
S315080079803244C7F00BFE4823114AA5F8F040A2F18D
S31508007990180685F8F2400F4D0093111D0123304655
S315080079A09EF0BDFD2A4630460B49C6F06BFE2A46B8
S315080079B00A480B4B0B4903603033C0E90244436065
S315080079C002B0BDE87040C6F05DBE00BF203701209A
S315080079D0D4360120F0260220A1910808A8360120F5
S315080079E0A4190E088391080810B50121094827F043
S315080079F037F820B168F0CCFE0121C7F0E2FE064850
S31508007A0027F0A6F927F040FEBDE8104003689B6FF3
S31508007A10184700BF30590120D0BF00200346074A47
S31508007A2030B500F12805144618685968083303C4A8
S31508007A30AB422246F7D11868206030BDD438012001
S31508007A4030B5134D85B02B6804461988114B80391B
S31508007A5001932D2301EBD171002200934910802355
S31508007A602846A6F0FCFF2046C7F0E8FD142809D8EA
S31508007A70002201230092CDE901232146052228464A
S31508007A80A7F0FCF805B0BDE8304081F0ACBB00BFFC
S31508007A90D4380120971E0E0837B505460B480C4CFE
S31508007AA0036819885A880B4B4039002D18BF23469E
S31508007AB00193402301EBD1710093453A4910A6F092
S31508007AC0CEFF03B0BDE8304081F08DBBD43801202D
S31508007AD0701C0E08701A0E0813B5134C236820463E
S31508007AE05A88124B453A0193112302EBD27100933F
S31508007AF002EB610212236821A6F0B1FF2368204633
S31508007B005A880B4B453A0193122302EBD271009324
S31508007B1002EB610210230821A6F0A1FF02B0BDE81E
S31508007B20104081F060BB00BFD4380120701E0E08DB
S31508007B304C1A0E0810B504460448A6F00BFF20465A
S31508007B40FFF77EFFBDE81040FFF7C6BFD438012017
S31508007B502DE9F041054617460C4681B10846C7F09F
S31508007B606DFD142806D9214826F02CFE2F24204620
S31508007B70BDE8F081214605F1B000C7F071FD30F08F
S31508007B8077FE044620B10146194826F01BFEAC24B0
S31508007B90002031F061FC064628B10146154826F05A
S31508007BA011FE46F0A06405F18408404631F0BCFC9D
S31508007BB0064628B10146104826F004FE46F0A064A1
S31508007BC06FF07F4200234046C5E92223A6F0C2FE95
S31508007BD0064628B10146094826F0F4FD46F0A06499
S31508007BE04046FFF71BFF85F8CC70C0E767210E08F3
S31508007BF079210E0896210E08A9210E08C5210E081E
S31508007C00F0B5074600F184058BB02846A6F0A2FE1B
S31508007C1097F8CE204C4905A867F0D4FD0023012229
S31508007C200093CDE9013205A91A4607F1D004284682
S31508007C30A7F024F82046C7F001FD1328234605AA15
S31508007C4007F1E00674D9144618685968083303C45E
S31508007C50B3422246F7D119889B782180A370002366
S31508007C608DF8273000240126234632463749284610
S31508007C70CDE901460094A7F001F840233246009367
S31508007C8005A923462846CDE90146A6F0F7FF23466F
S31508007C9002222F492846CDE901460094A6F0EEFFB8
S31508007CA0032223462B492846CDE901460094A6F02F
S31508007CB0E5FF97F8CF302849A3420CBF4E22592238
S31508007CC005A867F07FFD0422234605A92846CDE9C5
S31508007CD001460094A6F0D2FF97F8F0301F49A34258
S31508007CE00CBF4E22592205A867F06CFD23460522D3
S31508007CF02846CDE90146009405A9A6F0BFFF97F8E6
S31508007D00F1308BB11649174A05A8B34218BF0A467F
S31508007D10154967F057FD234606222846CDE9014650
S31508007D20009405A9A6F0AAFF81F05DFA0BB0F0BD94
S31508007D30144618685968083303C4B3422246F7D173
S31508007D40186820608EE700BFE2210E08F1210E08B0
S31508007D50FA210E08150B100808220E0817220E081D
S31508007D60DE210E08DA210E0828220E084FF0FF330E
S31508007D7001222DE9F04F85B0CDE902320423234ACA
S31508007D80CDE90033224900238146A6F077FA28B9BF
S31508007D90204805B0BDE8F04F26F014BD1B482FF06B
S31508007DA023FA064609F18400A6F0D4FD00254FF013
S31508007DB0030A06EB4604C4F1800404EBD474641089
S31508007DC0AE4204DC05B0BDE8F04F81F00CBA0027DE
S31508007DD005EB450858FA84F85FFA84FB5FFA88F8D9
S31508007DE02A46394609482FF069FF50B107EB470183
S31508007DF05944032342464846CDF800A0C9B281F04B
S31508007E002FFA0137BE42EBD10135D9E74BD4012011
S31508007E10C1D3012031220E080148A0F004BF00BFDB
S31508007E203059012010B504460178044826F054FE5E
S31508007E30A37883F00103A37010BD00BF3059012059
S31508007E4073B503690446E3B14369D3B10E4B68467B
S31508007E5019680B681B699847D4E90423DDE90065AE
S31508007E60A178002918BF1346D4E902125B1842F11B
S31508007E700002B342AA4104D22046FFF7D3FFC4E961
S31508007E80026502B070BD00BF6429022038B5002320
S31508007E900022C0E90433002304460D46C0E9022344
S31508007EA00278024826F004FEA57038BD3059012034
S31508007EB00148A0F042BD00BFA0B000200148A0F0D4
S31508007EC03EBD00BFA0B00020044A08B58368026022
S31508007ED0243242600BB1C7F013F808BD84230E089C
S31508007EE0A0F10400F0E700BF10B50446054B036097
S31508007EF04433436013F0BAFD2046FFF7E5FF2046FA
S31508007F0010BD00BF64800E08A0F10400ECE700BFB6
S31508007F1038B5124B044603F13802C26003F14C022D
S31508007F20026103F16002426142680360743383614F
S31508007F303AB183682BB1536042681A600023C0E9DE
S31508007F40013304F1440528468BF0F9FE284681F0F2
S31508007F50E7F9201D81F0E4F9204638BD94430E0860
S31508007F60A0F11400D4E7A0F11000D1E7A0F10C00AD
S31508007F70CEE7A0F11800CBE71F2008B502210C4A6E
S31508007F809EF0C0FA0B4825F0E9FE78B901210948A8
S31508007F9025F040FB50B9084886F0F9FE1F2002215B
S31508007FA0064A9EF0AFFA0348A0F0C5FC08BD00BF1C
S31508007FB04F220E08A0B00020781500206D220E086A
S31508007FC0F8B51E4C002526461D4F1E481E4B3A4640
S31508007FD01E49C0E901550360C560057445610583FE
S31508007FE0C6F050FB1A4B294646F8D83B324623467C
S31508007FF004F1080007F006FD04F12003C4E934354E
S31508008000144B3A46C4F8D830134B2046C4E93836E0
S3150800801004F1F403C4E93B3541F20A430F4984F8F5
S31508008020E85084F8F451A4F8DC30C6F02BFB3A4645
S31508008030BDE8F8400A490B48C6F024BB781500206D
S31508008040F02602200C39012088FD0E088DCC020886
S3150800805070420E0850EA0E0834EA0E0877930808AC
S315080080601D930808442702207FB5044602211F20D5
S31508008070854A9EF047FA234602211F20834A9EF02E
S3150800808041FA834D02211F207F4A9EF03BFA0221C6
S315080080901F20804A9EF036FA2B784BB9284626F0E0
S315080080A0BBFF00280CBF012300232B7040F0E5809E
S315080080B02146794824F064FB68F06AFB0446C7F059
S315080080C068FB002840F0D980201D21F0C9FD04F185
S315080080D0080021F053FD2046C7F070FB6F4A704B2D
S315080080E00221002818BF13461F206E4A9EF00AFA7E
S315080080F0FFF742FF002840F0C0806B4B03900193C6
S315080081006A4B6B480293A0F0CBFA6A4C039001AB1A
S315080081106948236326F01EFD002840F0AE806748B4
S31508008120A0F0CFFD664DD5E8AF3FDA070BD4284659
S31508008130A7F074FC38B1634A63496448C6F0A2FAEA
S315080081402846A7F070FC624DD5E8AF3FDB070FD491
S315080081502846A7F063FC58B15C495E4813F0EAFC70
S31508008160584A5D495B48C6F08DFA2846A7F05BFC7D
S315080081705A4D584B2846236424F092FD2369A5637B
S315080081801BB9574B574A23615A60E36B53BB564D8D
S315080081906B68002B70D105F11400266981F009F986
S315080081A005F11C0081F005F9EB6803B92B7295F807
S315080081B034304E4823F0050385F8343081F0F9F859
S315080081C04B4881F0F6F895F834304A4823F01803FE
S315080081D085F8343081F0EDF800236E602B7285F84F
S315080081E03430E563236C0BB9434B2364434D444B4E
S315080081F028462169636297F071FC636A28462B61F9
S3150800820096F042FE002838D122692562002A36D027
S315080082103C4B3D4D5A60636102F02CFB3B4B0221FF
S31508008220A0623B4A2120E3629EF06CF92846216948
S3150800823015F028FF08BB2069A5619AF0ADFE354BFD
S3150800824021696064344823609FF018F8324821F0A9
S31508008250F7FC1849314815F091FA04461748A0F07A
S315080082603EFD3CB92E4826F0ADFA144826F058FED5
S31508008270044630B1204600E0032004B070BD2F202C
S31508008280FBE700F0AFF8F5E797220E08CA220E08BA
S31508008290C8BF0020D6220E08D858012086220E080C
S315080082A08E220E08E6220E08B17E0008BD7E000862
S315080082B0A0B00020F826022030590120D0BF0020A7
S315080082C004390120F02602201F930808F42602200C
S315080082D00039012028120020E97E00080C39012007
S315080082E0E427022096F60120C84C0120EC4C012018
S315080082F0F44C0120D44C0120E87300205C4A01208C
S31508008300C4270220544A0120184A0120C8270220FF
S31508008310F8220E08A836012044270220807700207C
S3150800832028230E0810B51348FFF79EFE08B181F002
S3150800833052F91148A0F0C5FC68F02AFA00B10C30D1
S3150800834019F0B6FF0C48A0F0CAFC1F2002210B4A00
S315080083509EF0D8F80A4865F0F3FB08B181F03BF9BE
S31508008360084C2068D8F07DF808B1C6F0C9FD206031
S3150800837010BD00BF4D230E08D0BF002056230E089F
S31508008380CCAC01200839012010B50A48A0F035FC0C
S315080083900021094A0948D7F0F0FF094C022120605C
S315080083A0084A1F209EF0AEF823680BB9C6F0A8FD50
S315080083B010BD00BF30590120C0230E0825830008D0
S315080083C00839012068230E08014820F027B900BFA4
S315080083D0A04E0120024B01211868D8F09BB800BFB7
S315080083E02839012010B50A4820F06AF8044608B171
S315080083F0C6F086FD01F03AFA01F080FA2146054AF0
S315080084000548D7F0BAFF054B18600028F0D010BD14
S31508008410A04E0120EC230E08C98300082839012044
S3150800842010B5044601210C20064A9EF06BF800237D
S31508008430E068A36020B1BDE8104003689B68184750
S3150800844010BD00BF10240E08A0F10400E8E700BF25
S3150800845010B50A4CD4E8AF3FDB070DD42046A7F089
S31508008460DDFA48B10648074B074A08490360C6F0D3
S3150800847009F92046A7F0D7FA014810BD903901201E
S315080084809439012024E30E08F0260220E193080817
S3150800849010B504460B4B03606433436000F50E7059
S315080084A02DF0BCFB636A23B1002204F11C00626252
S315080084B09847236923B1002204F1080022619847EE
S315080084C0204610BD0C570E08A0F10400E0E700BFD7
S315080084D010B50446034B40F8343B80F097FF20461E
S315080084E010BD00BF08530E0837B5C0680D461446C0
S315080084F038B901210C200E4A9EF004F8002003B07A
S3150800850030BD1A682146019200221A6001AA09F0B4
S3150800851069FD01A880F07AFFA38823B9E38813B917
S315080085202378402BEAD02B8943F040032B81E5E7DB
S3150800853023240E08A0F10400D6E700BF73B5164839
S3150800854009F00CFF1549164AD1F8AC34154E164DEC
S315080085505360A1F5405133460F48009509F0DAFFFC
S31508008560124B336124F076FE044602460A49304629
S315080085700AF00CFF2946204624F000FD40B10C48BD
S3150800858026F020F96D210B4B0B4A0C4866F042FE8B
S315080085906C6002B070BD00BF5018002080A7002094
S315080085A06C2702204C2702207017002080510100FA
S315080085B056240E0872240E0887240E08A5240E08D1
S315080085C070B500243248334B334E0360643343603E
S315080085D000F10803C0E90233304BC0E90440836167
S315080085E000F11C03C0E907332D4BC0E90940C0E977
S315080085F00B342C4BC0E90D444364203383640523B4
S31508008600C0E92044C0E92244C0E9644480F83C40FB
S31508008610046480F8744080F89841C0F89C4180F85A
S31508008620A04180F8B84180F8D04180F8E841C0F808
S315080086301C321D4B32461D491D4DC0F83832C0E963
S315080086408F4480F80042C0F8184280F8204280F82B
S315080086504442C6F017F8324616491748C6F012F8CB
S31508008660324616491648C6F00DF82846154B6C6072
S3150800867040F8103B2C7227F03FF8C5E93444C5E9A9
S31508008680364432462846BDE870400F49C5F0FABF61
S31508008690501800200C570E08F0260220652F0108F6
S315080086A0DD2301081C250E085C2D0F08918400089F
S315080086B070170020F59308086C270220F79308081E
S315080086C04C27022008530E08D1840008012903BF4D
S315080086D0034B00201B78A62008BF1370704700BF05
S315080086E0F5DC0120022938B514461D460FD1202293
S315080086F000210848C6F052FF3CB1202D2A462146E3
S3150800870028BF20220348C6F08CFF002038BDA620CB
S31508008710FCE700BFD5DC0120104608B56AB163B195
S3150800872002290CD1202B28BF20231A46029B054973
S315080087301A60C6F076FF002008BD2F20FCE7A620A9
S31508008740FAE700BFD5DC0120012905D102B112786C
S31508008750024B00201A707047A6207047F5DC0120EE
S315080087602DE9F0431D46002389B0074608460E4604
S315080087701446CDE9053326F039FD18B9D82009B0D5
S31508008780BDE8F083304605A926F0FCFD0028F6D1A1
S31508008790204626F02BFD0028F0D0204606A926F014
S315080087A0F1FD0028EBD1DDE90586079007A91248F7
S315080087B026F0E8FD0446D8B9079B18EB030902D151
S315080087C00EB1C6F09DFB009302213B461F20CDE962
S315080087D001860A4A9DF096FE6B689E420AD8324682
S315080087E049462868C6F0C0FE6B689E42E9D86E60A6
S315080087F02046C4E71924FBE7217208008C250E08D9
S31508008800014826F00FBF00BF00720800002307B515
S315080088100348019301AB26F009FE03B05DF804FB9B
S3150800882000720800014826F0B9BE00BF0C720800A5
S3150800883010B506480C4626F079FD40F20123984209
S3150800884002BF4FF6F1732380002010BD0C7208009A
S31508008850014826F0E7BE00BF0D72080073B5002672
S3150800886001AB0C480C461546019626F0DFFD40F292
S315080088700123984208D14CB1062D09D9204629462C
S31508008880054A80F039FE304602B070BD0B20FBE782
S315080088901920F9E70D720800AA250E08014826F0E6
S315080088A07DBE00BF0B72080010B506480C4626F0C0
S315080088B03DFD40F20123984202BF48F2050323809A
S315080088C0002010BD0B720800014826F0ABBE00BFA1
S315080088D00E72080073B5002601AB0C480C46154607
S315080088E0019626F0A3FD40F20123984208D14CB127
S315080088F0062D09D920462946054A80F0FDFD304651
S3150800890002B070BD0B20FBE71920F9E70E720800CC
S31508008910B1250E08014826F085BE00BF1072080072
S31508008920002307B50348019301AB26F07FFD03B08A
S315080089305DF804FB10720800014826F073BE00BFFC
S3150800894011720800002307B50348019301AB26F00E
S315080089506DFD03B05DF804FB11720800014826F0AE
S3150800896061BE00BF12720800002307B503480193D1
S3150800897001AB26F05BFD03B05DF804FB127208003C
S31508008980014826F00BBE00BF1872080010B506484D
S315080089900C4626F0CBFC40F20123984202BF012385
S315080089A02380002010BD00BF18720800014826F079
S315080089B039BE00BF0F72080073B5002601AB0C481C
S315080089C00C461546019626F031FD40F201239842E1
S315080089D008D14CB10C2D09D920462946054A80F004
S315080089E08BFD304602B070BD0B20FBE71920F9E776
S315080089F00F720800BB250E08014826F013BE00BFFB
S31508008A0004720800014826F011BD00BF0472080070
S31508008A10014826F021BE00BF1F72080007B50020D6
S31508008A200090034826F058FD03B05DF804FB00BF2C
S31508008A301F720800014826F0B1BD00BF0772080082
S31508008A4013B510480C4626F071FC40F201229042FC
S31508008A50034604D14FF47063238000230FE070B9F6
S31508008A602388B3F5805FF8D34FF4C2732F2401210E
S31508008A70CDE90034044A054B9DF044FD23461846CB
S31508008A8002B010BD07720800E8250E08C8250E08B2
S31508008A90014826F09BBD00BF0872080010B50648BD
S31508008AA00C4626F06FFC40F20123984202BF4FF4B1
S31508008AB07A732360002010BD08720800014826F06A
S31508008AC0B1BD00BF09720800014826F0AFBC00BF5F
S31508008AD009720800014826F0A5BD00BF0A72080001
S31508008AE0014826F0A3BC00BF0A7208000B4610B561
S31508008AF0084A0C4608480949FFF732FED82807D124
S31508008B0019F062FC03682146BDE810409B681847C7
S31508008B1010BD00BF27720800F9250E082672080046
S31508008B200B4610B5084A0C4608480949FFF718FECF
S31508008B30D82807D119F048FC03682146BDE810403B
S31508008B405B69184710BD00BF2572080015260E0878
S31508008B50247208000B4610B5084A0C46084809490D
S31508008B60FFF7FEFDD82807D119F02EFC0368214629
S31508008B70BDE810401B69184710BD00BF23720800E6
S31508008B803B260E0822720800022307B501A8D1E980
S31508008B900012019367F01EFD18B90199024826F0E4
S31508008BA015FD03B05DF804FB207208001FB502200E
S31508008BB003900698009003A867F024FD18B9039956
S31508008BC0024826F003FD05B05DF804FB2072080094
S31508008BD0002370B5164886B00D461646049326F04F
S31508008BE005FBE8B1124804A926F0CCFBB0B9049BF2
S31508008BF03246002B08BF0223294605A8059367F0CD
S31508008C0069FD0446029073681F2001936B68022170
S31508008C100093084A049B9DF075FC204606B070BD7B
S31508008C2019F0D2FB0368324629469B699847E8E75C
S31508008C302072080054260E08014826F0C7BC00BF5B
S31508008C4021720800014826F09DBB00BF217208006A
S31508008C50014826F0E7BC00BF29720800014826F043
S31508008C60E5BB00BF29720800014826F0F5BC00BF25
S31508008C700572080007B500200090034826F02CFC72
S31508008C8003B05DF804FB00BF05720800014826F032
S31508008C906DBC00BF28720800014826F01BBB00BF48
S31508008CA0287208000020094B10B5186032B9084C24
S31508008CB02146BDE81040074826F088BCA1F50051BA
S31508008CC005488C189FF0AAFFF2E700BF98390120E3
S31508008CD000E01708217208003059012000232DE909
S31508008CE0F04F85B080460F462C4803A915460393D6
S31508008CF026F048FB002838D1294E039933681BB95A
S31508008D0028489FF06CFF80BBD5E900143368039AA6
S31508008D1002EB030B14F003031BD10A4623465946FC
S31508008D2020489FF062FF00BB4046316826F04EFCA3
S31508008D30D8B93846696826F049FCB0B932686B6814
S31508008D400020134413F03F021CBF40339B1A3360C4
S31508008D500BE004F1040AAAEB030A5046019121F03C
S31508008D60EDFB0199814618B9AC2005B0BDE8F08F36
S31508008D702246C6F056FCAAEB0402FF2109EB0400C2
S31508008D80C6F00CFC53464A46594606489FF02DFF46
S31508008D900446484621F0F6FB2046C4E7217208003F
S31508008DA0983901203059012008B50A460248034976
S31508008DB0FFF794FF08BD00BF22720800237208005F
S31508008DC008B50A4602480349FFF788FF08BD00BFF1
S31508008DD0247208002572080008B50A4602480349A5
S31508008DE0FFF77CFF08BD00BF26720800277208003F
S31508008DF00021044600B589B01A2201A80091C6F0E0
S31508008E00CDFB2346074A1E21684666F0A7FC69463D
S31508008E10054825F0D7FC684680F0E0FBD4F014FC42
S31508008E20C6F06EF89F260E08B5260E082DE9F04FF7
S31508008E300446D0E90076384B87B0D3F828B0D3F883
S31508008E402CA0D3F83490D3F83880D0E90253019394
S31508008E500369012102934369304A039383690493A2
S31508008E60C369002005932E4B1B689DF04BFB5B46A0
S31508008E70012100202B4A9DF045FB53460121002085
S31508008E80294A9DF03FFB4B4601210020274A9DF0C9
S31508008E9039FB434601210020254A9DF033FB234632
S31508008EA001210020234A9DF02DFB00F025FB3B46BF
S31508008EB001210020204A9DF025FB33460121002090
S31508008EC01E4A9DF01FFB2B46012100201C4A9DF0DF
S31508008ED019FB01210020019B1A4A9DF013FB012171
S31508008EE00020029B184A9DF00DFB01210020039BE0
S31508008EF0164A9DF007FB01210020049B144A9DF0A9
S31508008F0001FB01210020059B124A9DF0FBFA00F0A7
S31508008F10F3FAD7F088FEFEE700ED00E016270E0804
S31508008F20644401202C270E0842270E0858270E08ED
S31508008F306E270E0884270E089A270E08B0270E08F3
S31508008F40C6270E08DC270E08F2270E0808280E0882
S31508008F501E280E0834280E08024B034A1A6080F0B1
S31508008F603EBB00BF6444012044524148024B034AB9
S31508008F701A6080F034BB00BF644401204655504D4A
S31508008F80024B034A1A6080F02ABB00BF64440120E2
S31508008F9046535542024B034A1A6080F020BB00BF75
S31508008FA06444012054465355024B034A1A6080F024
S31508008FB016BB00BF6444012054464353024B034A80
S31508008FC01A6080F00CBB00BF644401204E4D424439
S31508008FD0012108B50020064B064A9DF093FA00F0D9
S31508008FE08BFAD7F020FE0449044866F0DFFDFEE759
S31508008FF04A280E082B5B0F08E6260E08FD260E08E3
S3150800900000240D4600B59BB06022214602A80194B3
S31508009010C6F0C4FA2B466421094A01A866F09EFBED
S3150800902001212046074A01AB9DF06CFA00F064FA6C
S31508009030D7F0F9FD0449054866F0B8FDFEE700BF1C
S315080090406D280E082B5B0F08E6260E08FD260E086F
S31508009050034B0360034B0B604FF4A0731360704718
S3150800906000440120003F0120034B0360034B0B60C3
S315080090704FF4A073136070479C3E01209C39012071
S3150800908000240D4600B59BB06022214602A8019433
S31508009090C6F084FA2B466421064A01A866F05EFBF0
S315080090A001212046044A01AB9DF02CFA00F024FA6F
S315080090B0C5F026FF80280E082B5B0F08024B034AD3
S315080090C01A6080F08CBA704764440120474F4457B1
S315080090D02A2108B5024800F05BF9B9F079FEFEE7E7
S315080090E090280E08024B01211868D7F013BA00BF62
S315080090F0304501200D4BD9889A8889B292B291429F
S3150800910011D0D9889A8889B292B291423DBF9A887D
S31508009110D8881B89D8882DBF9B8813FA80F0801AB7
S31508009120C01A80B270470020704700BF684401200B
S31508009130F8B50E46074608B9C5F0E2FE154D2C8966
S315080091408C42F9D3FFF7D6FF201A80B286421BD885
S31508009150EB88E888E41AA4B2A6422B6815D92246F9
S31508009160394613FA80F0C6F05CFA2868321B3919BA
S31508009170C6F057FAEB8816FA83F12B89B1FBF3F29E
S3150800918003FB121189B2E980F8BD3246394613FA53
S3150800919080F0EDE76844012038B50446D7F03DFF76
S315080091A0012105460846D6F01FF82846D7F030FFB5
S315080091B00C480D4B2146B4F80021006856F026FDF0
S315080091C04FF0FF3200210120D7F0E5F9D7F025FF4F
S315080091D0044600210120D6F007F82046BDE83840AD
S315080091E0D7F016BFF82B0220E5900008002370B5CB
S315080091F0174CC2B0174DADF804318DF806314FF053
S31508009200FF330022206801A9D7F06AFC0028F6D1AE
S315080092109DF8066101A8FFF7BFFF4EB140F60D2382
S31508009220ADF80430022301A8ADF80431FFF7B4FF06
S315080092302A6852B1084901A866F0C4FA0023ADF8B5
S31508009240040101A82B60FFF7A7FF00231A46D9E7F8
S31508009250C4440120C8440120BA280E082DE9F84361
S31508009260DFF850801E46B8F800901546A3EB0907AC
S315080092700D4BFFB21C89FFF73DFF241AA4B2A74283
S3150800928007D8394605EB0900FFF752FF0023A8F86F
S315080092900030064832462946054B006856F004FC5D
S315080092A0BDE8F843FFF796B868440120F82B02207A
S315080092B05D92000820BE012070B5214E3468002C4E
S315080092C03DD14FF482711F4A0A20D7F095FB1E4DF7
S315080092D01E4A286021461E48D7F04FF81D4B1E4AE5
S315080092E09C801A604FF4807230601A81DC8008B95D
S315080092F0C5F006FE2B68002BFAD0184CA5F0AAF884
S315080093008022174B1749206856F0CEFB8022144B53
S315080093101549206856F0C8FB0B2059F069F80B2050
S3150800932059F020F81422114B0521DA640422A3F51A
S3150800933080531A650E48BDE87040B9F05EBC70BD32
S3150800934030450120D0280E08C4440120F0280E0814
S31508009350ED91000868440120F6DC0120F82B022074
S315080093605D9200089EEC01201EEC01200020015BA6
S315080093700000015B08B5FFF72DF80421034B03F540
S3150800938000521165D164DB6C08BD00BF0000015BAB
S3150800939070B50C460546C2B018B94FF0FF3042B05A
S315080093A070BD4B1EFF2BF8D80C4E33680BB9FFF770
S315080093B083FF00232246294601A88DF80631C6F008
S315080093C030F94FF0FF331822306801A9ADF804418F
S315080093D0D7F052FB0028E0D120B2E0E7C4440120D0
S315080093E010B50C46C2B00146D0B1631EFF2B17D884
S315080093F0224601A8C6F015F901230B488DF8063157
S3150800940018220023006801A9ADF80441D7F034FBFF
S3150800941010B920B242B010BD044A13680133136074
S315080094204FF0FF30F6E700BFC4440120C8440120CE
S315080094300422F0B52C4B0C46074685B01A65002861
S315080094404FD000294DD0FFF755FEA04219D2D7F0CC
S31508009450F7FD05462548264E03AB01A9006802AA72
S31508009460B9F01CFB338802998B4207D20198C91AB6
S31508009470184489B2FFF75CFE029B33802846D7F072
S31508009480DAFD1C4D2E89B44201D9C5F039FDFFF726
S3150800949031FEA04228BF2046AB8884B2F61AB6B27F
S315080094A0A6422B68A98817D2324613FA81F13846A4
S315080094B0C6F0B7F82968A21BB819C6F0B2F8AB8887
S315080094C02A8914FA83F3B3FBF2F102FB11339BB238
S315080094D0AB8020B205B0F0BD2246384613FA81F1BA
S315080094E0EBE74FF0FF30F5E70010015BF82B0220A1
S315080094F020BE012068440120002330B50B4CC3B0C0
S315080095000B4DADF804318DF80631002320681A4654
S3150800951001A9D7F0E5FA08B143B030BDBDF804217A
S31508009520286801A956F0E4F8EFE700BFC444012013
S31508009530F82B022008B5082021F000F818B10023FE
S315080095404360014B036008BD5C290E0808B5082076
S3150800955020F0F4FF18B100234360014B036008BDF7
S3150800956078290E08436843B9054B0B6005234B6001
S31508009570436801334360012070470020704700BFED
S3150800958014290E08042370B5144645688AB0ADF848
S3150800959002302B680A4601A805499E6880F08AF8B9
S315080095A0224628460DF1020301A9B0470AB070BD4C
S315080095B01A290E0830B54468134622688BB0156917
S315080095C001A80A46034980F075F8204601A9A8476C
S315080095D00BB030BD27290E0830B58DB0446801920E
S315080095E023680A4603A80649DD6880F063F8042361
S315080095F020460DEB030203A9A8470DB030BD00BFF6
S315080096001A290E08F0B5A3B0064617A81F460C4639
S3150800961015469BF021FC2A2217A80CA99BF02FFCC3
S315080096200DF10B03019315234FF48072009317A8CD
S3150800963000239BF041FE50BB97E80300154B8DE8CD
S315080096400300D3E9002317A89BF00EFFF8B9D7E962
S315080096500201114B8DE80300D3E9002317A89BF0FC
S3150800966003FFA0B99DF90B1017A89BF05AFE70B915
S315080096707668224633680949DF6803A82B4680F0D6
S3150800968019F83046BDF874300CAA03A9B84723B0B8
S31508009690F0BD00BFC8290E08C0290E0827290E08E4
S315080096A013B5044608460A4B1146C4E900300023A0
S315080096B0C4E903330193036822815B6A01AA9847C8
S315080096C010B9019BC4E90303204602B010BD00BFD0
S315080096D040290E082DE9F041D0E9033293420446A9
S315080096E00D469EB003D300201EB0BDE8F0812A26A1
S315080096F042683B495768ADF802603A68D2F8088074
S31508009700028910A87FF0D6FF38460DF1020305AA94
S3150800971010A9C0470028E6D110A89AF0E0FE324604
S3150800972005A910A89AF01EFF4FF480720023152190
S3150800973010A89BF0B0FA0028D5D10DF1010110A8A8
S315080097409BF0E3F80028CED1264BCDE90100D3E9FA
S315080097500023CDE9030010A89BF090FA0028C2D197
S3150800976001AE314610A89BF093F90028BBD11E4BD9
S3150800977010A8D3E900239BF081FA0028B3D10DF194
S315080097800C08414610A89BF083F90028ABD110A815
S315080097909BF069FA0028A6D19DF9011010A89BF044
S315080097A00EFA00289FD196E8060004F1140704F182
S315080097B0250638467FF0A4FF98E8060030467FF075
S315080097C09FFF3846C5F03AFFC5E900703046C5F038
S315080097D035FFC5E90260E36801200133E36083E7EA
S315080097E027290E08C8290E08C0290E08F8B5054607
S315080097F00E460024094FAC4206DB1EF09FFF0849BF
S315080098009CF0A1FB0020F8BD1EF098FF56F8242016
S3150800981039469CF098FB0134EDE700BFFA760F084D
S31508009820D2290E08F8B505460E460024064FAC4266
S3150800983001DB0020F8BD56F824303A4602211C20E8
S315080098409CF060FE0134F2E72B5B0F0810B51EF0A2
S3150800985075FF044698F032FE0349024620469CF0FE
S3150800986072FB002010BD00BFD0290E080322024952
S3150800987002481EF003BE00BF242A0E08A04E01208F
S315080098802DE9F04700240646E0B088464FF4BE723C
S31508009890214601A80094C5F081FEA64228DD6D4642
S315080098A04FF0200958F824A05046C5F0C7FE60AB13
S315080098B02F189F4202461DD228465146C5F00DFE76
S315080098C07D1C60AB9D4204F101042CBF3D4687F820
S315080098D00090A642E6D108489FF02FF86846CEF0D9
S315080098E0FAFF05489FF02BF8002060B0BDE8F08726
S315080098F02F20FAE71920F8E7A0B000200122024934
S3150800990002481EF0BBBD00BF702A0E08A04E0120FB
S315080099100122024B83F80421704700BF3445012019
S3150800992010B50446054B036000F5CF609DF029FC91
S3150800993023690BB1C5F0E4FA204610BDE8E60E0827
S3150800994070B504460B4B00F5387503F12C0203601D
S315080099504C334260836000F11006B54207D055F8D3
S31508009960080C283D0028F8D02BF024FBF5E7204604
S3150800997070BD00BF741E0F08A0F10400E0E7A0F157
S315080099800800DDE710B5094B04460360084B836001
S31508009990006948B143680BB9C5F0B2FA013B4360A8
S315080099A013B903681B6B9847204610BD702B0E0829
S315080099B09C2A0F0810B50446034B40F80C3BFFF7EA
S315080099C0E1FF204610BD00BF942B0E08002200239D
S315080099D010B5C0E90023C0E90223C0E904230D4BF2
S315080099E004460021836121226030C5F0D7FD4FF679
S315080099F0FF720023A4F882204FF48072204684F870
S31508009A008130A4F88420C4F888307FF063FF2046AC
S31508009A1010BD00BFA0FA0E0800F1080373B504468E
S31508009A200D46036011B91048C4F0E4FF0846C5F0B6
S31508009A3005FE0F2805EB0006019007D900222046EF
S31508009A4001A964F057FB019B2060A36032462946B2
S31508009A502068C5F01DF800212046019B2268636036
S31508009A60D15402B070BD00BF7C2A0E0810B504465A
S31508009A70044B0360406A7FF0B3FEE0687FF0BDFFE9
S31508009A80204610BD202B0E0870B5164605460C4616
S31508009A908CB0114668467FF002FF294630467FF0B3
S31508009AA070FE641B0A4BE4105C43694606A87FF007
S31508009AB0F6FE2246002106AB28467FF0DEFF06A802
S31508009AC0C4F0A9FF6846C4F0A6FF0CB070BD00BF7D
S31508009AD0ABAAAAAA2DE9F04F4FF0180B0446174671
S31508009AE00E468DB000EB0B08351BB5F5C07F22DDA1
S31508009AF03F4BED105D4367BB4FF01808AF1E7F1054
S31508009B00684608FB07417FF0CAFE694606A87FF04B
S31508009B10C6FE20462A46394606AB7FF0AEFF06A8A3
S31508009B20C4F079FF57B96846C4F075FF331B182B84
S31508009B30A6F1180607DC0DB0BDE8F08F6846013FB0
S31508009B40C4F069FFDCE7324631462046FFF79CFF42
S31508009B50ECE76D100BFB0545404629467FF088FF6C
S31508009B60A6F11809C246494660B128467FF080FF2B
S31508009B7008B129460BE0494640467FF079FF28B1EF
S31508009B80494604E040467FF073FF10B3414620463D
S31508009B90C4F0BEFF3546504621467FF069FFD146E0
S31508009BA00AF1180A0028F6D1A5F1180A51462046E6
S31508009BB07FF05EFF5546AAF1180A0028F6D1A94596
S31508009BC00ED3013F31463A464846FFF783FF4E46D5
S31508009BD08AE7494628467FF04BFF0028C9D0CFE7D9
S31508009BE029464846C4F094FF09F1180AD3E700BF8E
S31508009BF0ABAAAAAA2DE9F043884205460E4687B0C5
S31508009C0005D0DFF8608000F11804A64202D107B03B
S31508009C10BDE8F083294620467FF02AFF04F118079D
S31508009C20E0B1214668467FF03AFEB946641BE41067
S31508009C3008FB04F4002C08DC284669467FF0A1FDE1
S31508009C406846C4F0E8FE3C46DFE7A9F13001A9F111
S31508009C50180948467FF095FD013CEBE720467FF062
S31508009C6070FFF0E7ABAAAAAA2DE9F041036886B00F
S31508009C709B6A0446984701210346394A24209CF0EA
S31508009C8041FC236821466846DB6A9847039E002400
S31508009C9030460DF10408404505D1324B9C4206DD9D
S31508009CA03148C4F0AAFEC4F04BFD0134F3E7182787
S31508009CB067431CB13846B9F0B4FC04462546464508
S31508009CC02CD1AC4217D0294B2E1BF2105A43B2FAAC
S31508009CD082F2C2F11F02294620465200FFF7FAFE19
S31508009CE0B6F5C07F2ADD04F5C07631462046FFF773
S31508009CF081FFB5421DD12646DFF87480B54222D1D0
S31508009D002646B54227D11CB139462046B9F099FCFA
S31508009D1002987FF065FD06B0BDE8F081284606F199
S31508009D2010017FF07CFD3046C4F00AFD1835064662
S31508009D30C5E730467FF005FF1836DAE7294620469C
S31508009D40FFF758FFD7E742460121242056F8183B6B
S31508009D509CF0D8FBD2E73046C4F05DFE1836D0E753
S31508009D60AE2A0E0855555505DF2A0E08ABAAAAAA2B
S31508009D70102B0E08F8B50025474C60199035FFF7EB
S31508009D8025FEB5F5347FF8D100254448FFF71EFEB9
S31508009D900026C4E9D855C4E9DA55A4F87053C4F8BE
S31508009DA0745384F8785384F8805384F88253A4F85B
S31508009DB08453002712243A4A3A493748C4F062FCC9
S31508009DC0394B3A4A1A6002F12C014C32C3E9022592
S31508009DD059601033102218460021C5F0DFFB41F206
S31508009DE0A4520346013CC0E90667057442824561F0
S31508009DF0056203F12803EDD1294A2D492A48C4F002
S31508009E0041FC2C481FF082F8254A2B492948C4F002
S31508009E1039FC2A482CF076F8214A29492748C4F003
S31508009E2031FC2848284B1E4A2849C0E901440360EA
S31508009E300473C4F027FC2648264B194A036000F130
S31508009E400803C0E90433244900F12003234DC0E97F
S31508009E500A330472C460846180F820404462046353
S31508009E6080F834408463C4F00DFC1D4B21462B60FA
S31508009E701C4B102205F11800EB60C5E901442C6162
S31508009E80C5F08CFB184BEC616B612846BDE8F840C1
S31508009E90034A1649C4F0F6BB3836002008390020B4
S31508009EA0F02602203199080858330020741E0F083E
S31508009EB041990008A82B002021990008A01A002023
S31508009EC0FD600308A04601205C2D0F081D5C0308F1
S31508009ED064460120202B0E086D9A00083C46012096
S31508009EE0942B0E08702B0E089C2A0F08B5990008AB
S31508009EF070B5036805460C4616460BB1032070BDBF
S31508009F0002210D20074A9CF0FDFA0CB92F20F6E72E
S31508009F1023682046DB6898470028F0D1C5E9004643
S31508009F20EDE700BFA02B0E082DE9F04F07460068A5
S31508009F308BB004680D46646C90461E46A0472D28D3
S31508009F4004460ED048B19F4A9F4B0221A52808BF58
S31508009F5013460D209D4A9CF0D5FA20460BB0BDE865
S31508009F60F08F6B78202B01D10024F6E7984B3868E0
S31508009F70029358B103682A461B6C02A998470446FF
S31508009F8030B1029803689B689847E6E70324F8E728
S31508009F904FF0000A4FF0000B8E4B0393029803A96B
S31508009FA00368DB68984730B102210D208A4A9CF085
S31508009FB0A9FAA52410E08DF8060003980DF106010C
S31508009FC00368DB689847044630B99DF80630402B8D
S31508009FD006D0802B04D0032403A880F0C1F8D0E76C
S31508009FE06A789A42DAD1012303988DF80730036814
S31508009FF00DF107015B69984704460028ECD19DF8E6
S3150800A0000730082B18D8002BC8D0013B072BC5D81A
S3150800A01001A252F823F000BF51A0000863A000086F
S3150800A0209D9F00086FA000089D9F00089D9F00083F
S3150800A0309D9F00088DA00008102BAFD1102E1AD0B6
S3150800A040082EABD84FF48B73F340D807A6D512E089
S3150800A05006F1FF3CDCF1000343EB0C03002B9DD01B
S3150800A06009E0731E012B8CBF00230123F6E7042E9B
S3150800A07001D0012E92D1002303980493036804A902
S3150800A0805B6A9847814648B14C46A5E7082E85D8AD
S3150800A0906FF489733341DC07EDD57FE7049B1BBB5F
S3150800A0A0002303980593036805A99B6B9847814687
S3150800A0B00028E9D1059B002B7FD100248CE74FF0BF
S3150800A0C0FF31C21C994274EB020243D39DF8062065
S3150800A0D0402A80D14FEA134C05F10C0105F118040A
S3150800A0E08C4229D109F10109049B4B457FF656AFED
S3150800A0F0CDE906AB03984946036806AA9B6A9847C2
S3150800A100044600287FF468AFDDE906306FF0010CDD
S3150800A1105A1E40F1FF3194456FF010028A41CED3A2
S3150800A1209DF80620402A7FF456AFD5E902129042E0
S3150800A13008BF8B42D6D1B3E751F8042F002ACFD0F7
S3150800A140BCEB124FCCD198B20028C9D092B290423B
S3150800A150C6D8A5E713F5803F70F1FF32FFF43BAF91
S3150800A1609DF80620802ADEE70023039806930368F5
S3150800A1704946DB6B06AA9847044600287FF42CAFAD
S3150800A180069BD90704D5D8F800200799914212D121
S3150800A1909A0705D5BDF82010B8F8042091420AD1CF
S3150800A1A05B078AD57868B8F80420036809999B681C
S3150800A1B09847002881D109F10109059B4B45D3D859
S3150800A1C0ECE600BFE82B0E08F5201008BC2B0E089D
S3150800A1D07427022078270220D92B0E080023F0B511
S3150800A1E08BB0CDE90433054600688DF80D308DF83F
S3150800A1F00E308DF80F3003680DF10D01DB689847B6
S3150800A2000446002840F0C78028680DF10E0103684F
S3150800A2101B6998470446002840F0BD8028680DF160
S3150800A2200F0103685B6998470446002840F0B3802D
S3150800A230286804A903685B6A98470446002840F022
S3150800A240AA80286805A903689B6B984704460028D6
S3150800A25040F0A1809DF80E30002B00F09E809DF8FE
S3150800A2600D30402B07D0802B40F09E809DF80F3094
S3150800A270102B00F09B802646049BB34207D8002685
S3150800A2804B4F059BA3423AD801200BB0F0BD286876
S3150800A2903146036806AA9B6A9847002879D19DF833
S3150800A2A00D30402B16D1DDE906326FF0010C591E30
S3150800A2B042F1FF378C456FF01001B94108D24FF0D3
S3150800A2C0FF310332994270EB02020CD39BB253B1B1
S3150800A2D00136D1E7802B06D1069B079A13F5803FF6
S3150800A2E072F1FF32F1E7334B0446002856D00121BC
S3150800A2F00D20314A00949CF005F90020C5E728682E
S3150800A300069603682146DB6B06AA9847002840D1C3
S3150800A310069B03F0020103F00402DB0710D411B117
S3150800A320F2B1264BE0E7002AFBD0099B03EA0702B5
S3150800A33012F5003FF5D89BB2B3F5404FF1D215E0C0
S3150800A34009B1002AEDD1079B13F5302F4FEA134CBC
S3150800A350E7D2BCF1000F0BD11B0410D56046E0E72D
S3150800A3604FF6FF73BDF820209A42DAD0013488E709
S3150800A37040F2FE3C03F580639BB26345D1D829B110
S3150800A3804FF6FF73BDF820109942CAD0002ACCD1E7
S3150800A390ECE70B4BA8E70A4BA9E70A4B01210D206E
S3150800A3A0094A9CF0AFF8A8E7084BF7E7084BF5E72A
S3150800A3B00000FFFF002C0E08582C0E08102C0E0863
S3150800A3C0EF2B0E08432C0E086E2C0E08312C0E08A7
S3150800A3D01F2C0E082DE9F0430546006887B088460D
S3150800A3E01F468DF80F2020B90324204607B0BDE884
S3150800A3F0F083DFF86490AB68CDF81490EBB90026CB
S3150800A4002868394603680DF10F02DB6B9847044646
S3150800A41078B91EB133684B4508BF0026022341466A
S3150800A420CDE9006328463B469DF80F207FF0D3FE12
S3150800A430002405A87FF094FED7E79DF80F3039462B
S3150800A4408DF81330036805AA5C6B0DF11303A0475A
S3150800A4500028D4D105AED3E778270220034B186825
S3150800A460034B002808BF1846704700BFB4460120B2
S3150800A470B846012010B5044602210D20024A9CF078
S3150800A48041F8024B1C6010BD802C0E08B446012012
S3150800A49010B5094C094922460948C4F0F3F8224682
S3150800A4A008490948C4F0EEF82246BDE810400749B5
S3150800A4B00748C4F0E7B800BFF02602202FA1080815
S3150800A4C0B846012041A108087827022043A10808B8
S3150800A4D0742702200023F7B5CDE900334AB96E4642
S3150800A4E001AB15240E4A013C06D11423036003B0C0
S3150800A4F0F0BD6B4601AEF4E71578002DF5D055781A
S3150800A5008D4206D107683568AF4207D0019D0135EF
S3150800A5100195009D403201350095E4E71B68E5E7A3
S3150800A520003A002007B5019021B10122097801A857
S3150800A530FFF7D0FF019813280AD8064B820103EBD0
S3150800A54080109B5C002B08BF002003B05DF804FB5D
S3150800A5500020FAE7003A00200023152010B5136002
S3150800A560074B013801D1002010BD1C78002CFAD009
S3150800A5705C7840338C4202BF146801341460F0E7FB
S3150800A580003A002000231A4610B50648B3F5A06F16
S3150800A5900A6001D1002010BD4033C45C002CF9D0FC
S3150800A5A00132F3E7C03900200868114B70B59842AC
S3150800A5B00E46154603D303F10C02904214D31B79B9
S3150800A5C0A3B90B4C03689B6898470123002D346098
S3150800A5D0237108BF00234FF00000637118BF2B7862
S3150800A5E0A06018BFA37170BD0446EBE71920FAE70F
S3150800A5F0C846012002210D20014A9BF083BF00BFF7
S3150800A600042D0E0838B502210D20074A9BF07AFF63
S3150800A6100024064D60194034B4F5A86F01D1002016
S3150800A62038BD7FF07CFEF5E72C2D0E08003A002099
S3150800A63038B50B4B0C46984202D30C33984201D3DB
S3150800A640C4F05EFC85680FCD0FC40FCD0FC40FCDC7
S3150800A6500FC495E80F0084E80F00002038BD00BF3E
S3150800A660802702202DE9F041144C1F460E4615237B
S3150800A670A046013B01D119201EE0217871B1403472
S3150800A680F7E763783B70B6B1A4EB0804A41134600D
S3150800A6902A4630463978FFF71DFF0CE02146106838
S3150800A6A0FFF7C6FF054630B9002FEAD11EB1A4EB65
S3150800A6B00804A41134602846BDE8F081003A002059
S3150800A6C0064B984203D303F10C02904204D39B68CD
S3150800A6D00248002B18BF0020704700BF80270220C1
S3150800A6E010B50868FFF7ECFF80B18268084B0AB11D
S3150800A6F09A4206D21B784BB9054A7FF057FE0020CE
S3150800A70010BD03F14004A242F4D2F6E71920F7E798
S3150800A710C039002038B5114A83684BB9104B83609D
S3150800A7208468944201D0237833B982600A2038BD00
S3150800A7309342F5D24033F2E743791BB165788379C2
S3150800A7409D42E9D10868FFF7BBFF20B122467FF09A
S3150800A7502DFE0020EBE71920E9E700BF003F0020A7
S3150800A760003A0020F0B50E4F84680646BC4205D371
S3150800A77007F140039C4201D20020F0BD3B7863B943
S3150800A780074D0FCC0FC50FCC0FC50FCC0FC594E8DE
S3150800A7900F0085E80F00B760EEE71920EDE700BF68
S3150800A7A0C03900202DE9F0410E4611463046FFF724
S3150800A7B0B9FE0446002842D0224FBB68984202D10F
S3150800A7C03846FFF7CFFFDFF88C80444516D204F1F0
S3150800A7D0400CC4450FD294F8403063B165460FCD9E
S3150800A7E00FC40FCD0FC40FCD0FC495E80F0084E832
S3150800A7F00F006446E9E720467FF091FD124CBB68DE
S3150800A80004EB86169E4212D003D2434501D2403B42
S3150800A810BB600E4A93689E4206D8434504D2A342BB
S3150800A8200CBF0023403B93600020BDE8F0817D68A3
S3150800A830286803689B689847054B2B60E9E70A2058
S3150800A840F3E700BF80270220003A0020C84601200F
S3150800A85078270220003F00208268054B00219A4293
S3150800A86003D340339A4238BF11708160704700BFE6
S3150800A870C039002010B5094CD4E8AF3FDB070BD42C
S3150800A8802046A5F0CBF838B1054A06490648C3F074
S3150800A890F9FE2046A5F0C7F8034810BDC4460120B6
S3150800A8A0F0260220F5A308087C27022010B5084CDC
S3150800A8B0084922460020C3F0E5FE0020064B074A59
S3150800A8C018711A6006492246BDE81040C3F0DABE80
S3150800A8D0F0260220FBA30808C8460120B02D0E0862
S3150800A8E0A1A4080870B5104ED6E8AF4F14F00104BD
S3150800A8F018D13046A5F092F8A0B10C4D0C4A2B465B
S3150800A90007CA43F8044B83E807004FF6FF722A820A
S3150800A9104FF0FF321846C5E905247FF016FF30468A
S3150800A920A5F081F8014870BDD4460120D84601201B
S3150800A930442E0E0838B5054604300C467FF005FF50
S3150800A9402A6813461BB9E26001202C600DE098685E
S3150800A950A16888420ED1197909B1217931B9232024
S3150800A9600121054A9BF0CEFD002038BDD888E18834
S3150800A9708842F4D0DB68E5E7102E0E082DE9FF4182
S3150800A9800A9F884616461D469BF0DFFD04460028AA
S3150800A9903FD0D6E900010026231DD8F80020C4E9D7
S3150800A9A00133C4E906011D4B267323602661226222
S3150800A9B004F1280C95E80F008CE80F002B7C04F1B5
S3150800A9C0480084F838306B8A63876B69E363D5E996
S3150800A9D00623C4E91023124B04F1580519680B68BD
S3150800A9E09B68984700220023C4E9142301AB97E823
S3150800A9F0070083E80700012385E80700A4F87430F8
S3150800AA00084B84F8646084F8686084F86C60A6670C
S3150800AA102360204604B0BDE8F08100BFA02E0E08D2
S3150800AA2064290220E82E0E08094A08B50260026960
S3150800AA300AB1C4F065FA074A011D026082688A42B3
S3150800AA40F7D141680029F4D04A604368136008BD0D
S3150800AA50A02E0E08582E0E0810B50446024B0360A9
S3150800AA60FFF7E2FF204610BDE82E0E08F7B50C46A4
S3150800AA70114B0546196868460B689B689847D4E9E0
S3150800AA801421009B20469F1A019B63EB010680F068
S3150800AA903BFA038920469F4276F1000309D280F0EB
S3150800AAA033FA0430036828462B6000236B6003B032
S3150800AAB0F0BD80F029FAF5E7642902202DE9F04374
S3150800AAC007460E46154698466FF001096FF01004C2
S3150800AAD08BB097F0C2FC421E41F1FF33914574EBEF
S3150800AAE00303F6D300231836CDE904010293304652
S3150800AAF02B46CDF8008004AA02A9FFF73FFF0446BB
S3150800AB0050BB4FF0FF324FF0FF33CDE9062306ABBB
S3150800AB1003900893304603AB1C4A08A909939BF097
S3150800AB207CFD039C2CB900233B7038460BB0BDE86E
S3150800AB30F083236820461B689847214630469BF0D9
S3150800AB404AFD2B463046CDF8008004AA02A9FFF735
S3150800AB5015FF04460028E6D095E80F0004F12806FC
S3150800AB6086E80F002B7C204684F838306B8A63878A
S3150800AB706B69E363D5E90623C4E9102301233B7017
S3150800AB8023687C60DB689847CFE700BF6FAE08088C
S3150800AB90084B10B50360183343600446083080F04C
S3150800ABA027FA014620B9606900F5CF609CF0FFFAE4
S3150800ABB0204610BD302F0E08A0F10400E8E700BFBC
S3150800ABC010B504460221074A0D209BF09BFCFFF7AF
S3150800ABD045FC04F114017FF0D9FA2046BDE810407F
S3150800ABE08FF014BF542F0E0800B5084B89B0049394
S3150800ABF0042305930023039204490422009303A81F
S3150800AC008FF0BEFE09B05DF804FB00BF44300E08A5
S3150800AC1038B50C46054602210D20084A9BF072FC01
S3150800AC20214628468FF004FF044628B9FFF716FC8C
S3150800AC3005F114017FF09CFA204638BD732F0E08E3
S3150800AC4000B50D4B8DB0CDE90631ADF820200023B7
S3150800AC501F22CDE90923012391F83C208DF82C30D9
S3150800AC608DF82D200093024606AB08A902A80CF021
S3150800AC70BFF80DB05DF804FB38300E082DE9F04F2B
S3150800AC8014460027B9B006461D460397FFF7E6FBAC
S3150800AC902269042A08D8042A10D8DFE812F013001B
S3150800ACA00F00F800210128014FF6FC739A4200F0C4
S3150800ACB023814FF6FD739A4200F0208140F28652B6
S3150800ACC0326064E0904B05A90493904B16A805934F
S3150800ACD080F0E0FA0123284685F844307FF0B7FF74
S3150800ACE0044600284BD10BA80A959AF0B5F888486F
S3150800ACF080F0ACFA074648B1864FB7F8643907F5CD
S3150800AD000B6703F00503052B18BF00270022052350
S3150800AD10DFF80482CDE908234046CDE9068780F0AE
S3150800AD2095FA10B906A880F0A1FA4FF09009089C88
S3150800AD30052C0AD128467FF0CFFF00244FF6FF7373
S3150800AD4085F84C40A5F84A3019E009FB048494F8C4
S3150800AD5081A047B1384680F079FA20B197F881305A
S3150800AD60534508BF3C4694F88140FFF777FB0068D7
S3150800AD708DF8084088B928467FF0AEFF032405A859
S3150800AD807FF0EEF9049803689B68984734600023BF
S3150800AD903046337139B0BDE8F08F036802AA1B6CE0
S3150800ADA004A998470446CCB158E0169B8DF808408C
S3150800ADB0186802A903681B6998479DF80830002B94
S3150800ADC063D00A9B93F84530B3B9DDF828A00BA9E0
S3150800ADD050469AF808B07FF0A6FFE0B9049805A98E
S3150800ADE00368DB68984704460028DED00A2835D170
S3150800ADF006A880F03BFA9AE7169B8DF80840186873
S3150800AE0002A903681B6998470A9A9DF80830127ABE
S3150800AE109A42E3D1D9E79AF84630DAF800107BB1BE
S3150800AE20096C4FF480720023CDF800B016A890F094
S3150800AE30E6F8044601460BAA50467FF08DFFB2E7B6
S3150800AE40DAF840300AF1280202A87FF0BAFE044672
S3150800AE5040B1214650460BAA7FF07EFF28467FF078
S3150800AE603BFF8CE7DAF800300222196C16A800239B
S3150800AE70CDF800B090F0C3F804460028E9D1DAF816
S3150800AE80001002A87FF0D5FED3E77124E6E7006834
S3150800AE90002836D003689B6903A99847024600280C
S3150800AEA07FF40EAF0123296885F8443005F128029E
S3150800AEB02B6C16A8039C7FF084FE034670B92A689B
S3150800AEC0106CCDE90043022200239AF057F9034695
S3150800AED020B9296816A87FF0ACFE0346336056E70A
S3150800AEE0006800283FF4ECAE0368DB69D4E703A9E1
S3150800AEF0006880F0A5F9D1E70397D3E70223039307
S3150800AF00D0E70322DCE600BF742702207827022058
S3150800AF1030A0002080970020609D00202DE9F04198
S3150800AF20D0F80C80B2B00546DDE938760C46B8F1A3
S3150800AF30000F29D041B3402200216846C4F02EFBF9
S3150800AF402378012E8DF83C3002D18DF8146001E08B
S3150800AF50022EFAD06378402B19D1D4E90223CDE921
S3150800AF60002301238DF80830002F3FD0394610A85A
S3150800AF7080F090F910A88FF05AFF034680B101219E
S3150800AF800D201C4A9BF0BEFA32B0BDE8F081202B9A
S3150800AF9001BFA368ADF8103001238DF81230E3E73E
S3150800AFA0BDF8443012AAADF8183007AB07CA83E8D3
S3150800AFB007000AAB15AA07CA83E807009DF86030A0
S3150800AFC08DF834301BB19DF861308DF835309DF819
S3150800AFD0623000228DF8363001238DF83830EB6860
S3150800AFE0DB6869461868FFF72BFECDE73A46D8F8BE
S3150800AFF00C30F6E7962F0E082DE9F84391F83870CD
S3150800B00004460E464FF000080FB191F83980002526
S3150800B01004F10809484699F062FA3146484625601F
S3150800B02099F072FA84F840700FB184F84180074BA2
S3150800B030A4F85050A36484F8905084F8D05084F84B
S3150800B040D85084F8DA502046BDE8F88378270220DD
S3150800B0502DE9F04190F9343006460133A6B003D104
S3150800B060002026B0BDE8F0810368002BF8D100F176
S3150800B0700808404699F0D7FD074630600028EFD10A
S3150800B080204C0146942201A80094C4F087FAB06CBB
S3150800B09004AD03689B6898470FCDB46406F158045D
S3150800B0A0A6F850700FC40FCD0FC40FCD0FC495E886
S3150800B0B00F0014AD84E80F000FCD06F198040FC4F5
S3150800B0C00FCD0FC40FCD0FC495E80F0084E80F000D
S3150800B0D0684686F8D87086F8DA707FF041F84146F7
S3150800B0E006F148008FF099FE30600028B8D196F82E
S3150800B0F040302BB1B06C96F841100368DB6998476D
S3150800B1000120AEE778270220F0B5CFB007460E46F5
S3150800B1100D7AFFF7A3F9006838B1036829465B6A18
S3150800B12003AA984718B104461EE00320FBE7FFF779
S3150800B13095F904A9006880F083F80446A0B9BB7B9A
S3150800B140012B00F2838006A899F0C9F92246214608
S3150800B15006A899F007FA304606A98DF8504080F0FF
S3150800B160AEF8074618B1044620464FB0F0BD9DF923
S3150800B1704430013321D1059006A916A8FFF73CFFF4
S3150800B18016A8FFF765FF28BB169C28A8212C2BD1EB
S3150800B1907EF0E6FF06A916A8FFF72EFF06F10804BB
S3150800B1A016A8FFF755FF20BB169C212C4CD0002C67
S3150800B1B04AD028A87EF0D4FFD6E705A906A899F0B4
S3150800B1C09AFD0028AFD1DDE904329A42D4D940F27B
S3150800B1D08954C9E728A8FFF701F80028D0D128A87C
S3150800B1E07EF0BEFF2F24BFE77EF0BAFF002CBBD14E
S3150800B1F0D0E7039BBB420BD9FFF730F928AB009386
S3150800B2002A463B4621467FF046F858B10446D0E721
S3150800B210FFF724F928AB00932A46002321467EF03F
S3150800B220F1FFF2E70137BBE7013B0393FFF716F996
S3150800B2302A463146039BFFF7CDF80028E6D1039B43
S3150800B240BB42F1D80024B4E70836F8E7042B2FD11F
S3150800B250039B049A01339342B9D8164BADF86000A4
S3150800B260169301233371337A8DF8A0008DF8E00028
S3150800B2708DF8E8008DF8EA0016AFB3B138463168A4
S3150800B2808FF0CBFD044670B9169816F8081F0368A8
S3150800B290DB699847FFF7E2F823462A4631460097C6
S3150800B2A07EF0B0FF0446384684E740F27E54FAE75B
S3150800B2B06C2459E778270220F0B517690E4604462C
S3150800B2C0194685B0BFB902F10800FFF71DFF2F2800
S3150800B2D0034613D0D82811D00B2819D000228DF890
S3150800B2E00C20039A2046009231463A468FF0C5FB59
S3150800B2F0204605B0F0BD4FF4B163EFE7872501217D
S3150800B3000D20044A00959BF0FDF845F4A063E5E797
S3150800B3108925F4E7BD2F0E08034B53F81C090028AE
S3150800B32018BF1846704700BF1047012008B50C48DB
S3150800B33002680AB1C3F0E4FD1F21A0F11C0340E92D
S3150800B34005120849C3E9073240F81C1C483140F881
S3150800B350182C40F80C2C40F8042C40F8081C08BDA2
S3150800B36010470120DC2F0E087FB5094B1F220193D9
S3150800B3704FF00113CDE903230023ADF8080001A916
S3150800B38002A8ADF8143097F0AAF807B05DF804FBE8
S3150800B3906C300E0808B502487FF0CCFF08BD00BF28
S3150800B3A0F4460120024A03490348C3F06BB900BFBB
S3150800B3B0F02602205FB30808F446012000B5084BC2
S3150800B3C089B00493032305930023039204490322B7
S3150800B3D0009303A88FF0D4FA09B05DF804FB00BF08
S3150800B3E0D4300E081046024902229BF0F3B900BF7A
S3150800B3F0C4300E087FB516690546022E1C464DD088
S3150800B40008D826BB36488FF06AFE032865D0CDE9F2
S3150800B410020610E04FF6FC739E4208D04FF6FD7305
S3150800B4209E4212D086220123C0E900230AE00022A8
S3150800B4300023CDE90223204602A97FF0EBFF002373
S3150800B44028602B71284604B070BD0122F0E701235D
S3150800B450216884F8443004F12802236C02A87FF09E
S3150800B460B0FB0028EBD12368186C1E4B93F8A12477
S3150800B47022B90222002399F015FF08E093F8A034B8
S3150800B480FF2B2AD000930222002399F091FE002870
S3150800B490D5D1216802A87FF0CCFBD0E7012321682B
S3150800B4A084F8443004F12802236C02A87FF089FB53
S3150800B4B00028C4D12368186C0A4B93F89E24002AE6
S3150800B4C0D7D04FF6FF72B3F89C34934205D0009359
S3150800B4D00222002399F077FED9E740F28750AEE7BB
S3150800B4E0C8A3002080A700202DE9F04317460221B3
S3150800B4F0314AA1B004461D201D46B3F800909BF0C2
